:10000000DDC00000F7C00000F5C00000F3C0000034
:10001000F1C00000EFC00000EDC00000EBC0000028
:10002000E9C00000E7C0000035C40000FCC40000C7
:10003000E1C00000DFC00000DDC00000DBC0000048
:10004000D9C00000D7C00000D5C00000D3C0000058
:10005000D1C00000CFC00000CDC00000CBC0000068
:10006000C9C00000C7C00000C5C00000C3C0000078
:10007000C1C00000BFC00000BDC00000BBC0000088
:10008000B9C00000B7C00000B5C00000B3C0000098
:10009000B1C00000AFC00000ADC00000ABC00000A8
:1000A000A9C00000A7C00000A5C000007505970505
:1000B0007B0697057B06D905FB057B064D065F068B
:1000C00030034C005500460041002000430044002E
:1000D0004300200061006E00640020004D006F00AE
:1000E0007500730065002000440065006D006F001E
:1000F000000018034400650061006E00200043000A
:1001000061006D00650072006100000004030904D5
:1001100009025F00030100C032080B000202020165
:10012000000904000001020201000524001001047E
:100130002402060524060001070582030800FF09C2
:10014000040100020A000000070504021000050770
:1001500005830210000509040200010301020009E1
:100160002111010001223A00070581030800051250
:10017000011001EF020108EB03622001000102DC23
:100180000105010902A1010901A1000509190129BF
:1001900003150025019503750181029501750581FF
:1001A0000105010930093116FFFF26010036FFFF66
:1001B000460100950275088106C0C00011241FBECB
:1001C000CFEFDAE0DEBFCDBF11E0A0E0B1E0EAE8BA
:1001D000F4E102C005900D92AE37B107D9F711E0F6
:1001E000AEE7B1E001C01D92AF38B107E1F75BD0D7
:1001F0000C94430A05CF95B19F77982B95B9089534
:1002000093B18CB18095807386959095907E892B63
:10021000089584B7877F84BF88E10FB6F8948093F0
:100220006000109260000FBE90E080E80FB6F89476
:1002300080936100909361000FBE84B18F7184B987
:100240008DB18F7C8DB985B1806E85B98EB180639B
:100250008EB9279A2F9801C3D3DF87FD0BC084FD89
:100260000CC086FD0DC083FD0EC085FD0FC0109231
:100270007E0108956FE671E00BC06FE571E008C084
:100280006FE471E005C06EE371E002C06BE271E003
:1002900080917E01811106C081E080937E0180E122
:1002A00091E083C50895B5DF80E8A5DF7894D4DFB9
:1002B00080E191E0DFD580E191E0C6D580E091E07A
:1002C0000E94610931D5F3CF80E095CF80E893CFCC
:1002D000CF9380E091E0E2D7C82F80E191E040D554
:1002E0009091E20094609093E200882321F0CC2367
:1002F00011F080E001C080E8CF917DCF80E191E0F6
:10030000EFD580E091E09CC680910E0190910F01A5
:10031000009729F0019790930F0180930E010895A3
:100320000F931F93CF93DF93E9016ADF4C9B03C0C8
:1003300088818160888383E090E0F80191838083E5
:1003400081E0DF91CF911F910F9108950895292F9A
:10035000332723303105B9F05CF42130310569F1E0
:100360002230310579F58FE590E020E131E02EC0B3
:1003700021323105E9F02232310521F58AE390E09E
:1003800021E831E023C099278130910541F0823086
:10039000910541F0892BB1F4ECE0F1E005C0E2EF0A
:1003A000F0E002C0E0ECF0E0849190E09F010EC02C
:1003B00089E090E02FE531E009C082E190E02FE68E
:1003C00031E004C080E090E020E030E0FA013183C9
:1003D00020830895CF92DF92EF92FF920F931F93A5
:1003E000CF93DF937C018B01EA01C7D1811130C02B
:1003F000209731F088819981081B190BE80EF91EAE
:10040000C12CD12C0115110511F18091E80085FD59
:1004100013C08091E8008E778093E800209741F028
:10042000888199818C0D9D1D9983888385E010C0FA
:10043000A4D1882339F30CC0F70181917F01809307
:10044000F10001501109FFEFCF1ADF0ADBCF80E086
:10045000DF91CF911F910F91FF90EF90DF90CF90A0
:10046000089520918D0130918E012617370748F0AD
:100470006115710539F42091E8002E772093E8008A
:1004800001C0B901FC0120E061157105A9F180915D
:1004900086018823E9F18530E9F18091E80083FD48
:1004A00035C08091E80082FF06C08091E80082FF9D
:1004B00026C080E008958091E80080FFE5CF20917C
:1004C000F3008091F20090E0922B6115710551F0DC
:1004D0008830910538F421912093F1006150710921
:1004E0000196F3CF21E0089709F020E08091E80021
:1004F0008E778093E800C8CF2111C9CFD6CF8091E5
:100500008601882329F0853081F604C081E00895B2
:1005100082E0089583E008956115710529F4209122
:10052000E8002B772093E8006115710541F12091D7
:100530008601222369F1253069F12091E80023FD2D
:1005400023C02091E80022FFF2CFFC01CF014091AF
:10055000F3002091F20030E0342B232B01F3809143
:10056000F1008193CF01615071096115710571F737
:10057000D6CF80918601882359F0853059F080913B
:10058000E80080FFF6CF02C081E0089580E0089582
:1005900082E0089583E0089520918D0130918E01CD
:1005A0002617370748F06115710539F42091E800E6
:1005B0002E772093E80001C0B901FC0120E061150D
:1005C0007105C1F180918601882309F43FC085300F
:1005D00009F43EC08091E80083FD36C08091E800B8
:1005E00082FF06C08091E80082FF27C080E0089566
:1005F0008091E80080FFE3CF2091F3008091F2002A
:1006000090E0922B6115710559F08830910540F406
:1006100024912093F1003196615071090196F2CF37
:1006200021E0089709F020E08091E8008E77809320
:10063000E800C5CF2111C6CFD5CF80918601882390
:1006400029F0853079F604C081E0089582E00895AC
:1006500083E00895982F973058F59093E900981704
:1006600039F07091EC002091ED005091F00003C042
:10067000242F762F50E021FF19C03091EB003E7FF0
:100680003093EB003091ED003D7F3093ED003091E1
:10069000EB0031603093EB007093EC002093ED00A1
:1006A0005093F0002091EE0027FF07C09F5FD3CF4B
:1006B0008F708093E90081E0089580E008950F93A2
:1006C0001F93CF93DF93062FEC0110E0101771F109
:1006D0009881992341F12C81E981FA817B81892FCD
:1006E0008F70873010F080E022C0223010F056E08A
:1006F00001C052E028E030E040E02E173F0720F430
:100700004F5F220F331FF9CF4295407F452B692F52
:10071000661F6627661F90E4799F90011124622B63
:1007200099DF882301F31F5F2596D0CF81E0DF9109
:10073000CF911F910F9108958091870187FD05C08A
:100740008091E80080FF0EC012C08091E80082FD19
:1007500005C0809186018111F8CF08958091E8004D
:100760008B7708C0809186018111EACF089580912E
:10077000E8008E778093E80008958091E4009091DE
:10078000E50045E62091EC0020FF21C02091E80023
:1007900020FD21C020918601222389F0253089F097
:1007A0002091EB0025FD0FC02091E4003091E50081
:1007B0002817390739F3415041F0C901E3CF82E0EE
:1007C000089583E0089581E0089584E008952091DC
:1007D000E80022FFDFCF80E008950F931F93CF93AF
:1007E000DF934BD052D0C8EDD0E088818F778883DB
:1007F00088818068888388818F7D888319BC109266
:10080000860110928201109284011092830100EE01
:1008100010E0F80180818B7F8083888181608883EC
:1008200042E060E080E016DFE1EEF0E080818E7F64
:100830008083E2EEF0E08081816080838081886047
:100840008083F80180818E7F8083888180618883A6
:10085000DF91CF911F910F910895E8EDF0E0808135
:100860008F7E8083E7EDF0E080818160808384E08B
:1008700082BF81E080938501B0CFE8EDF0E0808118
:100880008E7F80831092E20008951092DA00109219
:10089000E10008951F920F920FB60F9211242F932B
:1008A0003F934F935F936F937F938F939F93AF93F8
:1008B000BF93EF93FF938091E10082FF0AC0809184
:1008C000E20082FF06C08091E1008B7F8093E1000F
:1008D0001BDD8091DA0080FF1DC08091D80080FF71
:1008E00019C08091DA008E7F8093DA008091D90060
:1008F00080FF0CC080E189BD82E189BD09B400FEA2
:10090000FDCF81E080938601DFDC04C019BC10922A
:100910008601DCDC8091E10080FF18C08091E2005C
:1009200080FF14C08091E2008E7F8093E20080916E
:10093000E20080618093E2008091D8008062809321
:10094000D80019BC85E080938601EDD18091E1004B
:1009500084FF2DC08091E20084FF29C080E189BD21
:1009600082E189BD09B400FEFDCF8091D8008F7D62
:100970008093D8008091E1008F7E8093E100809188
:10098000E2008F7E8093E2008091E200816080939C
:10099000E20080918201811104C08091E30087FF11
:1009A00002C084E001C081E080938601BCD18091C7
:1009B000E10083FF27C08091E20083FF23C0809184
:1009C000E100877F8093E10082E0809386011092AE
:1009D00082018091E1008E7F8093E1008091E200AE
:1009E0008E7F8093E2008091E20080618093E2003C
:1009F00042E060E080E02EDE8091F000886080932D
:100A0000F00091D1FF91EF91BF91AF919F918F91A4
:100A10007F916F915F914F913F912F910F900FBEFA
:100A20000F901F9018951F920F920FB60F921124DE
:100A30002F933F934F935F936F937F938F939F93E6
:100A4000AF93BF93CF93EF93FF93C091E900CF7023
:100A50008091EC001092E9008091F000877F8093F4
:100A6000F00078941BD01092E9008091F00088602B
:100A70008093F000C093E900FF91EF91CF91BF9177
:100A8000AF919F918F917F916F915F914F913F9126
:100A90002F910F900FBE0F901F9018951F93CF931B
:100AA000DF93CDB7DEB7AA970FB6F894DEBF0FBEBF
:100AB000CDBFE7E8F1E08091F100819321E0EF38CC
:100AC000F207C9F71BDC8091E80083FF14C1209175
:100AD000870130918801832F90E08A30910508F0DA
:100AE0000AC1FC01EA5AFF4FABC4203881F022381A
:100AF00009F001C180918B018F708093E900809192
:100B0000EB0085FB882780F91092E90006C08091F0
:100B1000830190918401911182609091E800977F08
:100B20009093E8008093F1001092F100C1C0822FF1
:100B30008D7F09F0E0C0222319F0223061F0DBC084
:100B400080918901813009F0D6C0333009F080E00E
:100B50008093840128C080918901811124C0209153
:100B60008B012F7009F4C7C02093E9008091EB003E
:100B700080FF19C08091EB00333011F4806211C006
:100B800080618093EB0081E090E0022E01C0880F2D
:100B90000A94EAF78093EA001092EA008091EB0051
:100BA00088608093EB001092E9008091E800877FD5
:100BB00082C02111A0C0109189011F778091E300AC
:100BC0008078812B8093E3008091E800877F809379
:100BD000E800B2DD8091E80080FFFCCF8091E30067
:100BE00080688093E300112311F083E001C082E06C
:100BF0008093860180C02058223008F07CC080910C
:100C0000890190918A018C3D23E0920771F583E080
:100C10008A838AE289834FB7F894DE01139620E035
:100C20003EE051E2E32FF0E050935700E49120FFC3
:100C300003C0E295EF703F5FEF708E2F90E0EA30D7
:100C400010F0C79601C0C0968D939D932F5F2431FD
:100C500049F74FBF8091E800877F8093E8006AE200
:100C600070E0CE010196FDDB12C0AE014F5F5F4F19
:100C700060918B016CDB009709F43DC02091E80086
:100C8000277F2093E800BC0189819A8185DC8091CF
:100C9000E8008B778093E8002EC0203861F58091C2
:100CA000E800877F8093E800809182018093F100C3
:100CB0008091E8008E778093E8003EDD1CC0211112
:100CC0001AC0909189019230B0F48091E800877F3A
:100CD0008093E800909382012FDD80918201811141
:100CE00004C08091E30087FF02C084E001C081E07E
:100CF00080938601EDDA8091E80083FF0AC080913D
:100D0000E800877F8093E8008091EB008062809309
:100D1000EB00AA960FB6F894DEBF0FBECDBFDF91F1
:100D2000CF911F9108950895CF93809186018823D4
:100D3000A9F08091E9008F709091EC0090FF02C0C3
:100D400090E801C090E0C92FC82B1092E900809173
:100D5000E80083FDA3DECF70C093E900CF91089532
:100D6000CF93DF93EC01FC0170968BE0DF011D92C5
:100D70008A95E9F782E08C83898783E08E8761E03A
:100D8000CE0101969CDC882361F061E0CE010696DD
:100D900096DC882331F061E0CE010B96DF91CF9194
:100DA0008ECC80E0DF91CF910895DB012091860108
:100DB0002430D1F4FC014489558966897789452B13
:100DC000462B472B89F081818F708093E900FD01CC
:100DD00001900020E9F7BF01615071096A1B7B0B8C
:100DE00040E050E0CD01F6CA82E0089520918601EE
:100DF000243041F5FC014489558966897789452B62
:100E0000462B472BF9F081818F708093E900209168
:100E1000F3008091F20090E0922B892B89F0909161
:100E2000E8008091E8008E778093E80095FD08C087
:100E3000A4DC811108C08091E8008E778093E800DF
:100E400080E0089582E0089520918601243089F49D
:100E5000FC014489558966897789452B462B472BA8
:100E600041F021812F702093E9002091E80020FDBE
:100E7000BDCF089520918601243019F08FEF9FEFA8
:100E80000895FC014489558966897789452B462B4D
:100E9000472BA1F386818F708093E9008091E80051
:100EA00082FFECCF2091F3008091F20090E0922B32
:100EB000892B21F02091F10030E002C02FEF3FEFAD
:100EC0004091F3008091F20090E0942B892B29F45B
:100ED0008091E8008B778093E800C9010895089518
:100EE000CF93DF93EC018091E80083FFA6C0888157
:100EF00090E020918B0130918C012817390709F07F
:100F00009CC080918801813261F020F4803209F424
:100F10003EC093C0823209F46CC0833209F47DC0B4
:100F20008CC080918701813A09F087C08091E800E8
:100F3000877F8093E8008091E80080FFFCCF4C8998
:100F40005D896E897F894093F100BB27A72F962F7B
:100F5000852F8093F100CB01AA27BB278093F10056
:100F6000472F5527662777274093F100888D809378
:100F7000F100898D8093F1008A8D8093F10080913A
:100F8000E8008E778093E800DF91CF91D5CB8091F8
:100F90008701813209F051C08091E800877F8093FA
:100FA000E8008091E80082FD05C0809186018111F2
:100FB000F8CF43C03091F1002091F1009091F10001
:100FC0008091F1003C8B2D8B9E8B8F8B8091F1005B
:100FD000888F8091F100898F8091F1008A8F8091B4
:100FE000E8008B778093E800A7DBCE01DF91CF91FB
:100FF00076CF80918701813201F58091E800877F6B
:101000008093E80099DB8091890190918A01998B06
:10101000888BCE01DF91CF9162CF809187018132A1
:1010200061F48091E800877F8093E80085DB609120
:101030008901CE01DF91CF9152CFDF91CF910895F9
:101040006F927F928F929F92AF92BF92CF92DF92D8
:10105000EF92FF920F931F93CF93DF9300D01F92D5
:10106000CDB7DEB77C01ADB6BEB68091E80083FF98
:10107000FEC0F701808190E020918B0130918C01BE
:101080002817390709F0F3C080918801833009F4EB
:1010900095C030F4813071F0823009F4CCC0E7C0E3
:1010A0008A3009F4B0C08B3009F499C0893009F056
:1010B000DEC047C080918701813A09F0D8C08DB663
:1010C0009EB61A8219828091890110918A018B83C0
:1010D000F701408550E08DB79EB7841B950B0FB686
:1010E000F8949EBF0FBE8DBFEDB7FEB731966F016E
:1010F00060E070E0CF01C0D14FEF410F8E010F5F74
:101100001F4F9601BE016D5F7F4FC70109D9F701DF
:1011100086819781009721F0408550E0B601A3D1E8
:101120001092E9008091E800877F8093E800698150
:101130007A81C60196D98091E8008B778093E80088
:1011400037C080918701813209F091C08DB69EB67B
:1011500000918D0110918E017090890160908A013B
:101160008DB79EB7801B910B0FB6F8949EBF0FBE34
:101170008DBFEDB7FEB731966F018091E800877F94
:101180008093E800B801CF01C7D98091E8008E773D
:101190008093E80021E0711001C020E030E0021BE4
:1011A000130B2C0D3D1D4FEF460D672DC701CED8FB
:1011B0000FB6F8949EBE0FBE8DBE59C080918701B8
:1011C000813A09F054C08091E800877F8093E8005D
:1011D0008091E80080FFFCCFF701818540C08091BD
:1011E0008701813209F043C08091E800877F8093B6
:1011F000E800A2DA9091890181E0911101C080E0BC
:10120000F701818734C080918701813281F5809117
:10121000E800877F8093E8008FDA809189019091C0
:101220008A01882736E0969587953A95E1F7F70188
:10123000958784871CC080918701813AC1F4809191
:10124000E800877F8093E8008091E80080FFFCCF72
:10125000F7018485958596958795969587958093D2
:10126000F1008091E8008E778093E80065DA0FB690
:10127000F894BEBE0FBEADBE0F900F900F90DF91E1
:10128000CF911F910F91FF90EF90DF90CF90BF9083
:10129000AF909F908F907F906F900895FC0139964A
:1012A00027E0DF011D922A95E9F721E0FC01218763
:1012B00024EF31E03587248723E0248361E0019621
:1012C000FEC95F926F927F928F929F92AF92BF9270
:1012D000CF92DF92EF92FF920F931F93CF93DF9302
:1012E00000D01F92CDB7DEB77C01ADB6BEB68091FF
:1012F0008601843009F08CC08091E4009091E50073
:10130000F701228533852817390709F481C08181C7
:101310008F708093E9008091E80085FF79C08DB6D9
:101320009EB6408550E08DB79EB7841B950B0FB6D7
:10133000F8949EBF0FBE8DBFEDB7FEB731966F011B
:101340001B821A82198260E070E0CF0195D08E0175
:101350000F5F1F4F960140E0BE016D5F7F4FC701D9
:101360000E949001682EF70184859585892B41F0B4
:1013700021E086859785892B09F020E0722E01C037
:10138000712CF701068117810115110589F049813A
:101390005A81B801C6015AD055245394892B09F4B7
:1013A000512CF701408550E0B601C8015CD001C066
:1013B000512C29813A81232BF9F0611004C051107E
:1013C00002C070FE19C0F7018485958597878687CE
:1013D00081818F708093E9008B8181118093F1006E
:1013E00069817A8140E050E0C6010E94EA01809163
:1013F000E8008E778093E8008091E4009091E5000A
:10140000F701938782870FB6F8949EBE0FBE8DBEFC
:101410000FB6F894BEBE0FBEADBE0F900F900F90EA
:10142000DF91CF911F910F91FF90EF90DF90CF90C0
:10143000BF90AF909F908F907F906F905F90089536
:10144000EE0FFF1F0590F491E02D0994FB01DC01E4
:1014500004C08D910190801921F441505040C8F78B
:10146000881B990B0895FB01DC0102C001900D92CD
:1014700041505040D8F70895DC0101C06D934150B0
:0A1480005040E0F70895F894FFCF04
:10148A000281080000017F01030000000000000043
:10149A00008310000001041000000182080000010E
:1014AA0000000000000000000000004A6F79737419
:1014BA0069636B20507265737365640D0A004A6F25
:1014CA0079737469636B2052696768740D0A004AFC
:1014DA006F79737469636B204C6566740D0A004AF0
:1014EA006F79737469636B20446F776E0D0A004AD3
:0E14FA006F79737469636B2055700D0A0000E2
:00000001FF
