:1000000051C100006DC100006BC1000069C100005A
:1000100067C1000065C1000063C1000061C100004C
:100020005FC100005DC10000BAC6000059C10000F8
:1000300057C1000055C1000053C1000051C100006C
:100040004FC100004DC100004BC1000049C100007C
:1000500047C1000045C1000043C1000041C100008C
:100060003FC100003DC100003BC1000039C100009C
:1000700037C1000035C1000033C1000031C10000AC
:100080002FC100002DC100002BC1000029C10000BC
:1000900027C1000025C1000064583A25326420645D
:1000A000593A25326420427574746F6E3A25640D96
:1000B0000A001B5B33316D44657620456E756D20FB
:1000C0004572726F720D0A202D2D204572726F726B
:1000D00020436F64652025640D0A202D2D20537563
:1000E00062204572726F7220436F64652025640D33
:1000F0000A202D2D20496E205374617465202564DB
:100100000D0A1B5B33376D001B5B33316D486F731A
:1001100074204D6F6465204572726F720D0A202D38
:100120002D204572726F7220436F64652025640D27
:100130000A1B5B33376D004D6F75736520456E7517
:100140006D6572617465642E0D0A001B5B33316D41
:10015000436F6E74726F6C204572726F72202853F9
:1001600065742050726F746F636F6C292E0D0A20B6
:100170002D2D204572726F7220436F64653A2025E1
:10018000640D0A1B5B33376D001B5B33316D436FAE
:100190006E74726F6C204572726F72202853657492
:1001A00020436F6E66696775726174696F6E292E80
:1001B0000D0A202D2D204572726F7220436F6465E9
:1001C0003A2025640D0A1B5B33376D00202D2D204E
:1001D0004572726F7220436F64653A2025640D0A80
:1001E0001B5B33376D001B5B33316D496E76616C81
:1001F0006964204465766963652E0D0A001B5B33D4
:10020000316D436F6E74726F6C204572726F722025
:100210002847657420436F6E6669677572617469FB
:100220006F6E292E0D0A0047657474696E6720434E
:100230006F6E66696720446174612E0D0A001B5B56
:1002400033326D44657669636520556E61747461FF
:10025000636865642E0D0A1B5B33376D001B5B33CF
:10026000326D4465766963652041747461636865C5
:10027000642E0D0A1B5B33376D001B5B33366D4DEF
:100280006F7573652048494420486F737420446536
:100290006D6F2072756E6E696E672E0D0A1B5B3373
:1002A000376D000011241FBECFEFD0E2DEBFCDBFFF
:1002B00011E0A0E0B1E0E8E1F9E100E00BBF02C02D
:1002C00007900D92AA31B107D9F711E0AAE1B1E088
:1002D00001C01D92AC33B107E1F765D10C948A0CD3
:1002E0008FCE9BB19F70982B9BB9089584B7877F61
:1002F00084BF28E10FB6F89420936000109260004C
:100300000FBE90E080E80FB6F89480936100909360
:1003100061000FBE83E390E09093CD008093CC000A
:1003200086E08093CA001092C8002093C900539AB7
:100330005A9A8AB1806F8AB98BB18F708BB914D5F4
:1003400080E090E0D0C78DE592E00E94AF0980EA9E
:10035000C8CF8EE392E00E94AF0980E1C2CF1F9325
:1003600087E292E0FCD743D1182F8823F1F0813047
:1003700019F48DEF91E002C086EE91E0F0D700D045
:1003800000D0EDB7FEB731962CEC31E0ADB7BEB77B
:1003900012963C932E93119712831382C1D70F901C
:1003A0000F900F900F9080E940C081E04ED78823D6
:1003B00079F000D000D0EDB7FEB7319629E831E0F2
:1003C000ADB7BEB712963C932E9311978283E5CFBB
:1003D000AFE1B1E0E0E0F1E088E001900D92815002
:1003E000E1F71092A70080E090E030D68823C9F0B2
:1003F00000D000D0EDB7FEB731962BE431E0ADB7B9
:10040000BEB712963C932E9311978283138288D79E
:100410000F900F900F900F9080E963DF80E015D769
:1004200005C087E391E09BD780E65BDF1F910895CD
:10043000DF93CF930F92CDB7DEB789832DD400D051
:1004400000D0EDB7FEB7319628E031E0ADB7BEB7CA
:1004500012963C932E93119789818283138260D7E1
:100460000F900F900F900F9080E93BDFFFCF90919E
:1004700027012DB73EB7285030400FB6F8943EBF45
:100480000FBE2DBFEDB7FEB7319622EB30E0ADB712
:10049000BEB712963C932E93119782831382648386
:1004A0001582968317823CD72DB73EB7285F3F4F02
:1004B0000FB6F8943EBF0FBE2DBF80E912CFDF9379
:1004C000CF9300D00F92CDB7DEB7809127018B304C
:1004D00009F063C081E08093A7008091A9008F7B21
:1004E0008093A9008091A60080FD03C080E0F9DE22
:1004F0004FC08091A60085FF46C0CE01019663E003
:1005000070E040E050E0B9D28A8118161CF08823D0
:1005100021F002C080E101C080E29B81191614F431
:10052000806802C0911180649981911180EFD9DEB9
:100530008DB79EB708970FB6F8949EBF0FBE8DBFBC
:10054000EDB7FEB7319688E990E0ADB7BEB7129629
:100550009C938E9311978A81992787FD9095938319
:1005600082838B81992787FD9095958384838981E8
:1005700086831782D5D68DB79EB708960FB6F894A6
:100580009EBF0FBE8DBF8091A6008E778093A60080
:100590008091A90080648093A9000F900F900F9024
:1005A000CF91DF910895A2DE8AE792E0D8D680E16C
:1005B00098DE789484DF6ED6FDCFFC018181843093
:1005C00031F48581833019F48781823011F082E023
:1005D000089580E00895FC018181853021F0843008
:1005E00021F481E0089580E0089582E00895AF92BB
:1005F000BF92CF92DF92EF92FF920F931F93DF9300
:10060000CF93CDB7DEB7C450D2400FB6F894DEBF5B
:100610000FBECDBFAE014B5F5F4F5A8349838E0142
:100620000D5F1F4F81E0B80120E032E04BD48530F0
:10063000D9F1863051F0882351F4CC24DD24B02E3A
:10064000A12E8E010F5F1F4F04C083E030C081E0F8
:100650002EC0C114D10441F08B2D9A2DB8014BEE60
:1006600052E087D4882359F08B2D9A2DB8014DED97
:1006700052E07FD48823D1F4C980DA80EACFE980C0
:10068000FA80F701428147FFE4CFE114F10409F356
:100690002481358181E863E001E052D2F70186814F
:1006A0008093AD0080E003C082E001C084E0CC5FB5
:1006B000DD4F0FB6F894DEBF0FBECDBFCF91DF91F7
:1006C0001F910F91FF90EF90DF90CF90BF90AF9070
:1006D000089580919E0090E0817090702091A0001C
:1006E0002D7F2093A00020919E00226020939E00E9
:1006F00020919E0021FDFCCF20919E00216020933F
:100700009E0010921D012091A00030E020723070F8
:100710004091A0004F7D4093A00040919F004F7DED
:1007200040939F004AE050919F0055FF0BC04091BD
:100730009F004F7D40939F0040919F004D7F4093CD
:100740009F0008C0EFECF7E03197F1F700C0000020
:10075000415049F72115310529F02091A000206270
:100760002093A000009729F480919E008E7F8093B3
:100770009E008091A00082608093A0000895409127
:100780009E0050E0417050702091A00030E0207237
:1007900030709091A0009F7D9093A00090919F0059
:1007A0009F7D90939F0090919E00916090939E00FA
:1007B00026C090919F0095FF06C090919F009F7D5D
:1007C00090939F008150909127019130D9F09091A2
:1007D000A60094FF09C01092F5008091A6008F7EBC
:1007E0008093A60082E00FC09091A60091FF07C001
:1007F0008091A6008D7F8093A60083E004C08823AB
:10080000C1F601C081E04115510529F490919E0087
:100810009E7F90939E002115310529F09091A000B4
:1008200090629093A00008950F931F93DF93CF934E
:10083000CDB7DEB728970FB6F894DEBF0FBECDBF99
:1008400080912701853009F499C0863068F48230A0
:10085000C1F1833018F48823A1F004C18330D9F1A9
:10086000843009F0FFC062C0873009F49EC0873031
:1008700008F48FC0883009F4B8C0893009F0F2C09C
:10088000D9C000911B0110911C010115110509F43B
:10089000E9C081E074DF682F882331F080911A016C
:1008A0008093270181E0D2C00150104010931C01B9
:1008B00000931B010115110509F0D4C080911A01A4
:1008C00007C088EE93E090931C0180931B0183E0A6
:1008D00080932701C7C080911B0190911C019C014E
:1008E0002150304030931C0120931B01009739F0B8
:1008F0008FEC97E00197F1F700C00000B3C0779844
:100900008091D80080618093D8008091DD008B7F3A
:100910008093DD008091D70080618093D700809123
:10092000DD0082608093DD0084E0D2CF80919F0063
:1009300080FF98C080919F008E7F80939F00809160
:100940009F008D7F80939F008091DF008D7F80933B
:10095000DF008091DE0082608093DE0080919E0047
:10096000816080939E0053D11092270184E690E02D
:1009700090931C0180931B0185E059C0AADE109260
:10098000270188EC90E090931C0180931B0186E086
:100990004EC080E060E040E020E430E001E0D0D0F4
:1009A000882309F44FC087E093CFAFE1B1E0E0E1E5
:1009B000F1E088E001900D928150E1F71092A700DC
:1009C000CE01019643D3682F882309F03EC0888565
:1009D000809318017EDE1092270188EC90E09093BE
:1009E0001C0180931B0188E022C02091180180E047
:1009F00060E040E030E001E0A3D0882319F1AFE1EE
:100A0000B1E0E8E0F1E088E001900D928150E1F77B
:100A100080E090E01BD3682F8823B9F4109227015F
:100A200084E690E090931C0180931B0189E0809301
:100A30001A0118C081E08093A1008AE08093270109
:100A40008EDC10C060E084E001C083E0909127015B
:100A5000913041F00CDD8091DD0081608093DD00FC
:100A600078DC32D128960FB6F894DEBF0FBECDBF2A
:100A7000CF91DF911F910F9108958F929F92BF9216
:100A8000CF92DF92EF92FF920F931F93DF93CF935A
:100A90000F92CDB7DEB7E82E4B018A018091AA00F4
:100AA0008F7C80618093AA009983C7D0B82E9981EA
:100AB0008823C1F5F92E0115110539F0F8012081BF
:100AC0003181821A930AE20EF31ECC24DD2425C064
:100AD0008091A60085FD16C08091A6008E77809338
:100AE000A6000115110551F0F801808191818C0D4E
:100AF0009D1D9183808344E0B42E14C09ED0882332
:100B000061F00FC08091AF00F70181937F010894DD
:100B1000810891080894C11CD11C81149104C1F66C
:100B200001C0B82E8B2D0F90CF91DF911F910F91A7
:100B3000FF90EF90DF90CF90BF909F908F9008959F
:100B40000F93582F5F7087FF02C080E101C080E2E1
:100B5000573008F059C0662309F480E04F70629561
:100B6000660F660F607C642B682B452F0260842F14
:100B70008F708093A7004517A1F488E090E070E0A3
:100B800003C07F5F880F991F8217930710F4753099
:100B9000C1F7872F8295807F802BF62F70E0E0E0F1
:100BA00008C0F091AA008091AB00E091AD00709177
:100BB000AE0081FF20C09091A9009E7F9093A90074
:100BC0009091AB009D7F9093AB009091A9009160B4
:100BD0009093A900F093AA008093AB00E093AD003E
:100BE0007093AE008091A90080628093A9008091EB
:100BF000AC0087FF09C04F5F473009F0B8CF5F7086
:100C00005093A70081E001C080E00F9108951092F9
:100C1000F80080E0982F9F709093A7001092AE008C
:100C20001092A6001092AB009091A9009E7F909325
:100C3000A9008F5F873071F708958091A20090918D
:100C4000A30044E62091AA002073203129F42091CA
:100C5000A60020FF05C018C02091A60022FD14C0E8
:100C60002091A60021FD12C020912701213081F0A2
:100C70002091A2003091A3002817390719F34423CB
:100C800049F04150C901DECF80E0089581E0089528
:100C900082E0089583E0089575D07CD0E0EEF0E026
:100CA000808181608083E8EDF0E080818F778083B0
:100CB00019BCA7EDB0E08C918E7F8C9380818F7EE4
:100CC000808310921E0108955DD064D08091D80079
:100CD0008F778093D8008091D80080688093D80067
:100CE0008091D8008F7D8093D8008091D7008F7736
:100CF0008093D7008CE089BD8EE089BD09B400FEE9
:100D0000FDCF81E08093270110921D0180E4809344
:100D100018018091D80080648093D8008091DD0014
:100D200081608093DD008091DD0084608093DD0030
:100D30008091D7008F7E8093D7006F9A779A8091A9
:100D4000DE0081608093DE008091DE00846080930D
:100D5000DE008091E0008E7F8093E0008091D800DB
:100D600080618093D8000895E8EDF0E080818F7E67
:100D70008083E7EDF0E080818160808381E0809373
:100D80001E01A2CFE8EDF0E080818C7F808310927D
:100D9000A00008951092DA0010929F0008951F920B
:100DA0000F920FB60F920BB60F9211242F933F9311
:100DB0004F935F936F937F938F939F93AF93BF9363
:100DC000EF93FF9380919F0085FF0AC08091A00060
:100DD00085FF06C080919F008F7D80939F000CD17E
:100DE00080919F0081FF15C08091A00081FF11C0FC
:100DF00080919F008D7F80939F0080919F008E7FC8
:100E000080939F008091A0008D7F8093A000A1DA45
:100E10005BDF8091DF0081FF15C08091DE0081FFE4
:100E200011C08091DF008D7F8093DF0077988091E3
:100E3000DD0081608093DD0080E0FADA8ADA81E00B
:100E4000809327018091DF0080FF17C08091DE0032
:100E500080FF13C08091DF008E7F8093DF00809140
:100E6000DE008E7F8093DE006EDA8091A0008260CB
:100E70008093A00082E0809327018091DF0082FFB1
:100E80000EC08091DE0082FF0AC08091DF008B7F60
:100E90008093DF0082E060E0EADA5BDA15DFFF9141
:100EA000EF91BF91AF919F918F917F916F915F91E2
:100EB0004F913F912F910F900BBE0F900FBE0F904F
:100EC0001F901895CF92DF92EF92FF920F931F938E
:100ED000DF93CF93CDB7DEB729970FB6F894DEBF77
:100EE0000FBECDBF6B018A01790190E890931F017D
:100EF00096E09093200190E00197926090932201F8
:100F000080932101109224011092230189E090E046
:100F100090932601809325011092A700CE0101969F
:100F200095D08823B9F48B819C81F60191838083CD
:100F3000E816F90670F09093260180932501C80108
:100F400085D0882339F4F8019181923019F086E038
:100F500001C085E029960FB6F894DEBF0FBECDBF65
:100F6000CF91DF911F910F91FF90EF90DF90CF9085
:100F70000895AF92BF92CF92DF92EF92FF920F93BC
:100F80001F93CF93DF938C01EB016A0123C0E881AB
:100F9000F9815F01208130E0C7012E153F0508F47B
:100FA000C901E80FF91FF983E883F8012081318135
:100FB000281B390B3183208388819981F60109959B
:100FC000823041F0813069F4A882B982F801F1825F
:100FD000E08207C0F801E080F180E114F104B9F685
:100FE00082E0DF91CF911F910F91FF90EF90DF9002
:100FF000CF90BF90AF90089508951F93CF93DF9344
:10100000182FC8EED3E007C081E0B9DB8823D1F404
:101010002097B9F02197112329F48091A60083FF2E
:10102000F3CF0DC0113029F48091A60080FFECCFE2
:1010300006C0123049F78091A60082FFE5CF80E01C
:1010400001C084E0DF91CF911F910895EF92FF924C
:101050000F931F93CF93DF938C01E0909E00FF24AA
:1010600081E0E822FF24C0912501D09126018091E2
:101070009E00816080939E0081E081DB882309F0DF
:10108000CBC08091AA008F7C8093AA001092F500BB
:101090008091A6008F7E8093A6008091A9008F7B0F
:1010A0008093A900EFE1F1E081918093AF0081E0AE
:1010B000E732F807C9F78091A60087778093A600EA
:1010C00080E09BDF882309F0A7C08091A90080649D
:1010D0008093A90081E053DB882309F09DC08091B3
:1010E0001F0187FF4FC08091AA008F7C8061809391
:1010F000AA000115110561F52DC08091A9008F7B13
:101100008093A90081E079DF882309F085C0809170
:10111000F6009091F700009749F4C0E0D0E006C0D7
:101120008091AF00F80181938F0121978091F600A3
:101130009091F700009711F0209791F78091A90006
:1011400080648093A9008091A6008E778093A6008A
:10115000209799F68091AA008F7C80628093AA00E4
:101160008091A9008F7B8093A90082E046DF8823CD
:1011700009F052C08091A6008B778093A60082E090
:101180003CDF4AC00115110599F18091AA008F7CBE
:1011900080628093AA008091A9008F7B8093A90030
:1011A0001CC082E02ADF8823B9F5F80106C08191CE
:1011B0008F018093AF00219759F08F012091F600A5
:1011C0003091F7008091180190E02817390778F3E3
:1011D0008091A6008B778093A600209711F782E07C
:1011E0000CDF8823C9F48091A90080648093A90052
:1011F0008091AA008F7C80618093AA008091A900D1
:101200008F7B8093A90081E0F8DE882329F49091F8
:10121000A6009E779093A6009091A9009064909369
:10122000A900E114F10429F490919E009E7F90930F
:101230009E0091E09093A8001092A800DF91CF91BA
:101240001F910F91FF90EF9008951F93182F109208
:101250001F0189E080932001109321011092220147
:101260001092240110922301109226011092250160
:101270001092A70080E090E0E9DE882349F4109303
:101280001D01112311F09BE001C09AE0909327010A
:101290001F9108951F931091A7001F708091AA00BD
:1012A0001092A700C1DA1093A7001F9108959091A2
:1012B000C80095FFFCCF8093CE0080E090E00895B9
:1012C0008091C80087FF08C08091C80087FF07C0D1
:1012D0002091CE0030E005C02EEF3FEF02C02FEF8F
:1012E0003FEFC9010895FC01009751F4E8E2F1E0F5
:1012F000F0933701E0933601F0933901E093380120
:101300008EE0DF011D928A95E9F783E0838387E50C
:1013100099E09187808780E699E093878287089596
:10132000DF93CF93CDB7DEB7FE0135966191719112
:101330008091380190913901DC0113962C9113971B
:10134000286013962C93AF0142D0E0913801F091C0
:1013500039012381277F2383CF91DF910895EF9275
:10136000FF920F931F93CF93DF938C01E09138018D
:10137000F0913901838181FF20C0C0E0D0E00CC032
:10138000DB011896ED91FC9119970995009711F0E2
:10139000CFEFDFEF0F5F1F4FF801849160913801AD
:1013A00070913901882361F7DB011896ED91FC916A
:1013B00019978AE00995009711F0CFEFDFEFCE0182
:1013C000DF91CF911F910F91FF90EF9008952F9291
:1013D0003F924F925F926F927F928F929F92AF92C5
:1013E000BF92CF92DF92EF92FF920F931F93DF9302
:1013F000CF93CDB7DEB72C970FB6F894DEBF0FBEF4
:10140000CDBF6C011B018A01FC011782168283810A
:1014100081FFC4C12E010894411C511CF601938127
:10142000F10193FD859193FF81911F01882309F4B8
:10143000B1C1853239F493FD859193FF81911F01EC
:10144000853221F490E0B601DBD1E8CFEE24FF2411
:1014500020E02032B0F48B3269F08C3228F48032F4
:1014600051F0833271F40BC08D3239F0803349F47E
:1014700021602CC02260246029C0286027C0206120
:1014800025C027FD2CC0382F30533A3098F426FF62
:1014900008C08E2D880FE82EEE0CEE0CE80EE30E41
:1014A00015C08F2D880FF82EFF0CFF0CF80EF30ED1
:1014B00020620CC08E3221F426FD6CC1206406C06F
:1014C0008C3611F4206802C0883649F4F10193FD8E
:1014D000859193FF81911F01882309F0BACF982F3E
:1014E0009554933018F09052933028F40C5F1F4FAE
:1014F000FFE3F9830DC0833631F0833771F0833514
:1015000009F05CC021C0F801808189830E5F1F4F04
:10151000420171E0A72EB12C15C062E0662E712C3D
:10152000600E711EF8018080918026FF03C06E2D31
:1015300070E002C06FEF7FEFC4012C8756D15C01D1
:1015400083012C852F7716C052E0652E712C600E1A
:10155000711EF8018080918026FF03C06E2D70E01F
:1015600002C06FEF7FEFC4012C8734D15C012C8562
:101570002068830123FD1EC007C080E290E0B60111
:101580002C873ED1FA942C858F2D90E0A816B906B1
:10159000A0F310C0F40127FD859127FF81914F0131
:1015A00090E0B6012C872CD12C85F110FA94089488
:1015B000A108B108A114B10469F7E9C0843611F09B
:1015C000893641F527FF08C0F80160817181828169
:1015D00093810C5F1F4F09C0F801608171818827DA
:1015E00077FD8095982F0E5F1F4F4FE6B42EB222E5
:1015F00097FF09C090958095709561957F4F8F4FAB
:101600009F4FF0E8BF2AA2012AE030E025D1782ED2
:10161000741844C0853731F43FEEB32EB2222AE06D
:1016200030E025C099EFB92EB2228F36C1F0803755
:1016300020F4883509F0AEC00DC0803721F088371E
:1016400009F0A8C002C020E1B22AB4FE0BC084E0B9
:10165000B82A08C0B4FE09C0E6E0BE2A06C028E0E9
:1016600030E005C020E130E002C020E132E0B7FE0A
:1016700008C0F80160817181828193810C5F1F4FE6
:1016800007C0F8016081718180E090E00E5F1F4F1C
:10169000A201E2D0782E7418FFE7BF22B6FE0BC07D
:1016A0002EEFB2227E1438F4B4FE07C0B2FC05C09F
:1016B0008FEEB82202C0A72C01C0AE2C8B2D90E07B
:1016C000B4FE0DC0FE01E70DF11D2081203319F499
:1016D000E9EEBE2209C0A394B2FE06C004C086781B
:1016E0009070009709F0A3948B2C9924B3FC13C03D
:1016F000B0FE0EC0AF1428F4E72CEF0CEA18AF2CA4
:1017000007C0E72C05C080E290E0B60179D0A39431
:10171000AF14C8F304C0AF1410F4FA1801C0FF24CA
:1017200084FE0EC080E390E0B6016AD082FE1DC048
:1017300081FE03C088E590E010C088E790E00DC00E
:10174000C40186789070009781F081FC02C080E22D
:1017500001C08BE2B7FC8DE290E0B60151D005C02C
:1017600080E390E0B6014CD0EA947E14C8F37A94FA
:10177000F201E70DF11D808190E0B60141D07720A4
:10178000B1F705C080E290E0B6013AD0FA94FF20AC
:10179000C9F744CEF6012681378102C02FEF3FEF13
:1017A000C9012C960FB6F894DEBF0FBECDBFCF9106
:1017B000DF911F910F91FF90EF90DF90CF90BF903E
:1017C000AF909F908F907F906F905F904F903F90E1
:1017D0002F900895FC010590615070400110D8F7DA
:1017E000809590958E0F9F1F0895FC016150704069
:1017F00001900110D8F7809590958E0F9F1F089546
:101800000F931F93CF93DF938C01EB018B8181FFAB
:101810001BC082FF0DC02E813F818C819D812817C6
:10182000390764F4E881F9810193F983E88306C0FC
:10183000E885F985802F0995009731F48E819F8185
:1018400001969F838E8302C00FEF1FEFC801DF91C7
:10185000CF911F910F910895FA01AA27283051F1D5
:10186000203181F1E8946F936E7F6E5F7F4F8F4FD1
:101870009F4FAF4FB1E03ED0B4E03CD0670F781F30
:10188000891F9A1FA11D680F791F8A1F911DA11D15
:101890006A0F711D811D911DA11D20D009F468944E
:1018A0003F912AE0269F11243019305D3193DEF6F6
:1018B000CF010895462F4770405D4193B3E00FD0AC
:1018C000C9F7F6CF462F4F70405D4A3318F0495D97
:1018D00031FD4052419302D0A9F7EACFB4E0A6957A
:1018E0009795879577956795BA95C9F7009761059C
:1018F000710508959B01AC010A2E069457954795F2
:1019000037952795BA95C9F7620F731F841F951FE6
:08191000A01D0895F894FFCF1B
:10191800210B00000000000000050100000000008D
:0A19280080060001000008004000E6
:00000001FF
