:10000000CDC00000E9C00000E7C00000E5C000006E
:10001000E3C00000E1C00000DFC00000DDC0000060
:10002000DBC00000D9C0000062C40000D5C00000E1
:10003000D3C00000D1C00000CFC00000CDC0000080
:10004000CBC00000C9C00000C7C00000C5C0000090
:10005000C3C00000C1C00000BFC00000BDC00000A0
:10006000BBC00000B9C00000B7C00000B5C00000B0
:10007000B3C00000B1C00000AFC00000ADC00000C0
:10008000ABC00000A9C00000A7C00000A5C00000D0
:10009000A3C00000A1C0000005010902A101850163
:1000A0000901A1000509190129031500250195037E
:1000B000750181029501750581010501093009313C
:1000C00015FF250135FF4501950275088106C0C061
:1000D00005010906A1018502050719E029E71500B8
:1000E00025017501950881029501750881010508B2
:1000F0001901290595057501910295017503910175
:100100001500256505071900296595067508810004
:10011000C01201100100000008EB0366200100017D
:1001200002000109022200010100C032090400009E
:1001300001030000000921110100012279000705D7
:1001400081030800050403090418034400650061E5
:10015000006E002000430061006D006500720061C8
:1001600000000036034C0055004600410020004DC1
:100170000075006C007400690020004800490044CC
:100180000020005200650070006F007200740020B3
:1001900000440065006D006F0000000011241FBEC8
:1001A000CFEFD0E2DEBFCDBF11E0A0E0B1E0E0E0F4
:1001B000F2E100E00BBF02C007900D92A031B10741
:1001C000D9F711E0A0E1B1E001C01D92A532B1075D
:1001D000E1F72FD00C94FE0813CF9BB19F70982BA2
:1001E0009BB9089584B7877F84BF88E10FB6F894E0
:1001F00080936000109260000FBE90E080E80FB620
:10020000F89480936100909361000FBE84B18F7168
:1002100084B98DB18F7C8DB985B1806E85B98EB171
:1002200080638EB98AB1806F8AB98BB18F708BB9B8
:1002300043C3D8DF80E1D1DF789480E091E0F5D648
:1002400082D5FBCF80EAC9CF80E1C7CF80E091E0C3
:10025000D3D69091E20094609093E20080FF02C0B8
:1002600080E601C080E9B9CF80E091E088C5809147
:100270000E0190910F01009729F0019790930F01C3
:1002800080930E0108950F931F93CF93DF93FB018B
:10029000E80143B18CB1809590E0807390709595A2
:1002A00087954095407E482B8CB182FF25C0D901AF
:1002B00082E08C9347FF02C084E003C044FF04C087
:1002C00085E012968C93129746FF02C086E003C029
:1002D00043FF04C087E012968C93129745FF04C039
:1002E00088E012968C93129782E0808388E090E0F9
:1002F0009983888380E021C0D90147FF02C08FEF36
:1003000003C044FF04C081E012968C93129746FF0D
:1003100002C08FEF03C043FF04C081E011968C93AD
:10032000119745FF03C08C9181608C9381E080839D
:1003300083E090E09983888381E0DF91CF911F91E2
:100340000F910895F901908190FF02C080E101C0F2
:1003500080E091FD806892FD80643FCF933089F00A
:10036000943028F4913049F1923061F505C0913212
:10037000D1F0923239F51CC022E230E0E3E2F1E044
:1003800025C0813041F0813018F08230D9F406C0A8
:10039000E5E4F1E005C0E9E4F1E002C0E3E6F1E004
:1003A000249130E013C029E030E0E5E3F1E00EC035
:1003B00029E730E0E8E9F0E009C022E130E0E1E1DE
:1003C000F1E004C020E030E0E0E0F0E0DA01119676
:1003D000FC93EE93C90108958F929F92BF92CF92A2
:1003E000DF92EF92FF920F931F93DF93CF930F92C1
:1003F000CDB7DEB7E82E4B018A019983E4D1B82E40
:1004000099818823C9F5F92E0115110539F0F801F4
:1004100020813181821A930AE20EF31ECC24DD245E
:1004200026C08091E80085FD17C08091E8008E7796
:100430008093E80088D40115110551F0F8018081FE
:1004400091818C0D9D1D9183808325E0B22E14C077
:10045000BAD1882361F00FC0F70181917F018093A9
:10046000F1000894810891080894C11CD11C8114E2
:100470009104B9F601C0B82E8B2D0F90CF91DF916A
:100480001F910F91FF90EF90DF90CF90BF909F90C2
:100490008F900895282F392FF90180912301909191
:1004A00024018617970718F4BC0120E037C06115B6
:1004B0007105D9F78091E8008E778093E800F5CF39
:1004C00080911C01882309F43FC08530C9F18091D7
:1004D000E80083FD37C08091E80082FD2BC0809149
:1004E000E80080FF1BC08091F2009091F30006C0ED
:1004F00021912093F10061507040019661157105C2
:1005000019F088309105A0F321E08830910509F0B9
:1005100020E08091E8008E778093E80061157105F6
:1005200079F6222369F606C080911C01882361F0C8
:10053000853061F08091E80082FFF6CF80E0089579
:1005400083E0089581E0089582E0089583E00895AE
:100550006115710531F520C020911C012223A9F1FC
:10056000253079F12091E80023FD2DC02091E8008D
:1005700022FFF2CFE82FF92F07C08091F10081937D
:10058000CF016150704041F0CF012091F2003091D5
:10059000F3002115310589F72091E8002B7720938E
:1005A000E80061157105C1F606C080911C01882321
:1005B00061F0853061F08091E80080FFF6CF80E047
:1005C000089583E0089581E0089582E0089583E02E
:1005D0000895E82FF92F8091230190912401861727
:1005E000970718F4BC0120E038C061157105D9F7F0
:1005F0008091E8008E778093E800F5CF80911C0110
:10060000882309F440C08530D1F18091E80083FD52
:1006100038C08091E80082FD2CC08091E80080FF06
:100620001CC08091F2009091F30007C024912093A8
:10063000F10031966150704001966115710519F015
:100640008830910598F321E08830910509F020E089
:100650008091E8008E778093E8006115710571F64E
:10066000222361F606C080911C01882361F0853049
:1006700061F08091E80082FFF6CF80E0089583E08A
:10068000089581E0089582E0089583E00895982F09
:100690002CC0292F2F702093E900981739F0709102
:1006A000EC002091ED005091F00003C0242F762F34
:1006B00050E021FF19C03091EB003E7F3093EB00FA
:1006C0003091ED003D7F3093ED003091EB003160D3
:1006D0003093EB007093EC002093ED005093F0000A
:1006E0002091EE0027FF08C09F5F973090F28F7037
:1006F0008093E90081E0089580E00895EF92FF92F1
:100700000F931F93CF93DF93162FE82EE7017E01FF
:10071000F92EE70100E02AC09881992329F16B8125
:10072000E981FA812C81892F8F70873018F56295C5
:10073000660F660F607C991F9927991F692B2230DD
:1007400010F096E001C092E028E030E040E003C005
:100750004F5F220F331F2E173F07D0F34295407F84
:10076000492B95DF882331F00F5F25960117A0F202
:1007700081E001C080E0DF91CF911F910F91FF9048
:10078000EF90089580911D0187FF13C004C08091F0
:100790001C018823B9F08091E80082FFF8CF809196
:1007A000E8008B778093E800089580911C018823EE
:1007B00049F08091E80080FFF8CF8091E8008E77C3
:1007C0008093E80008958091E4009091E50044E66C
:1007D0002091EC0020FF26C02091E80020FD16C0EB
:1007E00020911C012223A1F02530A1F02091EB00E3
:1007F00025FD12C02091E4003091E500281739074B
:1008000039F3442359F04150C901E2CF80E0089503
:1008100082E0089583E0089581E0089584E00895DA
:1008200080E008952091E80022FFDACFF9CF0F93FE
:100830001F93CF93DF934ED055D0C8EDD0E0888181
:100840008F77888388818068888388818F7D88837B
:10085000E7EDF0E080818068808319BC10921C0174
:100860001092180110921A011092190100EE10E076
:10087000F80180818B7F808388818160888380E01C
:1008800060E042E004DFE1EEF0E080818E7F808373
:10089000E2EEF0E0808181608083808188608083E7
:1008A000F80180818E7F8083888180618883DF91D9
:1008B000CF911F910F910895E8EDF0E080818F7E38
:1008C0008083E7EDF0E080818160808381E0809328
:1008D0001B01ADCFE8EDF0E080818C7F808310922A
:1008E000E20008951092DA001092E10008951F923C
:1008F0000F920FB60F920BB60F9211242F933F93C6
:100900004F935F936F937F938F939F93AF93BF9317
:10091000EF93FF938091E10082FF0AC08091E20093
:1009200082FF06C08091E1008B7F8093E1009FDC15
:100930008091DA0080FF1DC08091D80080FF19C02F
:100940008091DA008E7F8093DA008091D90080FF59
:100950000CC08CE089BD8EE089BD09B400FEFDCFDE
:1009600081E080931C016EDC04C019BC10921C0154
:100970006BDC8091E10080FF18C08091E20080FF75
:1009800014C08091E2008E7F8093E2008091E200AB
:1009900080618093E2008091D80080628093D800CB
:1009A00019BC85E080931C01CDD18091E10084FFCA
:1009B0002DC08091E20084FF29C08CE089BD8EE0CB
:1009C00089BD09B400FEFDCF8091D8008F7D809352
:1009D000D8008091E1008F7E8093E1008091E20059
:1009E0008F7E8093E2008091E20081608093E2003C
:1009F00080911801882321F48091E30087FF02C0D1
:100A000084E001C081E080931C019CD18091E100D1
:100A100083FF22C08091E20083FF1EC08091E1002D
:100A2000877F8093E10082E080931C01109218017F
:100A30008091E1008E7F8093E1008091E2008E7FC3
:100A40008093E2008091E20080618093E20080E088
:100A500060E042E01CDE76D1FF91EF91BF91AF9153
:100A60009F918F917F916F915F914F913F912F91C6
:100A70000F900BBE0F900FBE0F901F9018951F93F5
:100A8000DF93CF93CDB7DEB7AC970FB6F894DEBF48
:100A90000FBECDBFEDE1F1E08091F100819321E047
:100AA000E532F207C9F7E0DB8091E80083FF32C14D
:100AB00080911D0120911E01253009F484C026304B
:100AC00040F42130A1F1213070F0233009F022C12F
:100AD0002EC0283009F4F0C0293009F4FFC02630B8
:100AE00009F018C193C0803821F0823809F012C192
:100AF00008C08091190190911A01992371F08260C8
:100B00000CC0809121018F708093E9009091EB00DF
:100B100081E095FF80E01092E9009091E800977FD6
:100B20009093E8008093F1001092F100D0C08823E8
:100B300019F0823009F0EEC090E08F71907000974C
:100B400029F08230910509F0E5C00BC080911F01AA
:100B5000813009F0DFC0233009F080E080931A0172
:100B60002CC080911F01882341F5209121012F7015
:100B700009F4D0C02093E9008091EB0080FF1DC0F4
:100B800080911E01833021F48091EB00806213C0BC
:100B90008091EB0080618093EB0081E090E002C0E7
:100BA000880F991F2A95E2F78093EA001092EA00D5
:100BB0008091EB0088608093EB001092E9008091B7
:100BC000E800877F87C0882309F0A4C010911F0127
:100BD0001F778091E3008078812B8093E3008091E0
:100BE000E800877F8093E800CDDD8091E80080FFFA
:100BF000FCCF8091E30080688093E300112311F023
:100C000083E001C082E080931C0184C08058823060
:100C100008F080C080911F019091200123E08C3D5D
:100C2000920791F583E08C838AE28B835FB7F89417
:100C3000DE01159680E090E04EE061E2E42FF0E006
:100C400060935700E49180FF03C0E295EF704F5F1F
:100C5000EF702E2F30E0EA3018F0295C3F4F02C0D1
:100C6000205D3F4F2D933D9301968431910531F7DF
:100C70005FBF8091E800877F8093E800CE010396F4
:100C80006AE270E007DC12C060912101AE014F5FA3
:100C90005F4F64DBBC01009709F43CC08091E80021
:100CA000877F8093E80089819A8193DC8091E800B6
:100CB0008B778093E8002EC0803861F58091E80042
:100CC000877F8093E800809118018093F1008091E4
:100CD000E8008E778093E80055DD1CC08823D1F4AE
:100CE00090911F019230B0F48091E800877F80934B
:100CF000E8009093180146DD80911801882321F4C3
:100D00008091E30087FF02C084E001C081E080930E
:100D10001C019CDA8091E80083FF0AC08091E80002
:100D2000877F8093E8008091EB0080628093EB00E6
:100D3000AC960FB6F894DEBF0FBECDBFCF91DF915A
:100D40001F91089508951F9380911C018823A9F095
:100D50008091E9008F709091EC0090FF02C010E844
:100D600001C010E0182B1092E9008091E80083FF89
:100D700001C085DE1F701093E9001F9108956F92E6
:100D80007F928F929F92AF92BF92CF92DF92EF921B
:100D9000FF920F931F93DF93CF9300D00F92CDB7A5
:100DA000DEB77C016DB67EB68091E80083FF0DC191
:100DB000F701808190E020912101309122012817D4
:100DC000390709F002C180911E01833009F4A4C0E3
:100DD000843030F4813071F0823009F0F6C0D9C02F
:100DE0008A3009F4BEC08B3009F4A7C0893009F0FD
:100DF000ECC04CC080911D01813A09F0E6C0CDB62F
:100E0000DEB69DB68D2C1B821A8280911F01009147
:100E100020018983F7014085C41AD1080FB6F894E0
:100E2000DEBE0FBECDBE0894C11CD11CBC2CAD2CA7
:100E3000C60160E070E050E0DAD1402F4150C701B8
:100E4000BE016F5F7F4F96018E010E5F1F4F1BDA51
:100E5000F701268137812115310529F04085C90127
:100E6000B60150E0BBD11092E9008091E800877F85
:100E70008093E8006A817B818B2D9A2D0BDB80911A
:100E8000E8008B778093E80094013EC080911D01BB
:100E9000813209F09AC0CDB6DEB6BDB69D2C009168
:100EA000230110912401A0901F01809020018DB793
:100EB0009EB7801B910B0FB6F8949EBF0FBE8DBFDF
:100EC000CDB6DEB60894C11CD11C8091E800877FA6
:100ED0008093E800C601B8013BDB8091E8008E7783
:100EE0008093E80081E090E0AA2011F480E090E097
:100EF000482D41509601280F391F081B190BC701B7
:100F00006A2D20DA3B2D292D832F922F0FB6F894CE
:100F10009EBF0FBE8DBF59C080911D01813A09F05F
:100F200054C08091E800877F8093E8008091E800BA
:100F300080FFFCCFF701818540C080911D01813287
:100F400009F043C08091E800877F8093E8001ADCB5
:100F500090911F0181E0992309F480E0F7018187D6
:100F600034C080911D01813281F58091E800877F36
:100F70008093E80007DC80911F0190912001807030
:100F800036E0969587953A95E1F7F701958784873E
:100F90001CC080911D01813AC1F48091E800877FD7
:100FA0008093E8008091E80080FFFCCFF701848502
:100FB000958596958795969587958093F100809174
:100FC000E8008E778093E800DDDB0FB6F8947EBEF4
:100FD0000FBE6DBE0F900F900F90CF91DF911F91BC
:100FE0000F91FF90EF90DF90CF90BF90AF909F90C8
:100FF0008F907F906F900895CF93DF93FC010996B7
:10100000DC0187E0ED0119928A95E9F781E081879B
:1010100084EF91E09587848783E08483CF010196F4
:1010200061E06CDBDF91CF9108955F926F927F92C8
:101030008F929F92AF92BF92CF92DF92EF92FF92E8
:101040000F931F93DF93CF9300D000D0CDB7DEB7BF
:101050007C016DB67EB680911C01843009F098C089
:101060008091E4009091E500F701228533852817EF
:10107000390709F48DC081818F708093E9008091D8
:10108000E80085FF85C08DB6572C4085CDB6DEB60D
:10109000C41AD1080FB6F894DEBE0FBECDBE0DB790
:1010A0001EB70F5F1F4FB02EA12E19821B821A820E
:1010B000C80160E070E050E09AD0C701BE016F5FE8
:1010C0007F4F40E098018E010E5F1F4FDCD8982EB5
:1010D000F70184859585009759F081E090E0268599
:1010E00037852115310511F080E090E06C0102C0D8
:1010F000CC24DD24F7010681178101151105A1F02B
:101100004A815B818B2D9A2DB8015BD021E000973D
:1011100009F420E0F7014085C8016B2D7A2D50E0DD
:101120002C835CD02C8101C020E08A819B810097B8
:1011300009F1992029F4222319F4C114D104D1F022
:10114000F701848595859787868781818F70809345
:10115000E9008981882311F08093F1006A817B8105
:101160008B2D9A2D40E050E037D98091E8008E77A2
:101170008093E8008091E4009091E500F701938767
:101180008287882D952D0FB6F8949EBF0FBE8DBF18
:101190000FB6F8947EBE0FBE6DBE0F900F900F90ED
:1011A0000F90CF91DF911F910F91FF90EF90DF9003
:1011B000CF90BF90AF909F908F907F906F905F90F7
:1011C0000895FB01DC0104C08D910190801921F488
:1011D00041505040C8F7881B990B0895FB01DC0172
:1011E00002C001900D9241505040D8F70895DC01A3
:1011F00001C06D9341505040E0F70895F894FFCF3F
:10120000008108000001100108000000000000003B
:00000001FF
