:100000002EC100004AC1000048C1000046C10000E6
:1000100044C1000042C1000040C100003EC10000D8
:100020003CC100003AC100001EC6000036C10000FD
:1000300034C1000032C1000030C100002EC10000F8
:100040002CC100002AC1000028C1000026C1000008
:1000500024C1000028C1000020C100001EC1000012
:100060001CC100001AC1000018C1000016C1000028
:1000700014C1000012C1000010C100000EC1000038
:100080000CC100000AC1000008C1000006C1000048
:1000900004C1000002C100001B5B33316D44657672
:1000A00020456E756D204572726F720D0A202D2DE0
:1000B000204572726F7220436F64652025640D0ABB
:1000C000202D2D20537562204572726F7220436F70
:1000D00064652025640D0A202D2D20496E2053745F
:1000E0006174652025640D0A1B5B33376D001B5B53
:1000F00033316D486F7374204D6F646520457272A3
:100100006F720D0A202D2D204572726F7220436F81
:1001100064652025640D0A1B5B33376D00417564EF
:10012000696F2044657669636520456E756D6572FB
:10013000617465642E0D0A004572726F72205365FA
:100140007474696E6720417564696F2053616D70C6
:100150006C696E67204672657175656E63792E0DE8
:100160000A004572726F7220456E61626C696E673B
:1001700020417564696F2053747265616D2E0D0A9C
:10018000004572726F722053657474696E67204403
:10019000657669636520436F6E6669677572617421
:1001A000696F6E2E0D0A0041747461636865642086
:1001B000446576696365204E6F7420612056616CDA
:1001C000696420417564696F204F7574707574207F
:1001D0004465766963652E0D0A004572726F722060
:1001E00052657472696576696E6720436F6E6669E1
:1001F0006775726174696F6E2044657363726970AC
:10020000746F722E0D0A000D0A44657669636520CD
:10021000556E61747461636865642E0D0A004465EF
:10022000766963652041747461636865642E0D0AA4
:10023000001B5B33366D417564696F204F757470B8
:10024000757420486F73742044656D6F2072756EED
:100250006E696E672E0D0A1B5B33376D000011242B
:100260001FBECFEFD0E2DEBFCDBF11E0A0E0B1E016
:10027000ECEAFAE100E00BBF02C007900D92A43255
:10028000B107D9F711E0A4E2B1E001C01D92A93491
:10029000B107E1F7E8D00C94540DB2CE9BB19F703A
:1002A000982B9BB908951F920F920FB60F920BB621
:1002B0000F921124FF920F931F932F933F934F930D
:1002C0005F936F937F938F939F93AF93BF93EF93BE
:1002D000FF938091A7008F709091AA0090FF02C0B9
:1002E00010E801C010E0182B809134018B3009F028
:1002F0005CC080910C01882309F457C080910601ED
:100300008F708093A7008091A60082FF4EC08091DD
:100310002601982F9F5F909326018F3F51F4809183
:10032000240190912501805090489093250180935D
:1003300024018CB182FD05C080912401909125019A
:1003400002C080E090E0F82E8093AF00092F9093D8
:10035000AF008091A60085FD10C08091A9008F7B21
:100360008093A9008091A6008B778093A600C9D3C3
:100370008091A90080648093A900F092AF0000935F
:10038000AF008091A60085FD10C08091A9008F7BF1
:100390008093A9008091A6008B778093A600B1D3AB
:1003A0008091A90080648093A9001F701093A7001A
:1003B000FF91EF91BF91AF919F918F917F916F913D
:1003C0005F914F913F912F911F910F91FF900F904F
:1003D0000BBE0F900FBE0F901F901895CF93DF9319
:1003E00084B7877F84BF28E10FB6F894209360001C
:1003F000109260000FBE90E080E80FB6F8948093F2
:100400006100909361000FBE83E390E09093CD0074
:100410008093CC0086E08093CA001092C80020939D
:10042000C900539A5A9A8AB1806F8AB98BB18F707A
:100430008BB96A98729ACAE7D0E085EA8883829875
:10044000EEE7F0E0808184608083F2D380E090E08A
:100450000E943D0A82E480937C00888180648883C6
:10046000DF91CF910895BADF81E392E00E94790A8B
:1004700080E114DF789489D6FECF8EE192E00E946D
:10048000790A80EA0BCF87E092E00E94790A80E146
:1004900005CFEF92FF920F931F93DF93CF93CDB7CA
:1004A000DEB7C550D2400FB6F894DEBF0FBECDBF49
:1004B00080EAF4DE8E010A5F1F4F81E0BE016F5FAC
:1004C0007F4FA80120E032E061D4882319F08AED43
:1004D00091E011C069817A8180E091E0A80195D610
:1004E000882319F087EA91E006C081E012D68823BC
:1004F00029F081E891E0FDD780E935C080E091E006
:1005000061E05DD7882319F082E691E01BC0DE012F
:100510001396E0E1F1E083E001900D928150E1F764
:1005200080E091E06091060141E021E003E010E00D
:1005300033E0E32EF12CEC0EFD1E4ED7882341F064
:1005400088E391E0D6D780E9A9DE80E0E2D50CC04F
:1005500082E080936E0093E197BD84BD85BD8DE1FF
:1005600091E0C7D780E69ADECB5FDD4F0FB6F894F7
:10057000DEBF0FBECDBFCF91DF911F910F91FF90D6
:10058000EF900895DF93CF930F92CDB7DEB78983B5
:10059000E7D200D000D0EDB7FEB731962EEE30E0B6
:1005A000ADB7BEB712963C932E9311978981828383
:1005B000138280D70F900F900F900F9080E96EDE1E
:1005C000FFCF909134012DB73EB7285030400FB681
:1005D000F8943EBF0FBE2DBFEDB7FEB7319628E9A8
:1005E00030E0ADB7BEB712963C932E93119782833D
:1005F000138264831582968317825CD72DB73EB72A
:10060000285F3F4F0FB6F8943EBF0FBE2DBF80E965
:1006100045CE80919E0090E0817090702091A00066
:100620002D7F2093A00020919E00226020939E00A9
:1006300020919E0021FDFCCF20919E0021602093FF
:100640009E0010922A012091A00030E020723070AC
:100650004091A0004F7D4093A00040919F004F7DAE
:1006600040939F004AE050919F0055FF0BC040917E
:100670009F004F7D40939F0040919F004D7F40938E
:100680009F0008C0EFECF7E03197F1F700C00000E1
:10069000415049F72115310529F02091A000206231
:1006A0002093A000009729F480919E008E7F809374
:1006B0009E008091A00082608093A00008954091E8
:1006C0009E0050E0417050702091A00030E02072F8
:1006D00030709091A0009F7D9093A00090919F001A
:1006E0009F7D90939F0090919E00916090939E00BB
:1006F00026C090919F0095FF06C090919F009F7D1E
:1007000090939F008150909134019130D9F0909155
:10071000A60094FF09C01092F5008091A6008F7E7C
:100720008093A60082E00FC09091A60091FF07C0C1
:100730008091A6008D7F8093A60083E004C088236B
:10074000C1F601C081E04115510529F490919E0048
:100750009E7F90939E002115310529F09091A00075
:1007600090629093A00008950F931F93DF93CF930F
:10077000CDB7DEB728970FB6F894DEBF0FBECDBF5A
:1007800080913401853009F499C0863068F4823054
:10079000C1F1833018F48823A1F004C18330D9F16A
:1007A000843009F0FFC062C0873009F49EC08730F2
:1007B00008F48FC0883009F4B8C0893009F0F2C05D
:1007C000D9C000912801109129010115110509F4E2
:1007D000E9C081E074DF682F882331F08091270120
:1007E0008093340181E0D2C0015010401093290160
:1007F000009328010115110509F0D4C0809127014B
:1008000007C088EE93E0909329018093280183E04C
:1008100080933401C7C080912801909129019C01E7
:10082000215030403093290120932801009739F05E
:100830008FEC97E00197F1F700C00000B3C0779804
:100840008091D80080618093D8008091DD008B7FFB
:100850008093DD008091D70080618093D7008091E4
:10086000DD0082608093DD0084E0D2CF80919F0024
:1008700080FF98C080919F008E7F80939F00809121
:100880009F008D7F80939F008091DF008D7F8093FC
:10089000DF008091DE0082608093DE0080919E0008
:1008A000816080939E0017D11092340184E690E01D
:1008B000909329018093280185E059C0AADE109207
:1008C000340188EC90E0909329018093280186E020
:1008D0004EC080E060E040E020E430E001E06DD018
:1008E000882309F44FC087E093CFACE2B1E0EBE19D
:1008F000F1E088E001900D928150E1F71092A7009D
:10090000CE01019607D3682F882309F03EC0888561
:10091000809323017EDE1092340188EC90E0909366
:1009200029018093280188E022C02091230180E0E2
:1009300060E040E030E001E040D0882319F1ACE213
:10094000B1E0E3E1F1E088E001900D928150E1F740
:1009500080E090E0DFD2682F8823B9F41092340150
:1009600084E690E0909329018093280189E08093A8
:10097000270118C081E08093A1008AE080933401B0
:1009800088DD10C060E084E001C083E09091340114
:10099000913041F016DE8091DD0081608093DD00B2
:1009A00072DDF6D028960FB6F894DEBF0FBECDBF2D
:1009B000CF91DF911F910F9108950F93582F5F7082
:1009C00087FF02C080E101C080E2573008F059C0C3
:1009D000662309F480E04F706295660F660F607CB5
:1009E000642B682B452F0260842F8F708093A700A3
:1009F0004517A1F488E090E070E003C07F5F880FA6
:100A0000991F8217930710F47530C1F7872F8295CD
:100A1000807F802BF62F70E0E0E008C0F091AA0004
:100A20008091AB00E091AD007091AE0081FF20C0DD
:100A30009091A9009E7F9093A9009091AB009D7F1B
:100A40009093AB009091A90091609093A900F093CE
:100A5000AA008093AB00E093AD007093AE0080914C
:100A6000A90080628093A9008091AC0087FF09C033
:100A70004F5F473009F0B8CF5F705093A70081E017
:100A800001C080E00F910895EF92FF920F931F93A2
:100A9000CF93DF93162FE82EE7017E01F92EE701B1
:100AA000FF240DC08881882341F029813A816C811F
:100AB0004B810D8182DF882331F0F3942696F11665
:100AC00088F381E001C080E0DF91CF911F910F9109
:100AD000FF90EF9008951092F80080E0982F9F709B
:100AE0009093A7001092AE001092A6001092AB0057
:100AF0009091A9009E7F9093A9008F5F873071F736
:100B000008958091A2009091A30044E62091AA004C
:100B10002073203129F42091A60020FF05C018C0C1
:100B20002091A60022FD14C02091A60021FD12C034
:100B300020913401213081F02091A2003091A30056
:100B40002817390719F3442349F04150C901DECF72
:100B500080E0089581E0089582E0089583E008959B
:100B600075D07CD0E0EEF0E0808181608083E8ED9C
:100B7000F0E080818F77808319BCA7EDB0E08C9185
:100B80008E7F8C9380818F7E808310922B010895BD
:100B90005DD064D08091D8008F778093D800809109
:100BA000D80080688093D8008091D8008F7D809392
:100BB000D8008091D7008F778093D7008CE089BDD3
:100BC0008EE089BD09B400FEFDCF81E08093340141
:100BD00010922A0180E4809323018091D8008064E0
:100BE0008093D8008091DD0081608093DD0080914A
:100BF000DD0084608093DD008091D7008F7E80933C
:100C0000D7006F9A779A8091DE0081608093DE0032
:100C10008091DE0084608093DE008091E0008E7F12
:100C20008093E0008091D80080618093D80008957F
:100C3000E8EDF0E080818F7E8083E7EDF0E0808159
:100C40008160808381E080932B01A2CFE8EDF0E00A
:100C500080818C7F80831092A00008951092DA002A
:100C600010929F0008951F920F920FB60F920BB62D
:100C70000F9211242F933F934F935F936F937F9322
:100C80008F939F93AF93BF93EF93FF9380919F00B8
:100C900085FF0AC08091A00085FF06C080919F005B
:100CA0008F7D80939F000CD180919F0081FF15C0A4
:100CB0008091A00081FF11C080919F008D7F809363
:100CC0009F0080919F008E7F80939F008091A00065
:100CD0008D7F8093A000D7DB5BDF8091DF0081FFF9
:100CE00015C08091DE0081FF11C08091DF008D7FF3
:100CF0008093DF0077988091DD0081608093DD0034
:100D000080E040DCC0DB81E0809334018091DF0033
:100D100080FF17C08091DE0080FF13C08091DF004C
:100D20008E7F8093DF008091DE008E7F8093DE00D7
:100D3000A4DB8091A00082608093A00082E0809379
:100D400034018091DF0082FF0EC08091DE0082FFBF
:100D50000AC08091DF008B7F8093DF0082E060E03B
:100D600030DC91DB15DFFF91EF91BF91AF919F9147
:100D70008F917F916F915F914F913F912F910F9044
:100D80000BBE0F900FBE0F901F901895CF92DF9261
:100D9000EF92FF920F931F93DF93CF93CDB7DEB700
:100DA00029970FB6F894DEBF0FBECDBF6B018A0145
:100DB000790190E890932C0196E090932D0190E0BA
:100DC0000197926090932F0180932E011092310130
:100DD0001092300189E090E09093330180933201CA
:100DE0001092A700CE01019695D08823B9F48B818B
:100DF0009C81F60191838083E816F90670F0909348
:100E0000330180933201C80185D0882339F4F80179
:100E10009181923019F086E001C085E029960FB6E5
:100E2000F894DEBF0FBECDBFCF91DF911F910F9120
:100E3000FF90EF90DF90CF900895AF92BF92CF9246
:100E4000DF92EF92FF920F931F93CF93DF938C016A
:100E5000EB016A0123C0E881F9815F01208130E064
:100E6000C7012E153F0508F4C901E80FF91FF983E2
:100E7000E883F80120813181281B390B31832083DD
:100E800088819981F6010995823041F0813069F4B9
:100E9000A882B982F801F182E08207C0F801E080FF
:100EA000F180E114F104B9F682E0DF91CF911F9156
:100EB0000F91FF90EF90DF90CF90BF90AF9008958B
:100EC00008951F93CF93DF93182FC8EED3E007C088
:100ED00081E0F5DB8823D1F42097B9F02197112325
:100EE00029F48091A60083FFF3CF0DC0113029F4BF
:100EF0008091A60080FFECCF06C0123049F78091A8
:100F0000A60082FFE5CF80E001C084E0DF91CF91B1
:100F10001F910895EF92FF920F931F93CF93DF934A
:100F20008C01E0909E00FF2481E0E822FF24C09124
:100F30003201D091330180919E00816080939E00A8
:100F400081E0BDDB882309F0CBC08091AA008F7CB3
:100F50008093AA001092F5008091A6008F7E809366
:100F6000A6008091A9008F7B8093A900ECE2F1E0BC
:100F700081918093AF0081E0E433F807C9F7809155
:100F8000A60087778093A60080E09BDF882309F086
:100F9000A7C08091A90080648093A90081E08FDBC5
:100FA000882309F09DC080912C0187FF4FC080915C
:100FB000AA008F7C80618093AA000115110561F55C
:100FC0002DC08091A9008F7B8093A90081E079DFFB
:100FD000882309F085C08091F6009091F700009772
:100FE00049F4C0E0D0E006C08091AF00F8018193E1
:100FF0008F0121978091F6009091F700009711F0F2
:10100000209791F78091A90080648093A900809136
:10101000A6008E778093A600209799F68091AA006B
:101020008F7C80628093AA008091A9008F7B80933F
:10103000A90082E046DF882309F052C08091A60013
:101040008B778093A60082E03CDF4AC00115110532
:1010500099F18091AA008F7C80628093AA00809190
:10106000A9008F7B8093A9001CC082E02ADF88231F
:10107000B9F5F80106C081918F018093AF002197E7
:1010800059F08F012091F6003091F70080912301F3
:1010900090E02817390778F38091A6008B7780932A
:1010A000A600209711F782E00CDF8823C9F4809115
:1010B000A90080648093A9008091AA008F7C806140
:1010C0008093AA008091A9008F7B8093A90081E082
:1010D000F8DE882329F49091A6009E779093A600CD
:1010E0009091A90090649093A900E114F10429F46F
:1010F00090919E009E7F90939E0091E09093A80017
:101100001092A800DF91CF911F910F91FF90EF9067
:1011100008951F93182F10922C0189E080932D01C0
:1011200010932E0110922F01109231011092300174
:1011300010923301109232011092A70080E090E0EB
:10114000E9DE882349F410932A01112311F09BE072
:1011500001C09AE0909334011F910895ECE2F1E010
:1011600091E090932C019BE090932D0160932E01D0
:101170001382809330011582109233011092320154
:101180001092A70080E090E0C5CE1F931091A700B9
:101190001F708091AA001092A700E6DA1093A700B2
:1011A0001F910895FC018181843049F4858181304B
:1011B00031F48681813019F48781882311F082E02F
:1011C000089580E00895FC018181843049F485818F
:1011D000813031F48681823019F48781882311F0BF
:1011E00082E0089580E00895FC018181853029F432
:1011F00083818370813019F404C0843021F082E04F
:10120000089580E0089581E008954F925F926F9273
:101210007F928F929F92AF92BF92CF92DF92EF9286
:10122000FF920F931F93DF93CF9300D000D0CDB7E1
:10123000DEB78C017A836983FA015C834B83DC011E
:101240001C961D921D921D921C921F9781818230C7
:1012500009F092C04424552466247724CC24DD244C
:10126000EE24FF2483E0882E912C8C0E9D1E5E01BF
:101270000894A11CB11C2FC06114710449F0C50170
:10128000B40144EF58E0D9DD882309F08FC01BC0BA
:10129000C501B40142ED58E0D0DD882309F06EC0ED
:1012A000CB80EC80C501B40143EE58E0C6DD882355
:1012B00009F064C06C2C7E2C4B805C80CC24DD2437
:1012C000EE24FF2408C0EB81FC81828187FF02C0ED
:1012D0007F0101C06F01F8018081882319F0E114BA
:1012E000F10451F2D80116968C911697882321F0BB
:1012F000C114D10409F4C0CFF70184819581D801CC
:1013000012969C938E931197828113968C931397C8
:10131000EE24E3941496EC92149722E015962C9305
:101320001597F6018481958118969C938E93179753
:10133000828119968C9319971A96EC921A971B969C
:101340002C93C80161E0A0DB8823D1F0C801069688
:1013500061E09ADB8823A1F0D30112968C91F80109
:101360008587D20112968C911297868713968C915D
:1013700013978787E48604C081E003C082E001C040
:1013800080E00F900F900F900F90CF91DF911F9101
:101390000F91FF90EF90DF90CF90BF90AF909F9014
:1013A0008F907F906F905F904F900895C501B4012A
:1013B00043EE58E042DD882309F06ACF7DCFFC017F
:1013C0008485882339F08685662311F0678501C0FE
:1013D00060E0C4CE81E00895EF92FF920F931F93D7
:1013E000FC018485882339F147FF02C092EA01C0DD
:1013F00092E26F706093A7003091AA00532F5F7044
:1014000030FF02C080E001C080E890932C0140933F
:101410002D01EEE2F1E010922E012183852B8093C5
:101420003001138210933301009332011092A70010
:10143000C70170DD01C081E01F910F91FF90EF9017
:1014400008959091C80095FFFCCF8093CE0080E076
:1014500090E008958091C80087FF08C08091C8007F
:1014600087FF07C02091CE0030E005C02EEF3FEF90
:1014700002C02FEF3FEFC9010895FC01009751F41E
:10148000E5E3F1E0F0934401E0934301F09346017A
:10149000E09345018EE0DF011D928A95E9F783E034
:1014A000838381E29AE0918780878AE29AE093873A
:1014B00082870895DF93CF93CDB7DEB7FE013596CF
:1014C000619171918091450190914601DC011396E3
:1014D0002C911397286013962C93AF0142D0E09182
:1014E0004501F09146012381277F2383CF91DF912E
:1014F0000895EF92FF920F931F93CF93DF938C0188
:10150000E0914501F0914601838181FF20C0C0E058
:10151000D0E00CC0DB011896ED91FC91199709956C
:10152000009711F0CFEFDFEF0F5F1F4FF8018491AD
:101530006091450170914601882361F7DB0118969F
:10154000ED91FC9119978AE00995009711F0CFEF82
:10155000DFEFCE01DF91CF911F910F91FF90EF90C0
:1015600008952F923F924F925F926F927F928F9247
:101570009F92AF92BF92CF92DF92EF92FF920F9322
:101580001F93DF93CF93CDB7DEB72C970FB6F894A8
:10159000DEBF0FBECDBF6C011B018A01FC011782AB
:1015A0001682838181FFC4C12E010894411C511C05
:1015B000F6019381F10193FD859193FF81911F01C4
:1015C000882309F4B1C1853239F493FD859193FFE5
:1015D00081911F01853221F490E0B601DBD1E8CF83
:1015E000EE24FF2420E02032B0F48B3269F08C32FC
:1015F00028F4803251F0833271F40BC08D3239F00F
:10160000803349F421602CC02260246029C0286006
:1016100027C0206125C027FD2CC0382F30533A3019
:1016200098F426FF08C08E2D880FE82EEE0CEE0CE5
:10163000E80EE30E15C08F2D880FF82EFF0CFF0C5F
:10164000F80EF30E20620CC08E3221F426FD6CC120
:10165000206406C08C3611F4206802C0883649F434
:10166000F10193FD859193FF81911F01882309F07A
:10167000BACF982F9554933018F09052933028F4A5
:101680000C5F1F4FFFE3F9830DC0833631F08337C2
:1016900071F0833509F05CC021C0F8018081898335
:1016A0000E5F1F4F420171E0A72EB12C15C062E002
:1016B000662E712C600E711EF8018080918026FFCD
:1016C00003C06E2D70E002C06FEF7FEFC4012C8766
:1016D00056D15C0183012C852F7716C052E0652E10
:1016E000712C600E711EF8018080918026FF03C06E
:1016F0006E2D70E002C06FEF7FEFC4012C8734D1F4
:101700005C012C852068830123FD1EC007C080E298
:1017100090E0B6012C873ED1FA942C858F2D90E075
:10172000A816B906A0F310C0F40127FD859127FF84
:1017300081914F0190E0B6012C872CD12C85F110BE
:10174000FA940894A108B108A114B10469F7E9C09A
:10175000843611F0893641F527FF08C0F801608111
:101760007181828193810C5F1F4F09C0F8016081F4
:101770007181882777FD8095982F0E5F1F4F4FE668
:10178000B42EB22297FF09C090958095709561950F
:101790007F4F8F4F9F4FF0E8BF2AA2012AE030E031
:1017A00025D1782E741844C0853731F43FEEB32E1E
:1017B000B2222AE030E025C099EFB92EB2228F364E
:1017C000C1F0803720F4883509F0AEC00DC08037F5
:1017D00021F0883709F0A8C002C020E1B22AB4FE87
:1017E0000BC084E0B82A08C0B4FE09C0E6E0BE2AF7
:1017F00006C028E030E005C020E130E002C020E172
:1018000032E0B7FE08C0F801608171818281938166
:101810000C5F1F4F07C0F8016081718180E090E08C
:101820000E5F1F4FA201E2D0782E7418FFE7BF228F
:10183000B6FE0BC02EEFB2227E1438F4B4FE07C001
:10184000B2FC05C08FEEB82202C0A72C01C0AE2C9E
:101850008B2D90E0B4FE0DC0FE01E70DF11D20813F
:10186000203319F4E9EEBE2209C0A394B2FE06C0EB
:1018700004C086789070009709F0A3948B2C99246B
:10188000B3FC13C0B0FE0EC0AF1428F4E72CEF0C6D
:10189000EA18AF2C07C0E72C05C080E290E0B60143
:1018A00079D0A394AF14C8F304C0AF1410F4FA189D
:1018B00001C0FF2484FE0EC080E390E0B6016AD030
:1018C00082FE1DC081FE03C088E590E010C088E75D
:1018D00090E00DC0C40186789070009781F081FC83
:1018E00002C080E201C08BE2B7FC8DE290E0B6015D
:1018F00051D005C080E390E0B6014CD0EA947E144C
:10190000C8F37A94F201E70DF11D808190E0B601F1
:1019100041D07720B1F705C080E290E0B6013AD01F
:10192000FA94FF20C9F744CEF6012681378102C020
:101930002FEF3FEFC9012C960FB6F894DEBF0FBE14
:10194000CDBFCF91DF911F910F91FF90EF90DF906E
:10195000CF90BF90AF909F908F907F906F905F904F
:101960004F903F902F900895FC010590615070407A
:101970000110D8F7809590958E0F9F1F0895FC0158
:101980006150704001900110D8F7809590958E0FAE
:101990009F1F08950F931F93CF93DF938C01EB014B
:1019A0008B8181FF1BC082FF0DC02E813F818C8106
:1019B0009D812817390764F4E881F9810193F9833F
:1019C000E88306C0E885F985802F0995009731F4F2
:1019D0008E819F8101969F838E8302C00FEF1FEF40
:1019E000C801DF91CF911F910F910895FA01AA27A5
:1019F000283051F1203181F1E8946F936E7F6E5F52
:101A00007F4F8F4F9F4FAF4FB1E03ED0B4E03CD0FF
:101A1000670F781F891F9A1FA11D680F791F8A1FE2
:101A2000911DA11D6A0F711D811D911DA11D20D049
:101A300009F468943F912AE0269F11243019305D03
:101A40003193DEF6CF010895462F4770405D4193F4
:101A5000B3E00FD0C9F7F6CF462F4F70405D4A3341
:101A600018F0495D31FD4052419302D0A9F7EACF09
:101A7000B4E0A6959795879577956795BA95C9F738
:101A800000976105710508959B01AC010A2E06942B
:101A90005795479537952795BA95C9F7620F731FE4
:0C1AA000841F951FA01D0895F894FFCF2F
:101AAC000000000000000200000000000000000028
:101ABC0080BB000005010000000000800600010052
:041ACC0000080040CE
:00000001FF
