:10000000AFC10000CBC10000C9C10000C7C10000E2
:10001000C5C10000C3C10000C1C10000BFC10000D4
:10002000BDC10000BBC100002AC70000B7C100006D
:10003000B5C10000B3C10000B1C10000AFC10000F4
:10004000ADC10000ABC10000A9C10000A7C1000004
:10005000A5C10000A3C10000A1C100009FC1000014
:100060009DC100009BC1000099C1000097C1000024
:1000700095C1000093C1000091C100008FC1000034
:100080008DC100008BC1000089C1000087C1000044
:1000900085C1000083C100001B5B33316D44657670
:1000A00020456E756D204572726F720D0A202D2DE0
:1000B000204572726F7220436F64652025640D0ABB
:1000C000202D2D20537562204572726F7220436F70
:1000D00064652025640D0A202D2D20496E2053745F
:1000E0006174652025640D0A1B5B33376D001B5B53
:1000F00033316D486F7374204D6F646520457272A3
:100100006F720D0A202D2D204572726F7220436F81
:1001100064652025640D0A1B5B33376D0041636302
:100120006573736F7279204D6F646520416E6472E0
:100130006F696420456E756D6572617465642E0D1E
:100140000A001B5B33316D436F6E74726F6C204518
:1001500072726F72202853657420436F6E666967F0
:1001600075726174696F6E292E0D0A202D2D204540
:1001700072726F7220436F64653A2025640D0A1B0A
:100180005B33376D00202D2D204572726F72204336
:100190006F64653A2025640D0A1B5B33376D001BC5
:1001A0005B33316D496E76616C69642044657669B4
:1001B00063652E0D0A001B5B33316D436F6E7472E5
:1001C0006F6C204572726F72202847657420436FF0
:1001D0006E66696775726174696F6E292E0D0A000B
:1001E00047657474696E6720436F6E666967204463
:1001F0006174612E0D0A001B5B33316D41636365D1
:1002000073736F7279204D6F6465204E6F74205345
:100210007570706F727465642E001B5B33316D43B3
:100220006F6E74726F6C204572726F722028476512
:10023000742050726F746F636F6C292E0D0A202D1D
:100240002D204572726F7220436F64653A202564D9
:100250000D0A1B5B33376D00416E64726F69642059
:1002600044657669636520446574656374656420DC
:100270002D2025734163636573736F7279206D6FF1
:1002800064652E0D0A00202D2D204572726F72209C
:10029000436F64653A2025640D0A1B5B33376D009C
:1002A0001B5B33316D496E76616C69642044657601
:1002B0006963652E0D0A001B5B33316D436F6E74ED
:1002C000726F6C204572726F7220284765742044EB
:1002D0006576696365292E0D0A0047657474696E39
:1002E000672044657669636520446174612E0D0A58
:1002F000001B5B33326D0D0A4465766963652055DA
:100300006E61747461636865642E0D0A1B5B33371C
:100310006D001B5B33326D44657669636520417403
:100320007461636865642E0D0A1B5B33376D001BB7
:100330005B33366D416E64726F696420416363653F
:1003400073736F727920486F73742044656D6F20EA
:1003500072756E6E696E672E0D0A1B5B33376D000A
:1003600011241FBECFEFD0E2DEBFCDBF11E0A0E071
:10037000B1E0EEE2FAE100E00BBF02C007900D929F
:10038000A237B107D9F711E0A2E7B1E001C01D9291
:10039000A439B107E1F768D00C94150D31CE9BB1AB
:1003A0009F70982B9BB9089584B7877F84BF28E1FD
:1003B0000FB6F89420936000109260000FBE90E09A
:1003C00080E80FB6F89480936100909361000FBEAF
:1003D00083E390E09093CD008093CC0086E08093FF
:1003E000CA001092C8002093C900539A5A9A8AB141
:1003F000806F8AB98BB18F708BB926D580E090E081
:10040000FDC780917F018B3071F581E08093A7005B
:100410008091A9008F7B8093A9008091A60080FF26
:100420001DC08091A90080648093A9008091A600DE
:1004300085FF0FC09091AF0090FF02C080E101C026
:1004400080E091FD806292FD806893FD8064A7DF6B
:1004500005C08091A6008E778093A6008091A900A8
:1004600080648093A90008959FDF8FE293E00E944B
:100470003A0A80E194DF7894C4DF97D7FDCF82E118
:1004800093E0F8D780EA8BCF81EF92E0F3D780E159
:1004900086CF0F931F93DF93CF9300D0CDB7DEB7F6
:1004A0008AED92E0E7D78FD1182F8450823080F008
:1004B000113019F487EB92E002C080EA92E0DAD7BB
:1004C00000D000D0EDB7FEB7319626E832E060C02C
:1004D00001E0143021F000E085E091E002C080E00E
:1004E00091E000D000D028E532E0EDB7FEB73283CE
:1004F0002183948383839FD70F900F900F900F9049
:10050000002381F1CE0101968BD1882341F000D0E8
:1005100000D0EDB7FEB731962AE132E053C08981B1
:100520009A818130910521F087EF91E0A3D73DC0FA
:1005300080E066E071E080D181E062E171E07CD131
:1005400082E062E171E078D183E064E271E074D12D
:1005500084E068E271E070D185E060E471E06CD124
:100560008AD13DC080EE91E085D7ADD0182F882389
:10057000F1F0813019F486EB91E002C08FE991E04F
:1005800079D700D000D0EDB7FEB7319625E831E03D
:10059000ADB7BEB712963C932E9311971283138278
:1005A0004AD70F900F900F900F9080E917C081E00D
:1005B000BCD6882379F000D000D0EDB7FEB73196D5
:1005C00022E431E0ADB7BEB712963C932E9311975B
:1005D0008283E5CF8DE191E04DD780E6E0DE0F909C
:1005E0000F90CF91DF911F910F910895DF93CF93DB
:1005F0000F92CDB7DEB78983BFD300D000D0EDB75F
:10060000FEB731962EEE30E0ADB7BEB712963C93F2
:100610002E9311978981828313820DD70F900F90AB
:100620000F900F9080E9BBDEFFCF90917F012DB737
:100630003EB7285030400FB6F8943EBF0FBE2DBFD6
:10064000EDB7FEB7319628E930E0ADB7BEB71296E8
:100650003C932E9311978283138264831582968331
:100660001782E9D62DB73EB7285F3F4F0FB6F894F3
:100670003EBF0FBE2DBF80E992CEFC018181843048
:1006800049F485818F3F31F486818F3F19F487814A
:10069000882311F082E0089580E00895FC018181B3
:1006A000853049F483818370823039F4828140D36C
:1006B000882319F404C0843021F082E0089580E09A
:1006C000089581E00895AF92BF92CF92DF92EF92AA
:1006D000FF920F931F93DF93CF93CDB7DEB7C45034
:1006E000D2400FB6F894DEBF0FBECDBFAE014B5F58
:1006F0005F4F5A83498383E0C82ED12CCC0EDD1E78
:1007000081E0B60120E032E04DD4853009F446C0E6
:10071000863019F0882329F002C083E042C081E0CE
:1007200040C0C6015E010894A11CB11CB5014DE397
:1007300053E08FD48823A1F5EE24FF2400E010E0DD
:10074000C601DC2CC92EC501BA2CA92E8D2D9C2DDD
:100750006B2D7A2D4EE453E07CD4882309F5E98192
:10076000FA81828187FF02C08F0101C07F010115DC
:10077000110561F3E114F10449F3F8012481358195
:1007800081E862E0428101E056D2F701248135819F
:1007900082E062E042814FD280E003C082E001C08B
:1007A00084E0CC5FDD4F0FB6F894DEBF0FBECDBF47
:1007B000CF91DF911F910F91FF90EF90DF90CF903D
:1007C000BF90AF900895DF93CF93CDB7DEB7629718
:1007D0000FB6F894DEBF0FBECDBF81E060E0AE0182
:1007E0004F5F5F4F22E1C6D5882361F48A81813053
:1007F00059F48B859C8580509D428230910530F064
:1008000084E005C081E003C082E001C085E062961B
:100810000FB6F894DEBF0FBECDBFCF91DF91089524
:10082000A7E7B1E0E9E5F1E028E001900D92215061
:10083000E1F71092A7007AC4972FE62FF72FDF0178
:100840000D900020E9F720E42093770124E3209322
:10085000780110927A011092790180937B011092B5
:100860007C01AE1BBF0BB0937E01A0937D01109263
:10087000A700862F5BC4A7E7B1E0E1E5F1E088E0DF
:1008800001900D928150E1F71092A70080E090E076
:100890004DC480919E0090E0817090702091A000E6
:1008A0002D7F2093A00020919E00226020939E0027
:1008B00020919E0021FDFCCF20919E00216020937D
:1008C0009E00109275012091A00030E020723070DF
:1008D0004091A0004F7D4093A00040919F004F7D2C
:1008E00040939F004AE050919F0055FF0BC04091FC
:1008F0009F004F7D40939F0040919F004D7F40930C
:100900009F0008C0EFECF7E03197F1F700C000005E
:10091000415049F72115310529F02091A0002062AE
:100920002093A000009729F480919E008E7F8093F1
:100930009E008091A00082608093A0000895409165
:100940009E0050E0417050702091A00030E0207275
:1009500030709091A0009F7D9093A00090919F0097
:100960009F7D90939F0090919E00916090939E0038
:1009700026C090919F0095FF06C090919F009F7D9B
:1009800090939F00815090917F019130D9F0909188
:10099000A60094FF09C01092F5008091A6008F7EFA
:1009A0008093A60082E00FC09091A60091FF07C03F
:1009B0008091A6008D7F8093A60083E004C08823E9
:1009C000C1F601C081E04115510529F490919E00C6
:1009D0009E7F90939E002115310529F09091A000F3
:1009E00090629093A00008950F931F93DF93CF938D
:1009F000CDB7DEB728970FB6F894DEBF0FBECDBFD8
:100A000080917F01853009F497C0863068F4823088
:100A1000C1F1833018F48823A1F002C18330C9F1F9
:100A2000843009F0FDC060C0873009F49CC0873075
:100A300008F48DC0883009F4B6C0893009F0F0C0E0
:100A4000D7C000917301109174010115110509F4CB
:100A5000E7C081E074DF682F882331F08091720154
:100A600080937F0181E0D0C0015010401093740149
:100A7000009373010115110509F0D2C08091720134
:100A800005C0109274011092730183E080937F017E
:100A9000C7C080917301909174019C012150304036
:100AA0003093740120937301009739F08FEC97E035
:100AB0000197F1F700C00000B3C077988091D8008B
:100AC00080618093D8008091DD008B7F8093DD0072
:100AD0008091D70080618093D7008091DD00826093
:100AE0008093DD0084E0D2CF80919F0080FF98C08A
:100AF00080919F008E7F80939F0080919F008D7FCB
:100B000080939F008091DF008D7F8093DF00809134
:100B1000DE0082608093DE0080919E008160809381
:100B20009E00F0D010927F0184E690E090937401D3
:100B30008093730185E059C0ACDE10927F0188EC90
:100B400090E0909374018093730186E04EC080E042
:100B500060E040E020E430E001E06DD0882309F45B
:100B60004FC087E093CFA7E7B1E0E9E6F1E088E086
:100B700001900D928150E1F71092A700CE010196ED
:100B8000D5D2682F882309F03EC0888580937101F3
:100B900080DE10927F0188EC90E090937401809346
:100BA000730188E022C02091710180E060E040E0A4
:100BB00030E001E040D0882319F1A7E7B1E0E1E699
:100BC000F1E088E001900D928150E1F780E090E043
:100BD000ADD2682F8823B9F410927F0184E690E0AB
:100BE000909374018093730189E08093720118C01F
:100BF00081E08093A1008AE080937F014ADC10C0ED
:100C000060E084E001C083E090917F01913041F089
:100C10000CDD8091DD0081608093DD0035DCC4D087
:100C200028960FB6F894DEBF0FBECDBFCF91DF91EF
:100C30001F910F9108950F93582F5F7087FF02C087
:100C400080E101C080E2573008F059C0662309F402
:100C500080E04F706295660F660F607C642B682B96
:100C6000452F0260842F8F708093A7004517A1F451
:100C700088E090E070E003C07F5F880F991F8217C3
:100C8000930710F47530C1F7872F8295807F802BF2
:100C9000F62F70E0E0E008C0F091AA008091AB0070
:100CA000E091AD007091AE0081FF20C09091A9004D
:100CB0009E7F9093A9009091AB009D7F9093AB0095
:100CC0009091A90091609093A900F093AA0080935D
:100CD000AB00E093AD007093AE008091A9008062FC
:100CE0008093A9008091AC0087FF09C04F5F473017
:100CF00009F0B8CF5F705093A70081E001C080E099
:100D00000F9108951092F80080E0982F9F709093B3
:100D1000A7001092AE001092A6001092AB00909126
:100D2000A9009E7F9093A9008F5F873071F7089587
:100D30004091A7009091AA0090E0292F2F70209356
:100D4000A7002091AC0027FF0CC03091AA00532FC0
:100D50005F7030FF02C020E001C020E8252B28177B
:100D600049F09F5F973049F7842F8F708093A700D9
:100D700080E0089581E0089575D07CD0E0EEF0E049
:100D8000808181608083E8EDF0E080818F778083CF
:100D900019BCA7EDB0E08C918E7F8C9380818F7E03
:100DA00080831092760108955DD064D08091D80040
:100DB0008F778093D8008091D80080688093D80086
:100DC0008091D8008F7D8093D8008091D7008F7755
:100DD0008093D7008CE089BD8EE089BD09B400FE08
:100DE000FDCF81E080937F011092750180E48093B4
:100DF00071018091D80080648093D8008091DD00DB
:100E000081608093DD008091DD0084608093DD004F
:100E10008091D7008F7E8093D7006F9A779A8091C8
:100E2000DE0081608093DE008091DE00846080932C
:100E3000DE008091E0008E7F8093E0008091D800FA
:100E400080618093D8000895E8EDF0E080818F7E86
:100E50008083E7EDF0E080818160808381E0809392
:100E60007601A2CFE8EDF0E080818C7F8083109244
:100E7000A00008951092DA0010929F0008951F922A
:100E80000F920FB60F920BB60F9211242F933F9330
:100E90004F935F936F937F938F939F93AF93BF9382
:100EA000EF93FF9380919F0085FF0AC08091A0007F
:100EB00085FF06C080919F008F7D80939F000CD19D
:100EC00080919F0081FF15C08091A00081FF11C01B
:100ED00080919F008D7F80939F0080919F008E7FE7
:100EE00080939F008091A0008D7F8093A000CCDA3A
:100EF0005BDF8091DF0081FF15C08091DE0081FF04
:100F000011C08091DF008D7F8093DF007798809102
:100F1000DD0081608093DD0080E068DBB5DA81E090
:100F200080937F018091DF0080FF17C08091DE00F9
:100F300080FF13C08091DF008E7F8093DF0080915F
:100F4000DE008E7F8093DE009ADA8091A0008260BE
:100F50008093A00082E080937F018091DF0082FF78
:100F60000EC08091DE0082FF0AC08091DF008B7F7F
:100F70008093DF0082E060E058DB86DA15DFFF91C6
:100F8000EF91BF91AF919F918F917F916F915F9101
:100F90004F913F912F910F900BBE0F900FBE0F906E
:100FA0001F901895CF92DF92EF92FF920F931F93AD
:100FB000DF93CF93CDB7DEB729970FB6F894DEBF96
:100FC0000FBECDBF6B018A01790190E89093770144
:100FD00096E09093780190E00197926090937A0167
:100FE0008093790110927C0110927B0189E090E05E
:100FF00090937E0180937D011092A700CE0101960F
:1010000095D08823B9F48B819C81F60191838083EC
:10101000E816F90670F090937E0180937D01C80177
:1010200085D0882339F4F8019181923019F086E057
:1010300001C085E029960FB6F894DEBF0FBECDBF84
:10104000CF91DF911F910F91FF90EF90DF90CF90A4
:101050000895AF92BF92CF92DF92EF92FF920F93DB
:101060001F93CF93DF938C01EB016A0123C0E881CA
:10107000F9815F01208130E0C7012E153F0508F49A
:10108000C901E80FF91FF983E883F8012081318154
:10109000281B390B3183208388819981F6010995BA
:1010A000823041F0813069F4A882B982F801F1827E
:1010B000E08207C0F801E080F180E114F104B9F6A4
:1010C00082E0DF91CF911F910F91FF90EF90DF9021
:1010D000CF90BF90AF90089508951F93CF93DF9363
:1010E000182FC8EED3E007C081E029DC8823D1F4B3
:1010F0002097B9F02197112329F48091A60083FF4E
:10110000F3CF0DC0113029F48091A60080FFECCF01
:1011100006C0123049F78091A60082FFE5CF80E03B
:1011200001C084E0DF91CF911F910895EF92FF926B
:101130000F931F93CF93DF938C01E0909E00FF24C9
:1011400081E0E822FF24C0917D01D0917E01809151
:101150009E00816080939E0081E0F1DB882309F08E
:10116000CBC08091AA008F7C8093AA001092F500DA
:101170008091A6008F7E8093A6008091A9008F7B2E
:101180008093A900E7E7F1E081918093AF0081E0CF
:10119000EF37F807C9F78091A60087778093A600FC
:1011A00080E09BDF882309F0A7C08091A9008064BC
:1011B0008093A90081E0C3DB882309F09DC0809162
:1011C000770187FF4FC08091AA008F7C8061809358
:1011D000AA000115110561F52DC08091A9008F7B32
:1011E0008093A90081E079DF882309F085C0809190
:1011F000F6009091F700009749F4C0E0D0E006C0F7
:101200008091AF00F80181938F0121978091F600C2
:101210009091F700009711F0209791F78091A90025
:1012200080648093A9008091A6008E778093A600A9
:10123000209799F68091AA008F7C80628093AA0003
:101240008091A9008F7B8093A90082E046DF8823EC
:1012500009F052C08091A6008B778093A60082E0AF
:101260003CDF4AC00115110599F18091AA008F7CDD
:1012700080628093AA008091A9008F7B8093A9004F
:101280001CC082E02ADF8823B9F5F80106C08191ED
:101290008F018093AF00219759F08F012091F600C4
:1012A0003091F7008091710190E02817390778F3A9
:1012B0008091A6008B778093A600209711F782E09B
:1012C0000CDF8823C9F48091A90080648093A90071
:1012D0008091AA008F7C80618093AA008091A900F0
:1012E0008F7B8093A90081E0F8DE882329F4909118
:1012F000A6009E779093A6009091A9009064909389
:10130000A900E114F10429F490919E009E7F90932E
:101310009E0091E09093A8001092A800DF91CF91D9
:101320001F910F91FF90EF9008951F93182F109227
:10133000770189E0809378011093790110927A0106
:1013400010927C0110927B0110927E0110927D011F
:101350001092A70080E090E0E9DE882349F4109322
:101360007501112311F09BE001C09AE090937F0179
:101370001F91089590E89093770196E090937801FB
:1013800070E0F82FE0E06E2B7F2B70937A01609372
:10139000790110927C0110927B0120937D011092C3
:1013A0007E011092A700CA01C1CE1F931091A70021
:1013B0001F708091AA001092A70016DB1093A7005F
:1013C0001F9108959091C80095FFFCCF8093CE00A7
:1013D00080E090E008958091C80087FF08C0809168
:1013E000C80087FF07C02091CE0030E005C02EEF77
:1013F0003FEF02C02FEF3FEFC9010895FC010097B6
:1014000051F4E0E8F1E0F0938F01E0938E01F09366
:101410009101E09390018EE0DF011D928A95E9F73A
:1014200083E0838382EE99E0918780878BEE99E059
:10143000938782870895DF93CF93CDB7DEB7FE0100
:101440003596619171918091900190919101DC01AB
:1014500013962C911397286013962C93AF0142D0CA
:10146000E0919001F09191012381277F2383CF9117
:10147000DF910895EF92FF920F931F93CF93DF9325
:101480008C01E0919001F0919101838181FF20C056
:10149000C0E0D0E00CC0DB011896ED91FC911997EB
:1014A0000995009711F0CFEFDFEF0F5F1F4FF801A5
:1014B00084916091900170919101882361F7DB0123
:1014C0001896ED91FC9119978AE00995009711F013
:1014D000CFEFDFEFCE01DF91CF911F910F91FF9002
:1014E000EF9008952F923F924F925F926F927F926A
:1014F0008F929F92AF92BF92CF92DF92EF92FF9224
:101500000F931F93DF93CF93CDB7DEB72C970FB612
:10151000F894DEBF0FBECDBF6C011B018A01FC0138
:1015200017821682838181FFC4C12E010894411C59
:10153000511CF6019381F10193FD859193FF8191F7
:101540001F01882309F4B1C1853239F493FD8591D7
:1015500093FF81911F01853221F490E0B601DBD128
:10156000E8CFEE24FF2420E02032B0F48B3269F083
:101570008C3228F4803251F0833271F40BC08D32FA
:1015800039F0803349F421602CC02260246029C0E6
:10159000286027C0206125C027FD2CC0382F30537C
:1015A0003A3098F426FF08C08E2D880FE82EEE0CF6
:1015B000EE0CE80EE30E15C08F2D880FF82EFF0CF1
:1015C000FF0CF80EF30E20620CC08E3221F426FDC3
:1015D0006CC1206406C08C3611F4206802C08836C5
:1015E00049F4F10193FD859193FF81911F018823B7
:1015F00009F0BACF982F9554933018F09052933049
:1016000028F40C5F1F4FFFE3F9830DC0833631F0E0
:10161000833771F0833509F05CC021C0F801808107
:1016200089830E5F1F4F420171E0A72EB12C15C0B8
:1016300062E0662E712C600E711EF8018080918030
:1016400026FF03C06E2D70E002C06FEF7FEFC40174
:101650002C8756D15C0183012C852F7716C052E070
:10166000652E712C600E711EF8018080918026FF1E
:1016700003C06E2D70E002C06FEF7FEFC4012C87B6
:1016800034D15C012C852068830123FD1EC007C076
:1016900080E290E0B6012C873ED1FA942C858F2D04
:1016A00090E0A816B906A0F310C0F40127FD8591BB
:1016B00027FF81914F0190E0B6012C872CD12C851A
:1016C000F110FA940894A108B108A114B10469F7C3
:1016D000E9C0843611F0893641F527FF08C0F801CA
:1016E00060817181828193810C5F1F4F09C0F80175
:1016F00060817181882777FD8095982F0E5F1F4F3D
:101700004FE6B42EB22297FF09C090958095709550
:1017100061957F4F8F4F9F4FF0E8BF2AA2012AE0CB
:1017200030E025D1782E741844C0853731F43FEE6F
:10173000B32EB2222AE030E025C099EFB92EB222B2
:101740008F36C1F0803720F4883509F0AEC00DC067
:10175000803721F0883709F0A8C002C020E1B22A02
:10176000B4FE0BC084E0B82A08C0B4FE09C0E6E0AD
:10177000BE2A06C028E030E005C020E130E002C00B
:1017800020E132E0B7FE08C0F801608171818281FA
:1017900093810C5F1F4F07C0F8016081718180E069
:1017A00090E00E5F1F4FA201E2D0782E7418FFE781
:1017B000BF22B6FE0BC02EEFB2227E1438F4B4FE68
:1017C00007C0B2FC05C08FEEB82202C0A72C01C032
:1017D000AE2C8B2D90E0B4FE0DC0FE01E70DF11D87
:1017E0002081203319F4E9EEBE2209C0A394B2FE91
:1017F00006C004C086789070009709F0A3948B2CE3
:101800009924B3FC13C0B0FE0EC0AF1428F4E72C2B
:10181000EF0CEA18AF2C07C0E72C05C080E290E07F
:10182000B60179D0A394AF14C8F304C0AF1410F478
:10183000FA1801C0FF2484FE0EC080E390E0B601D8
:101840006AD082FE1DC081FE03C088E590E010C012
:1018500088E790E00DC0C40186789070009781F011
:1018600081FC02C080E201C08BE2B7FC8DE290E017
:10187000B60151D005C080E390E0B6014CD0EA94A7
:101880007E14C8F37A94F201E70DF11D808190E097
:10189000B60141D07720B1F705C080E290E0B601F3
:1018A0003AD0FA94FF20C9F744CEF6012681378159
:1018B00002C02FEF3FEFC9012C960FB6F894DEBFA0
:1018C0000FBECDBFCF91DF911F910F91FF90EF9091
:1018D000DF90CF90BF90AF909F908F907F906F9050
:1018E0005F904F903F902F900895FC0105906150BC
:1018F00070400110D8F7809590958E0F9F1F089526
:10190000FC016150704001900110D8F780959095CE
:101910008E0F9F1F08950F931F93CF93DF938C011A
:10192000EB018B8181FF1BC082FF0DC02E813F81A7
:101930008C819D812817390764F4E881F98101932E
:10194000F983E88306C0E885F985802F099500971B
:1019500031F48E819F8101969F838E8302C00FEFA9
:101960001FEFC801DF91CF911F910F910895FA01E8
:10197000AA27283051F1203181F1E8946F936E7FCE
:101980006E5F7F4F8F4F9F4FAF4FB1E03ED0B4E0BF
:101990003CD0670F781F891F9A1FA11D680F791F00
:1019A0008A1F911DA11D6A0F711D811D911DA11D11
:1019B00020D009F468943F912AE0269F1124301921
:1019C000305D3193DEF6CF010895462F4770405DBC
:1019D0004193B3E00FD0C9F7F6CF462F4F70405D6B
:1019E0004A3318F0495D31FD4052419302D0A9F7C6
:1019F000EACFB4E0A6959795879577956795BA95C0
:101A0000C9F700976105710508959B01AC010A2E85
:101A100006945795479537952795BA95C9F7620F5C
:0E1A2000731F841F951FA01D0895F894FFCF1B
:101A2E004E6F6E2D00004465616E2043616D6572D0
:101A3E0061004C55464120416E64726F69642044CA
:101A4E00656D6F00312E3000687474703A2F2F77E9
:101A5E0077772E6C7566612D6C69622E6F726700DA
:101A6E003030303030303030313233343536373844
:101A7E00004035000000000000C0330000000002EE
:101A8E0000000501000000000080060001000008B3
:021A9E00004006
:00000001FF
