:1000000047C1000063C1000061C100005FC1000082
:100010005DC100005BC1000059C1000057C1000074
:1000200055C1000053C100003DC700004FC1000092
:100030004DC100004BC1000049C1000047C1000094
:1000400045C1000043C1000041C100003FC10000A4
:100050003DC100003BC1000039C1000037C10000B4
:1000600035C1000033C1000031C100002FC10000C4
:100070002DC100002BC1000029C1000027C10000D4
:1000800025C1000023C1000021C100001FC10000E4
:100090001DC100001BC100001B5B33316D44657640
:1000A00020456E756D204572726F720D0A202D2DE0
:1000B000204572726F7220436F64652025640D0ABB
:1000C000202D2D20537562204572726F7220436F70
:1000D00064652025640D0A202D2D20496E2053745F
:1000E0006174652025640D0A1B5B33376D001B5B53
:1000F00033316D486F7374204D6F646520457272A3
:100100006F720D0A202D2D204572726F7220436F81
:1001100064652025640D0A1B5B33376D004344433F
:100120002044657669636520456E756D65726174FE
:1001300065642E0D0A001B5B33316D436F6E747264
:100140006F6C204572726F722028536574204C6961
:100150006E6520456E636F64696E67292E0D0A20F7
:100160002D2D204572726F7220436F64653A2025F1
:10017000640D0A1B5B33376D001B5B33316D436FBE
:100180006E74726F6C204572726F722028536574A2
:1001900020436F6E66696775726174696F6E292E90
:1001A0000D0A202D2D204572726F7220436F6465F9
:1001B0003A2025640D0A1B5B33376D00202D2D205E
:1001C0004572726F7220436F64653A2025640D0A90
:1001D0001B5B33376D001B5B33316D496E76616C91
:1001E0006964204465766963652E0D0A001B5B33E4
:1001F000316D436F6E74726F6C204572726F722036
:100200002847657420436F6E66696775726174690B
:100210006F6E292E0D0A0047657474696E6720435E
:100220006F6E66696720446174612E0D0A001B5B66
:1002300033326D0D0A44657669636520556E6174CD
:100240007461636865642E0D0A1B5B33376D001B98
:100250005B33326D44657669636520417474616314
:100260006865642E0D0A1B5B33376D001B5B3336EC
:100270006D43444320486F73742044656D6F207252
:10028000756E6E696E672E0D0A1B5B33376D00004D
:1002900011241FBECFEFD0E2DEBFCDBF11E0A0E042
:1002A000B1E0EEE1FAE100E00BBF02C007900D9271
:1002B000A032B107D9F711E0A0E2B1E001C01D9270
:1002C000A234B107E1F793D10C940D0D99CE9BB1F7
:1002D0009F70982B9BB9089584B7877F84BF28E1CE
:1002E0000FB6F89420936000109260000FBE90E06B
:1002F00080E80FB6F89480936100909361000FBE80
:1003000083E390E09093CD008093CC0086E08093CF
:10031000CA001092C8002093C900539A5A9A8AB111
:10032000806F8AB98BB18F708BB9A1D580E090E0D6
:100330000C94F6098FE492E00E945E0A80EAC7CF2F
:100340008EE292E00E945E0A80E1C1CF1F93DF93AC
:10035000CF93CDB7DEB727970FB6F894DEBF0FBEA9
:10036000CDBF87E192E00E945E0A82D1182F8823D8
:10037000C9F0813019F48DEE91E002C086ED91E074
:100380000E945E0A00D000D0EDB7FEB731962CEB8C
:1003900031E0ADB7BEB712963C932E9311971283FE
:1003A000138236C081E0D4D7882379F000D000D002
:1003B000EDB7FEB7319629E731E0ADB7BEB712967B
:1003C0003C932E9311978283EBCFDE011196E8E0E8
:1003D000F1E087E001900D928150E1F7A5E2B1E0F4
:1003E000E0E0F1E088E001900D928150E1F7109299
:1003F000A700CE010196ADD6882391F000D000D0A1
:1004000086E391E0EDB7FEB7928381831482138275
:100410000E943F0A0F900F900F900F9080E905C047
:100420008DE191E00E945E0A80E651DF27960FB6CB
:10043000F894DEBF0FBECDBFCF91DF911F9108951D
:10044000DF93CF930F92CDB7DEB78983A8D400D0C6
:1004500000D0EDB7FEB731962EEE30E0ADB7BEB7A7
:1004600012963C932E9311978981828313820E9466
:100470003F0A0F900F900F900F9080E928DFFFCF79
:1004800090912D012DB73EB7285030400FB6F8940B
:100490003EBF0FBE2DBFEDB7FEB7319628E930E065
:1004A000ADB7BEB712963C932E93119782831382F9
:1004B0006483158296831782E2D72DB73EB7285FF3
:1004C0003F4F0FB6F8943EBF0FBE2DBF80E9FFCE61
:1004D0008F929F92AF92BF92CF92DF92EF92FF9254
:1004E0000F931F93DF93CF93CDB7DEB7ADB6BEB6F4
:1004F00080912D018B3009F068C081E08093A700C6
:100500008091A9008F7B8093A9008091A60080FF35
:1005100041C08091A90080648093A9008091A600C9
:1005200085FF33C09DB68B2CC090F600D090F700AD
:10053000EDB6FEB6EC18FD080FB6F894FEBE0FBE81
:10054000EDBE0DB71EB70F5F1F4FC801B60140E0EB
:1005500050E016D3E02EF12E00E010E00BC06091C9
:100560003E0170913F01F70181917F0190E05BD7DF
:100570000F5F1F4F0C151D0590F39401832F982DCD
:100580000FB6F8949EBF0FBE8DBF8091A6008E77E8
:100590008093A6008091A90080648093A90083E0E5
:1005A0008093A7008091A9008F7B8093A900809100
:1005B000A60080FF05C08091A6008E778093A600DC
:1005C0008091A90080648093A9000FB6F894BEBE04
:1005D0000FBEADBECF91DF911F910F91FF90EF90B5
:1005E000DF90CF90BF90AF909F908F90089574DE72
:1005F0008CE692E063D780E16ADE789469DFCDD63D
:10060000FDCFFC018181843049F48581823031F451
:100610008681823019F48781813011F082E008955B
:1006200080E00895FC018181843049F485818A301D
:1006300031F48681882319F48781882311F082E0C0
:10064000089580E00895FC018181853049F483811B
:1006500090E08370907002978230910518F404C086
:10066000843021F082E0089580E0089581E00895CB
:100670006F927F928F929F92AF92BF92CF92DF92B2
:10068000EF92FF920F931F93DF93CF93CDB7DEB717
:10069000C450D2400FB6F894DEBF0FBECDBFAE013E
:1006A0004B5F5F4F5A83498383E0A82EB12CAC0E79
:1006B000BD1E81E0B50120E032E087D4853009F429
:1006C00072C0863089F0882389F4EE24FF24CC247C
:1006D000DD2400E010E0662477249A2C8B2C5E0148
:1006E0000894A11CB11C04C083E060C081E05EC01E
:1006F0006114710441F0892D982DB50143E253E056
:10070000BBD48823E1F0E114F10471F0892D982D18
:10071000B50142E153E0B0D4882309F046C0CC24AF
:10072000DD2400E010E0E4CF892D982DB50141E0F3
:1007300053E0A2D48823C9F569807A800EC0E9818C
:10074000FA81828187FF06C083818370833021F420
:100750007F0103C06F0101C08F010115110541F236
:10076000C114D10429F2E114F10409F4C1CFF80154
:100770002481358181E862E0428101E064D2F601A2
:100780002481358182E062E042815DD2F7012481DB
:10079000358183E863E0428156D2F70186818093F8
:1007A000AD0080E003C082E001C084E0CC5FDD4F9B
:1007B0000FB6F894DEBF0FBECDBFCF91DF911F9172
:1007C0000F91FF90EF90DF90CF90BF90AF909F90F0
:1007D0008F907F906F90089580919E0090E081703F
:1007E00090702091A0002D7F2093A00020919E006A
:1007F000226020939E0020919E0021FDFCCF20913D
:100800009E00216020939E00109223012091A00061
:1008100030E0207230704091A0004F7D4093A000E6
:1008200040919F004F7D40939F004AE050919F0070
:1008300055FF0BC040919F004F7D40939F0040911A
:100840009F004D7F40939F0008C0EFECF7E0319789
:10085000F1F700C00000415049F72115310529F09A
:100860002091A00020622093A000009729F480919D
:100870009E008E7F80939E008091A0008260809376
:10088000A000089540919E0050E04170507020916A
:10089000A00030E0207230709091A0009F7D909376
:1008A000A00090919F009F7D90939F0090919E004B
:1008B000916090939E0026C090919F0095FF06C086
:1008C00090919F009F7D90939F00815090912D016A
:1008D0009130D9F09091A60094FF09C01092F500D4
:1008E0008091A6008F7E8093A60082E00FC0909139
:1008F000A60091FF07C08091A6008D7F8093A6007F
:1009000083E004C08823C1F601C081E04115510590
:1009100029F490919E009E7F90939E0021153105B1
:1009200029F09091A00090629093A00008950F93F9
:100930001F93DF93CF93CDB7DEB728970FB6F89408
:10094000DEBF0FBECDBF80912D01853009F499C067
:10095000863068F48230C1F1833018F48823A1F026
:1009600004C18330D9F1843009F0FFC062C0873000
:1009700009F49EC0873008F48FC0883009F4B8C0ED
:10098000893009F0F2C0D9C00091210110912201F3
:100990000115110509F4E9C081E074DF682F88238F
:1009A00031F08091200180932D0181E0D2C001506F
:1009B000104010932201009321010115110509F047
:1009C000D4C08091200107C088EE93E0909322016B
:1009D0008093210183E080932D01C7C08091210184
:1009E000909122019C0121503040309322012093AC
:1009F0002101009739F08FEC97E00197F1F700C0E3
:100A00000000B3C077988091D80080618093D800AF
:100A10008091DD008B7F8093DD008091D700806125
:100A20008093D7008091DD0082608093DD0084E0B8
:100A3000D2CF80919F0080FF98C080919F008E7FD1
:100A400080939F0080919F008D7F80939F00809175
:100A5000DF008D7F8093DF008091DE0082608093D5
:100A6000DE0080919E00816080939E0053D11092A1
:100A70002D0184E690E0909322018093210185E08E
:100A800059C0AADE10922D0188EC90E090932201CB
:100A90008093210186E04EC080E060E040E020E4E9
:100AA00030E001E0D0D0882309F44FC087E093CF35
:100AB000A5E2B1E0E7E1F1E088E001900D9281501C
:100AC000E1F71092A700CE01019643D3682F882347
:100AD00009F03EC0888580931F017EDE10922D01B3
:100AE00088EC90E0909322018093210188E022C05D
:100AF00020911F0180E060E040E030E001E0A3D001
:100B0000882319F1A5E2B1E0EFE0F1E088E001907F
:100B10000D928150E1F780E090E01BD3682F88238D
:100B2000B9F410922D0184E690E090932201809315
:100B3000210189E08093200118C081E08093A10009
:100B40008AE080932D0102DC10C060E084E001C0E7
:100B500083E090912D01913041F092DC8091DD0095
:100B600081608093DD00ECDB32D128960FB6F894DB
:100B7000DEBF0FBECDBFCF91DF911F910F910895C2
:100B80008F929F92BF92CF92DF92EF92FF920F933C
:100B90001F93DF93CF930F92CDB7DEB7E82E4B01B3
:100BA0008A018091AA008F7C80618093AA0099833A
:100BB000C7D0B82E99818823C1F5F92E01151105EA
:100BC00039F0F80120813181821A930AE20EF31E76
:100BD000CC24DD2425C08091A60085FD16C080911F
:100BE000A6008E778093A6000115110551F0F8013B
:100BF000808191818C0D9D1D9183808344E0B42E72
:100C000014C09ED0882361F00FC08091AF00F7011F
:100C100081937F010894810891080894C11CD11C1C
:100C200081149104C1F601C0B82E8B2D0F90CF9185
:100C3000DF911F910F91FF90EF90DF90CF90BF90C9
:100C40009F908F9008950F93582F5F7087FF02C079
:100C500080E101C080E2573008F059C0662309F4F2
:100C600080E04F706295660F660F607C642B682B86
:100C7000452F0260842F8F708093A7004517A1F441
:100C800088E090E070E003C07F5F880F991F8217B3
:100C9000930710F47530C1F7872F8295807F802BE2
:100CA000F62F70E0E0E008C0F091AA008091AB0060
:100CB000E091AD007091AE0081FF20C09091A9003D
:100CC0009E7F9093A9009091AB009D7F9093AB0085
:100CD0009091A90091609093A900F093AA0080934D
:100CE000AB00E093AD007093AE008091A9008062EC
:100CF0008093A9008091AC0087FF09C04F5F473007
:100D000009F0B8CF5F705093A70081E001C080E088
:100D10000F9108951092F80080E0982F9F709093A3
:100D2000A7001092AE001092A6001092AB00909116
:100D3000A9009E7F9093A9008F5F873071F7089577
:100D40008091A2009091A30044E62091AA00207314
:100D5000203129F42091A60020FF05C018C0209161
:100D6000A60022FD14C02091A60021FD12C02091F2
:100D70002D01213081F02091A2003091A30028178D
:100D8000390719F3442349F04150C901DECF80E00F
:100D9000089581E0089582E0089583E0089575D074
:100DA0007CD0E0EEF0E0808181608083E8EDF0E0CF
:100DB00080818F77808319BCA7EDB0E08C918E7F06
:100DC0008C9380818F7E80831092240108955DD062
:100DD00064D08091D8008F778093D8008091D8001C
:100DE00080688093D8008091D8008F7D8093D80050
:100DF0008091D7008F778093D7008CE089BD8EE0FB
:100E000089BD09B400FEFDCF81E080932D011092D1
:100E1000230180E480931F018091D8008064809337
:100E2000D8008091DD0081608093DD008091DD003D
:100E300084608093DD008091D7008F7E8093D700FF
:100E40006F9A779A8091DE0081608093DE008091B6
:100E5000DE0084608093DE008091E0008E7F8093CE
:100E6000E0008091D80080618093D8000895E8ED7B
:100E7000F0E080818F7E8083E7EDF0E0808181600B
:100E8000808381E080932401A2CFE8EDF0E08081AF
:100E90008C7F80831092A00008951092DA00109247
:100EA0009F0008951F920F920FB60F920BB60F92EC
:100EB00011242F933F934F935F936F937F938F935F
:100EC0009F93AF93BF93EF93FF9380919F0085FF14
:100ED0000AC08091A00085FF06C080919F008F7D91
:100EE00080939F000CD180919F0081FF15C080915D
:100EF000A00081FF11C080919F008D7F80939F0093
:100F000080919F008E7F80939F008091A0008D7FB5
:100F10008093A00015DA5BDF8091DF0081FF15C0B0
:100F20008091DE0081FF11C08091DF008D7F809372
:100F3000DF0077988091DD0081608093DD0080E0A4
:100F40007FDAFED981E080932D018091DF0080FF60
:100F500017C08091DE0080FF13C08091DF008E7F7C
:100F60008093DF008091DE008E7F8093DE00E2D9E7
:100F70008091A00082608093A00082E080932D0188
:100F80008091DF0082FF0EC08091DE0082FF0AC0E8
:100F90008091DF008B7F8093DF0082E060E070DA79
:100FA000CFD915DFFF91EF91BF91AF919F918F91B5
:100FB0007F916F915F914F913F912F910F900BBE59
:100FC0000F900FBE0F901F901895CF92DF92EF9267
:100FD000FF920F931F93DF93CF93CDB7DEB729977F
:100FE0000FB6F894DEBF0FBECDBF6B018A01790149
:100FF00090E89093250196E09093260190E0019768
:101000009260909328018093270110922A011092F8
:10101000290189E090E090932C0180932B0110929C
:10102000A700CE01019695D08823B9F48B819C81CD
:10103000F60191838083E816F90670F090932C01F5
:1010400080932B01C80185D0882339F4F801918160
:10105000923019F086E001C085E029960FB6F89429
:10106000DEBF0FBECDBFCF91DF911F910F91FF90DB
:10107000EF90DF90CF900895AF92BF92CF92DF9222
:10108000EF92FF920F931F93CF93DF938C01EB01AD
:101090006A0123C0E881F9815F01208130E0C70146
:1010A0002E153F0508F4C901E80FF91FF983E883FD
:1010B000F80120813181281B390B318320838881FD
:1010C0009981F6010995823041F0813069F4A88256
:1010D000B982F801F182E08207C0F801E080F18076
:1010E000E114F104B9F682E0DF91CF911F910F91E5
:1010F000FF90EF90DF90CF90BF90AF90089508954C
:101100001F93CF93DF93182FC8EED3E007C081E081
:10111000B9DB8823D1F42097B9F02197112329F462
:101120008091A60083FFF3CF0DC0113029F4809188
:10113000A60080FFECCF06C0123049F78091A600D0
:1011400082FFE5CF80E001C084E0DF91CF911F9165
:101150000895EF92FF920F931F93CF93DF938C012B
:10116000E0909E00FF2481E0E822FF24C0912B0143
:10117000D0912C0180919E00816080939E0081E03F
:1011800081DB882309F0CBC08091AA008F7C8093FB
:10119000AA001092F5008091A6008F7E8093A60091
:1011A0008091A9008F7B8093A900E5E2F1E0819115
:1011B0008093AF0081E0ED32F807C9F78091A60077
:1011C00087778093A60080E09BDF882309F0A7C083
:1011D0008091A90080648093A90081E053DB88237B
:1011E00009F09DC08091250187FF4FC08091AA0022
:1011F0008F7C80618093AA000115110561F52DC0D7
:101200008091A9008F7B8093A90081E079DF8823FA
:1012100009F085C08091F6009091F700009749F49D
:10122000C0E0D0E006C08091AF00F80181938F014B
:1012300021978091F6009091F700009711F0209788
:1012400091F78091A90080648093A9008091A60005
:101250008E778093A600209799F68091AA008F7CC4
:1012600080628093AA008091A9008F7B8093A9005F
:1012700082E046DF882309F052C08091A6008B7778
:101280008093A60082E03CDF4AC00115110599F168
:101290008091AA008F7C80628093AA008091A9002F
:1012A0008F7B8093A9001CC082E02ADF8823B9F5D8
:1012B000F80106C081918F018093AF00219759F00A
:1012C0008F012091F6003091F70080911F0190E08E
:1012D0002817390778F38091A6008B778093A600B2
:1012E000209711F782E00CDF8823C9F48091A900D0
:1012F00080648093A9008091AA008F7C8061809394
:10130000AA008091A9008F7B8093A90081E0F8DE7C
:10131000882329F49091A6009E779093A60090913F
:10132000A90090649093A900E114F10429F490912C
:101330009E009E7F90939E0091E09093A800109253
:10134000A800DF91CF911F910F91FF90EF9008952A
:101350001F93182F1092250189E080932601109386
:1013600027011092280110922A011092290110924F
:101370002C0110922B011092A70080E090E0E9DE92
:10138000882349F410932301112311F09BE001C03D
:101390009AE090932D011F9108951F931091A7003B
:1013A0001F708091AA001092A700C1DA1093A700C5
:1013B0001F9108959091C80095FFFCCF8093CE00B7
:1013C00080E090E008958091C80087FF08C0809178
:1013D000C80087FF07C02091CE0030E005C02EEF87
:1013E0003FEF02C02FEF3FEFC9010895FC010097C6
:1013F00051F4EEE2F1E0F0933D01E0933C01F09313
:101400003F01E0933E018EE0DF011D928A95E9F7EE
:1014100083E083838AED99E09187808783EE99E06A
:101420009387828708950F931F93CF93DF938C0147
:10143000EB018B8181FF1BC082FF0DC02E813F819C
:101440008C819D812817390764F4E881F981019323
:10145000F983E88306C0E885F985802F0995009710
:1014600031F48E819F8101969F838E8302C00FEF9E
:101470001FEFC801DF91CF911F910F910895DF9366
:10148000CF93CDB7DEB7FE01359661917191809112
:101490003E0190913F01DC0113962C911397286037
:1014A00013962C93AF0142D0E0913E01F0913F01A1
:1014B0002381277F2383CF91DF910895EF92FF92BD
:1014C0000F931F93CF93DF938C01E0913E01F09136
:1014D0003F01838181FF20C0C0E0D0E00CC0DB0170
:1014E0001896ED91FC9119970995009711F0CFEF9F
:1014F000DFEF0F5F1F4FF801849160913E01709103
:101500003F01882361F7DB011896ED91FC91199753
:101510008AE00995009711F0CFEFDFEFCE01DF9160
:10152000CF911F910F91FF90EF9008952F923F92CE
:101530004F925F926F927F928F929F92AF92BF92E3
:10154000CF92DF92EF92FF920F931F93DF93CF938F
:10155000CDB7DEB72C970FB6F894DEBF0FBECDBF68
:101560006C011B018A01FC0117821682838181FFB5
:10157000C4C12E010894411C511CF6019381F10154
:1015800093FD859193FF81911F01882309F4B1C1D7
:10159000853239F493FD859193FF81911F01853246
:1015A00021F490E0B6013FDFE8CFEE24FF2420E0F5
:1015B0002032B0F48B3269F08C3228F4803251F052
:1015C000833271F40BC08D3239F0803349F42160DD
:1015D0002CC02260246029C0286027C0206125C05B
:1015E00027FD2CC0382F30533A3098F426FF08C01E
:1015F0008E2D880FE82EEE0CEE0CE80EE30E15C0D3
:101600008F2D880FF82EFF0CFF0CF80EF30E2062C2
:101610000CC08E3221F426FD6CC1206406C08C36CD
:1016200011F4206802C0883649F4F10193FD8591D8
:1016300093FF81911F01882309F0BACF982F955409
:10164000933018F09052933028F40C5F1F4FFFE353
:10165000F9830DC0833631F0833771F0833509F09B
:101660005CC021C0F801808189830E5F1F4F420159
:1016700071E0A72EB12C15C062E0662E712C600EB1
:10168000711EF8018080918026FF03C06E2D70E0EE
:1016900002C06FEF7FEFC4012C8756D15C0183013C
:1016A0002C852F7716C052E0652E712C600E711EAE
:1016B000F8018080918026FF03C06E2D70E002C08B
:1016C0006FEF7FEFC4012C8734D15C012C8520683B
:1016D000830123FD1EC007C080E290E0B6012C8785
:1016E000A2DEFA942C858F2D90E0A816B906A0F3FF
:1016F00010C0F40127FD859127FF81914F0190E0F3
:10170000B6012C8790DE2C85F110FA940894A1087C
:10171000B108A114B10469F7E9C0843611F0893623
:1017200041F527FF08C0F8016081718182819381B2
:101730000C5F1F4F09C0F80160817181882777FD18
:101740008095982F0E5F1F4F4FE6B42EB22297FF61
:1017500009C090958095709561957F4F8F4F9F4FF1
:10176000F0E8BF2AA2012AE030E0F9D0782E741800
:1017700044C0853731F43FEEB32EB2222AE030E088
:1017800025C099EFB92EB2228F36C1F0803720F4F0
:10179000883509F0AEC00DC0803721F0883709F0D8
:1017A000A8C002C020E1B22AB4FE0BC084E0B82A6F
:1017B00008C0B4FE09C0E6E0BE2A06C028E030E05A
:1017C00005C020E130E002C020E132E0B7FE08C0F1
:1017D000F80160817181828193810C5F1F4F07C086
:1017E000F8016081718180E090E00E5F1F4FA201DF
:1017F000B6D0782E7418FFE7BF22B6FE0BC02EEFCE
:10180000B2227E1438F4B4FE07C0B2FC05C08FEEDD
:10181000B82202C0A72C01C0AE2C8B2D90E0B4FEE4
:101820000DC0FE01E70DF11D2081203319F4E9EE12
:10183000BE2209C0A394B2FE06C004C08678907090
:10184000009709F0A3948B2C9924B3FC13C0B0FE2D
:101850000EC0AF1428F4E72CEF0CEA18AF2C07C029
:10186000E72C05C080E290E0B601DDDDA394AF1463
:10187000C8F304C0AF1410F4FA1801C0FF2484FEAA
:101880000EC080E390E0B601CEDD82FE1DC081FE79
:1018900003C088E590E010C088E790E00DC0C40167
:1018A00086789070009781F081FC02C080E201C0D0
:1018B0008BE2B7FC8DE290E0B601B5DD05C080E3B8
:1018C00090E0B601B0DDEA947E14C8F37A94F20198
:1018D000E70DF11D808190E0B601A5DD7720B1F71D
:1018E00005C080E290E0B6019EDDFA94FF20C9F7C2
:1018F00044CEF6012681378102C02FEF3FEFC901A8
:101900002C960FB6F894DEBF0FBECDBFCF91DF91FE
:101910001F910F91FF90EF90DF90CF90BF90AF900D
:101920009F908F907F906F905F904F903F902F90FF
:101930000895FC010590615070400110D8F7809522
:1019400090958E0F9F1F0895FC016150704001908B
:101950000110D8F7809590958E0F9F1F0895FA017A
:10196000AA27283051F1203181F1E8946F936E7FDE
:101970006E5F7F4F8F4F9F4FAF4FB1E03ED0B4E0CF
:101980003CD0670F781F891F9A1FA11D680F791F10
:101990008A1F911DA11D6A0F711D811D911DA11D21
:1019A00020D009F468943F912AE0269F1124301931
:1019B000305D3193DEF6CF010895462F4770405DCC
:1019C0004193B3E00FD0C9F7F6CF462F4F70405D7B
:1019D0004A3318F0495D31FD4052419302D0A9F7D6
:1019E000EACFB4E0A6959795879577956795BA95D0
:1019F000C9F700976105710508959B01AC010A2E96
:101A000006945795479537952795BA95C9F7620F6C
:0E1A1000731F841F951FA01D0895F894FFCF2B
:101A1E0021200000000007008025000000000800C3
:101A2E0005010000000000800600010000080040D3
:00000001FF
