:1000000091C00000ACC00000AAC00000A8C0000061
:10001000A6C00000A4C00000A2C00000A0C0000054
:100020009EC000009CC0000033C30000FEC300005F
:1000300096C0000094C0000092C0000090C0000074
:100040008EC000008CC000008AC0000088C0000084
:1000500086C0000084C0000082C0000080C0000094
:100060007EC000007CC000007AC0000078C00000A4
:1000700076C0000074C0000072C0000070C00000B4
:100080006EC000006CC000006AC0000068C00000C4
:1000900066C0000064C000001201100102000008E8
:1000A000EB03442001000102DC0109023E000201D1
:1000B00000C0320904000001020201000524001002
:1000C0000104240206052406000107058203080036
:1000D000FF09040100020A000000070504021000E5
:1000E00005070583021000050403090418034400F2
:1000F000650061006E002000430061006D00650036
:100100007200610000001C034C00550046004100D5
:1001100020004300440043002000440065006D00BF
:100120006F00000011241FBECFEFD0E2DEBFCDBFB5
:1001300011E0A0E0B1E0E6E4FFE000E00BBF02C0A8
:1001400007900D92AE36B107D9F711E0AEE6B1E0F7
:1001500001C01D92AA38B107E1F75FD0F2C650CFB7
:100160009BB19F70982B9BB9089584B7877F84BFFC
:1001700088E10FB6F89480936000109260000FBE83
:1001800090E080E80FB6F89480936100909361004E
:100190000FBE84B18F7184B98DB18F7C8DB985B15B
:1001A000806E85B98EB180638EB98AB1806F8AB94D
:1001B0008BB18F708BB951C223B18CB1809590E017
:1001C00080739070959587952095207E282B27FD2C
:1001D0000BC024FD0CC026FD0DC023FD0EC025FD67
:1001E0000FC010927C01089580E091E00BC08EE07A
:1001F00091E008C08EE191E005C08EE291E002C07E
:100200008FE391E020917C01222331F421E02093BF
:100210007C016EE671E06FC60895A7DF82E591E08C
:100220006EE671E054D680E19BDF7894C5DF82E50D
:1002300091E010D682E591E0F5D59AD4F7CF80EA27
:100240008FCF80E18DCF82E591E05BD580FF02C04A
:1002500080E601C080E984CF82E591E0A5C49230B8
:1002600029F0933041F09130E9F417C02EE330E0EB
:10027000EAEAF0E01BC0813041F0813018F08230B2
:1002800089F406C0E8EEF0E005C0ECEEF0E002C054
:10029000E6E0F1E0249130E009C022E130E0E8E955
:1002A000F0E004C020E030E0E0E0F0E0DA01119698
:1002B000FC93EE93C9010895282F392FF9018091FD
:1002C0008801909189018617970718F4BC0120E0F6
:1002D00037C061157105D9F78091E8008E7780935A
:1002E000E800F5CF80918101882309F43FC0853073
:1002F000C9F18091E80083FD37C08091E80082FD5C
:100300002BC08091E80080FF1BC08091F20090918B
:10031000F30006C021912093F100615070400196D6
:100320006115710519F088309105A0F321E088303E
:10033000910509F020E08091E8008E778093E80035
:100340006115710579F6222369F606C08091810155
:10035000882361F0853061F08091E80082FFF6CF5C
:1003600080E0089583E0089581E0089582E0089593
:1003700083E00895E82FF92F8091880190918901F9
:100380008617970718F4BC0120E038C06115710585
:10039000D9F78091E8008E778093E800F5CF8091BF
:1003A0008101882309F440C08530D1F18091E800B3
:1003B00083FD38C08091E80082FD2CC08091E80068
:1003C00080FF1CC08091F2009091F30007C024913F
:1003D0002093F100319661507040019661157105CE
:1003E00019F08830910598F321E08830910509F0E3
:1003F00020E08091E8008E778093E8006115710518
:1004000071F6222361F606C080918101882361F094
:10041000853061F08091E80082FFF6CF80E008959A
:1004200083E0089581E0089582E0089583E00895CF
:10043000982F2CC0292F2F702093E900981739F09E
:100440007091EC002091ED005091F00003C0242F3A
:10045000762F50E021FF19C03091EB003E7F3093A2
:10046000EB003091ED003D7F3093ED003091EB00DB
:1004700031603093EB007093EC002093ED005093CB
:10048000F0002091EE0027FF08C09F5F973090F2A8
:100490008F708093E90081E0089580E00895EF92E5
:1004A000FF920F931F93CF93DF93162FE82EE70150
:1004B0007E01F92EE70100E02AC09881992329F1F5
:1004C0006B81E981FA812C81892F8F70873018F533
:1004D0006295660F660F607C991F9927991F692B9B
:1004E000223010F096E001C092E028E030E040E0D9
:1004F00003C04F5F220F331F2E173F07D0F34295E3
:10050000407F492B95DF882331F00F5F2596011737
:10051000A0F281E001C080E0DF91CF911F910F91A7
:10052000FF90EF9008958091820187FF13C004C06F
:10053000809181018823B9F08091E80082FFF8CF93
:100540008091E8008B778093E80008958091810185
:10055000882349F08091E80080FFF8CF8091E8007F
:100560008E778093E80008958091E4009091E500F3
:1005700044E62091EC0020FF26C02091E80020FDF9
:1005800016C0209181012223A1F02530A1F02091F5
:10059000EB0025FD12C02091E4003091E500281702
:1005A000390739F3442359F04150C901E2CF80E0C3
:1005B000089582E0089583E0089581E0089584E03D
:1005C000089580E008952091E80022FFDACFF9CF66
:1005D0000F931F93CF93DF934ED055D0C8EDD0E04B
:1005E00088818F77888388818068888388818F7DE0
:1005F0008883E7EDF0E080818068808319BC1092E9
:10060000810110927D0110927F0110927E0100EE17
:1006100010E0F80180818B7F8083888181608883EE
:1006200080E060E042E004DFE1EEF0E080818E7F78
:100630008083E2EEF0E08081816080838081886049
:100640008083F80180818E7F8083888180618883A8
:10065000DF91CF911F910F910895E8EDF0E0808137
:100660008F7E8083E7EDF0E080818160808381E090
:1006700080938001ADCFE8EDF0E080818C7F8083B6
:100680001092E20008951092DA001092E1000895AD
:100690001F920F920FB60F920BB60F9211242F9349
:1006A0003F934F935F936F937F938F939F93AF93FA
:1006B000BF93EF93FF938091E10082FF0AC0809186
:1006C000E20082FF06C08091E1008B7F8093E10011
:1006D0004ED28091DA0080FF1DC08091D80080FF4B
:1006E00019C08091DA008E7F8093DA008091D90062
:1006F00080FF0CC08CE089BD8EE089BD09B400FE8E
:10070000FDCF81E0809381019ADD04C019BC109275
:10071000810197DD8091E10080FF18C08091E200A7
:1007200080FF14C08091E2008E7F8093E200809170
:10073000E20080618093E2008091D8008062809323
:10074000D80019BC85E08093810111D28091E1002D
:1007500084FF2DC08091E20084FF29C08CE089BD18
:100760008EE089BD09B400FEFDCF8091D8008F7D59
:100770008093D8008091E1008F7E8093E10080918A
:10078000E2008F7E8093E2008091E200816080939E
:10079000E20080917D01882321F48091E30087FFAE
:1007A00002C084E001C081E080938101E0D18091AA
:1007B000E10083FF27C08091E20083FF23C0809186
:1007C000E100877F8093E10082E0809381011092B5
:1007D0007D018091E1008E7F8093E1008091E200B5
:1007E0008E7F8093E2008091E20080618093E2003E
:1007F00080E060E042E01CDE8091F0008860809341
:10080000F000B5D1FF91EF91BF91AF919F918F9182
:100810007F916F915F914F913F912F910F900BBE00
:100820000F900FBE0F901F9018951F920F920FB64A
:100830000F920BB60F9211241F932F933F934F9358
:100840005F936F937F938F939F93AF93BF93EF9338
:10085000FF931091E9001F708091EC001092E90065
:100860008091F000877F8093F00078941DD01092E3
:10087000E9008091F00088608093F0001093E90017
:10088000FF91EF91BF91AF919F918F917F916F9168
:100890005F914F913F912F911F910F900BBE0F9041
:1008A0000FBE0F901F9018951F93DF93CF93CDB776
:1008B000DEB7AC970FB6F894DEBF0FBECDBFE2E84F
:1008C000F1E08091F100819321E0EA38F207C9F765
:1008D000C3DC8091E80083FF32C1809182012091C6
:1008E0008301253009F484C0263040F42130A1F181
:1008F000213070F0233009F022C12EC0283009F4D5
:10090000F0C0293009F4FFC0263009F018C193C0A7
:10091000803821F0823809F012C108C080917E0130
:1009200090917F01992371F082600CC080918601C3
:100930008F708093E9009091EB0081E095FF80E05B
:100940001092E9009091E800977F9093E8008093DF
:10095000F1001092F100D0C0882319F0823009F024
:10096000EEC090E08F719070009729F08230910571
:1009700009F0E5C00BC080918401813009F0DFC02F
:10098000233009F080E080937F012CC080918401A6
:10099000882341F5209186012F7009F4D0C020935F
:1009A000E9008091EB0080FF1DC0809183018330BE
:1009B00021F48091EB00806213C08091EB00806194
:1009C0008093EB0081E090E002C0880F991F2A9588
:1009D000E2F78093EA001092EA008091EB008860D1
:1009E0008093EB001092E9008091E800877F87C038
:1009F000882309F0A4C0109184011F778091E3003F
:100A00008078812B8093E3008091E800877F80933A
:100A1000E80089DD8091E80080FFFCCF8091E30051
:100A200080688093E300112311F083E001C082E02D
:100A30008093810184C08058823008F080C080910A
:100A400084019091850123E08C3D920791F583E02C
:100A50008C838AE28B835FB7F894DE01159680E081
:100A600090E04EE061E2E42FF0E060935700E49103
:100A700080FF03C0E295EF704F5FEF702E2F30E0E4
:100A8000EA3018F0295C3F4F02C0205D3F4F2D93A4
:100A90003D9301968431910531F75FBF8091E80065
:100AA000877F8093E800CE0103966AE270E004DC61
:100AB00012C060918601AE014F5F5F4FD0DBBC0179
:100AC000009709F43CC08091E800877F8093E8009C
:100AD00089819A814FDC8091E8008B778093E800D0
:100AE0002EC0803861F58091E800877F8093E80010
:100AF00080917D018093F1008091E8008E77809352
:100B0000E80011DD1CC08823D1F49091840192305B
:100B1000B0F48091E800877F8093E80090937D0196
:100B200002DD80917D01882321F48091E30087FF1D
:100B300002C084E001C081E08093810184DB809168
:100B4000E80083FF0AC08091E800877F8093E80077
:100B50008091EB0080628093EB00AC960FB6F89426
:100B6000DEBF0FBECDBFCF91DF911F9108950895D5
:100B70001F93809181018823A9F08091E9008F70F3
:100B80009091EC0090FF02C010E801C010E0182B1B
:100B90001092E9008091E80083FF01C085DE1F709C
:100BA0001093E9001F910895CF93DF93EC0180919A
:100BB000E80083FFA3C0888190E0209186013091F6
:100BC00087012817390709F099C080918301813284
:100BD00069F0823220F4803209F090C03CC0823249
:100BE00009F46BC0833209F089C07AC08091820118
:100BF000813A09F083C08091E800877F8093E80004
:100C00008091E80080FFFCCF8C899D89AE89BF89E7
:100C10008093F100292F3A2F4B2F55272093F10075
:100C20009D01442755272093F1008B2F9927AA2750
:100C3000BB278093F100888D8093F100898D80938C
:100C4000F1008A8D8093F1008091E8008E77809387
:100C5000E80069DC53C080918201813209F04EC006
:100C60008091E800877F8093E80005C08091810132
:100C7000882309F443C08091E80082FFF7CF3091C8
:100C8000F1002091F1009091F1008091F1003C8BF6
:100C90002D8B9E8B8F8B8091F100888F8091F1003E
:100CA000898F8091F1008A8F8091E8008B77809303
:100CB000E80039DCCE011ED121C080918201813251
:100CC000E9F48091E800877F8093E8002CDC809134
:100CD000840190918501998B888BCE010BD10EC038
:100CE00080918201813251F48091E800877F809366
:100CF000E80019DCCE0160918401FCD0DF91CF9136
:100D00000895CF93DF93EC014096FC018BE0DF0167
:100D10001D928A95E9F782E08C83898783E08E872C
:100D2000CE01019661E0BBDB882359F0CE01069627
:100D300061E0B5DB882329F0CE010B9661E0AFDBE3
:100D400001C080E0DF91CF910895DF93CF930F92A0
:100D5000CDB7DEB7FC01809181018430F9F424899C
:100D60003589468957892115310541055105B1F06D
:100D700081818F708093E9008091E80085FD0AC031
:100D80008091E8008E778093E8006983EDDB6981CC
:100D9000882329F46093F10080E001C082E00F9085
:100DA000CF91DF910895282FFB0184859585622FCF
:100DB000CCDF882319F02FEF3FEF02C020E030E0B6
:100DC000C9010895FC0180918101843029F52489AD
:100DD0003589468957892115310541055105E1F0CD
:100DE00081818F708093E9008091F2009091F300EF
:100DF0000097A1F09091E8008091E8008E778093B1
:100E0000E80095FD0DC0B0DB882359F49091E8000F
:100E10009E779093E800089582E0089580E0089519
:100E200080E0089520918101243099F4FC01248907
:100E3000358946895789211531054105510549F004
:100E400021812F702093E9002091E80020FF01C04C
:100E5000B9CF0895FC0180918101843049F524893E
:100E6000358946895789211531054105510501F11B
:100E700086818F708093E9008091E80082FF18C01E
:100E80008091F2009091F300009721F02091F10001
:100E900030E002C02FEF3FEF8091F2009091F3001D
:100EA000009741F48091E8008B778093E80002C0BE
:100EB0002FEF3FEFC9010895FC0184859585CADFB6
:100EC0009C0197FF02C02EEF3FEFC9010895FB017F
:100ED0002EE0DB011D922A95E9F723E0238323ED21
:100EE00036E0318720872CE537E0338722879587E6
:100EF000848708950895EF92FF920F931F93CF93E5
:100F0000DF937C01EB018B8181FF11C000E010E0D9
:100F100008C0E885F985BE010995009711F00FEF2B
:100F20001FEFF70181917F01882399F702C00FEF2E
:100F30001FEFC801DF91CF911F910F91FF90EF90AC
:060F40000895F894FFCFB4
:100F46004A6F79737469636B2055700D0A004A6F96
:100F560079737469636B20446F776E0D0A004A6F6C
:100F660079737469636B204C6566740D0A004A6F69
:100F760079737469636B2052696768740D0A004A55
:100F86006F79737469636B20507265737365640D52
:100F96000A0000831000000104100000018208000E
:0E0FA60000010000000000000000000000003C
:00000001FF
