:100000001AC1000036C1000034C1000032C1000036
:1000100030C100002EC100002CC100002AC1000028
:1000200028C1000026C100004BC6000022C100000C
:1000300020C100001EC100001CC100001AC1000048
:1000400018C1000016C1000014C1000012C1000058
:1000500010C100000EC100000CC100000AC1000068
:1000600008C1000006C1000004C1000002C1000078
:1000700000C10000FEC00000FCC00000FAC000008B
:10008000F8C00000F6C00000F4C00000F2C000009C
:10009000F0C00000EEC000001B5B33316D4465769C
:1000A00020456E756D204572726F720D0A202D2DE0
:1000B000204572726F7220436F64652025640D0ABB
:1000C000202D2D20537562204572726F7220436F70
:1000D00064652025640D0A202D2D20496E2053745F
:1000E0006174652025640D0A1B5B33376D001B5B53
:1000F00033316D486F7374204D6F646520457272A3
:100100006F720D0A202D2D204572726F7220436F81
:1001100064652025640D0A1B5B33376D004D6F75D8
:10012000736520456E756D6572617465642E0D0A88
:1001300000436F756C64206E6F74205365742042A9
:100140006F6F742050726F746F636F6C204D6F64AB
:10015000652E0D0A004572726F72205365747469C2
:100160006E672044657669636520436F6E666967D4
:1001700075726174696F6E2E0D0A0041747461634B
:1001800068656420446576696365204E6F742061FC
:100190002056616C6964204D6F7573652E0D0A00E1
:1001A0004572726F722052657472696576696E6706
:1001B00020436F6E66696775726174696F6E204463
:1001C000657363726970746F722E0D0A000D0A44B4
:1001D000657669636520556E6174746163686564F2
:1001E0002E0D0A004465766963652041747461636D
:1001F0006865642E0D0A0064583A253264206459FB
:100200003A25326420427574746F6E3A25640D0A83
:10021000001B5B33366D4D6F75736520486F7374CB
:100220002044656D6F2072756E6E696E672E0D0AC3
:100230001B5B33376D0011241FBECFEFD0E2DEBF52
:10024000CDBF11E0A0E0B1E0E6E5FBE100E00BBFCF
:1002500002C007900D92A832B107D9F711E0A8E2C9
:10026000B1E001C01D92AA34B107E1F797D00C9418
:10027000A90DC6CE9BB19F70982B9BB9089584B7EA
:10028000877F84BF28E10FB6F89420936000109216
:1002900060000FBE90E080E80FB6F8948093610094
:1002A000909361000FBE83E390E09093CD00809324
:1002B000CC0086E08093CA001092C8002093C90049
:1002C000539A5A9A8AB1806F8AB98BB18F708BB961
:1002D000DCD480E090E00C94920ADF93CF9300D0BE
:1002E0000F92CDB7DEB7809135018B3009F050C049
:1002F00080E091E00E942F0A882309F449C080E041
:1003000091E0BE016F5F7F4F0E94E5092DB73EB7B8
:10031000285030400FB6F8943EBF0FBE2DBFEDB74A
:10032000FEB7319687EF91E0ADB7BEB712969C93BA
:100330008E9311978A81992787FD90959383828365
:100340008B81992787FD9095958384838981868306
:1003500017820E94AF0A8A812DB73EB7285F3F4FB0
:100360000FB6F8943EBF0FBE2DBF18161CF08823A1
:1003700021F002C080E101C080E29B81191614F4D3
:10038000806802C0911180649981911180EF72DFC1
:100390000F900F900F90CF91DF91089570DF81E162
:1003A00092E00E94CE0A80E165DF789496DF03D761
:1003B000FDCF84EE91E00E94CE0A80EA5BCF8DEC07
:1003C00091E00E94CE0A80E155CF0F931F93DF93F7
:1003D000CF93CDB7DEB7C250D2400FB6F894DEBF90
:1003E0000FBECDBF80EA46DF8E010D5F1F4F81E05B
:1003F000BE016F5F7F4FA80120E032E0F4D4882374
:1004000019F080EA91E011C069817A8180E091E081
:10041000A80106D7882319F08BE791E006C081E098
:10042000A5D6882331F085E591E00E94CE0A80E9C7
:1004300014C080E091E00E944D0A882349F081E3D6
:1004400091E00E94CE0A80E915DF80E08FD606C0D9
:100450008DE191E00E94CE0A80E60CDFCE5FDD4F99
:100460000FB6F894DEBF0FBECDBFCF91DF911F91C5
:100470000F910895DF93CF930F92CDB7DEB78983A5
:100480009CD300D000D0EDB7FEB731962EEE30E011
:10049000ADB7BEB712963C932E9311978981828394
:1004A00013820E94AF0A0F900F900F900F9080E977
:1004B000E1DEFFCF909135012DB73EB72850304097
:1004C0000FB6F8943EBF0FBE2DBFEDB7FEB7319605
:1004D00028E930E0ADB7BEB712963C932E93119742
:1004E0008283138264831582968317820E94AF0AE7
:1004F0002DB73EB7285F3F4F0FB6F8943EBF0FBEF3
:100500002DBF80E9B7CEE42FF0E0EE0FFF1FEF56CE
:10051000FC4FE80FF91F80579C4F4AE02081318142
:10052000DC015C91561791F4A9014770507081E08D
:1005300090E04115510511F480E090E043E03695DC
:1005400027954A95E1F7280F391F07C04150379684
:100550000796442319F720E030E0C90108958091FF
:100560009E0090E0817090702091A0002D7F2093DC
:10057000A00020919E00226020939E0020919E006A
:1005800021FDFCCF20919E00216020939E001092BF
:100590002B012091A00030E0207230704091A0002B
:1005A0004F7D4093A00040919F004F7D40939F005E
:1005B0004AE050919F0055FF0BC040919F004F7D36
:1005C00040939F0040919F004D7F40939F0008C043
:1005D000EFECF7E03197F1F700C00000415049F728
:1005E0002115310529F02091A00020622093A00060
:1005F000009729F480919E008E7F80939E008091C9
:10060000A00082608093A000089540919E0050E079
:10061000417050702091A00030E0207230709091B5
:10062000A0009F7D9093A00090919F009F7D90934C
:100630009F0090919E00916090939E0026C09091A3
:100640009F0095FF06C090919F009F7D90939F0013
:100650008150909135019130D9F09091A60094FF8E
:1006600009C01092F5008091A6008F7E8093A600AD
:1006700082E00FC09091A60091FF07C08091A60074
:100680008D7F8093A60083E004C08823C1F601C05B
:1006900081E04115510529F490919E009E7F909331
:1006A0009E002115310529F09091A0009062909351
:1006B000A00008950F931F93DF93CF93CDB7DEB7BC
:1006C00028970FB6F894DEBF0FBECDBF80913501DD
:1006D000853009F499C0863068F48230C1F18330E6
:1006E00018F48823A1F004C18330D9F1843009F0D3
:1006F000FFC062C0873009F49EC0873008F48FC005
:10070000883009F4B8C0893009F0F2C0D9C000912E
:10071000290110912A010115110509F4E9C081E0B0
:1007200074DF682F882331F0809128018093350190
:1007300081E0D2C00150104010932A01009329019A
:100740000115110509F0D4C08091280107C088EE79
:1007500093E090932A018093290183E080933501EF
:10076000C7C08091290190912A019C0121503040FD
:1007700030932A0120932901009739F08FEC97E0FC
:100780000197F1F700C00000B3C077988091D800BE
:1007900080618093D8008091DD008B7F8093DD00A5
:1007A0008091D70080618093D7008091DD008260C6
:1007B0008093DD0084E0D2CF80919F0080FF98C0BD
:1007C00080919F008E7F80939F0080919F008D7FFE
:1007D00080939F008091DF008D7F8093DF00809168
:1007E000DE0082608093DE0080919E0081608093B5
:1007F0009E007AD11092350184E690E090932A0110
:100800008093290185E059C0AADE1092350188EC59
:1008100090E090932A018093290186E04EC080E009
:1008200060E040E020E430E001E0D0D0882309F42B
:100830004FC087E093CFADE2B1E0EFE1F1E088E0B7
:1008400001900D928150E1F71092A700CE01019620
:100850008ED3682F882309F03EC0888580932701B6
:100860007EDE1092350188EC90E090932A0180930F
:10087000290188E022C02091270180E060E040E06B
:1008800030E001E0A3D0882319F1ADE2B1E0E7E167
:10089000F1E088E001900D928150E1F780E090E076
:1008A00066D3682F8823B9F41092350184E690E06E
:1008B00090932A018093290189E08093280118C030
:1008C00081E08093A1008AE0809335017EDD10C035
:1008D00060E084E001C083E090913501913041F007
:1008E000E9DD8091DD0081608093DD0068DD7DD1F0
:1008F00028960FB6F894DEBF0FBECDBFCF91DF9123
:100900001F910F9108958F929F92BF92CF92DF9285
:10091000EF92FF920F931F93DF93CF930F92CDB778
:10092000DEB7E82E4B018A018091AA008F7C80619E
:100930008093AA00998312D1B82E99818823C1F59A
:10094000F92E0115110539F0F80120813181821A43
:10095000930AE20EF31ECC24DD2425C08091A6006C
:1009600085FD16C08091A6008E778093A6000115A4
:10097000110551F0F801808191818C0D9D1D9183AD
:10098000808344E0B42E14C0E9D0882361F00FC006
:100990008091AF00F70181937F010894810891084D
:1009A0000894C11CD11C81149104C1F601C0B82E59
:1009B0008B2D0F90CF91DF911F910F91FF90EF90B2
:1009C000DF90CF90BF909F908F9008950F93582FF6
:1009D0005F7087FF02C080E101C080E2573008F0FD
:1009E00059C0662309F480E04F706295660F660F68
:1009F000607C642B682B452F0260842F8F7080935E
:100A0000A7004517A1F488E090E070E003C07F5F85
:100A1000880F991F8217930710F47530C1F7872F3D
:100A20008295807F802BF62F70E0E0E008C0F09187
:100A3000AA008091AB00E091AD007091AE0081FF03
:100A400020C09091A9009E7F9093A9009091AB0047
:100A50009D7F9093AB009091A90091609093A90025
:100A6000F093AA008093AB00E093AD007093AE00CA
:100A70008091A90080628093A9008091AC0087FFDB
:100A800009C04F5F473009F0B8CF5F705093A7009F
:100A900081E001C080E00F910895EF92FF920F93E3
:100AA0001F93CF93DF93162FE82EE7017E01F92ED7
:100AB000E701FF240DC08881882341F029813A8114
:100AC0006C814B810D8182DF882331F0F39426966F
:100AD000F11688F381E001C080E0DF91CF911F9192
:100AE0000F91FF90EF9008951092F80080E0982FFA
:100AF0009F709093A7001092AE001092A6001092E3
:100B0000AB009091A9009E7F9093A9008F5F8730E2
:100B100071F708954091A7009091AA0090E0292FC5
:100B20002F702093A7002091AC0027FF0CC03091BC
:100B3000AA00532F5F7030FF02C020E001C020E800
:100B4000252B281749F09F5F973049F7842F8F7026
:100B50008093A70080E0089581E008958091A2002D
:100B60009091A30044E62091AA002073203129F43B
:100B70002091A60020FF05C018C02091A60022FDEC
:100B800014C02091A60021FD12C020913501213012
:100B900081F02091A2003091A3002817390719F3A2
:100BA000442349F04150C901DECF80E0089581E03F
:100BB000089582E0089583E0089575D07CD0E0EE3A
:100BC000F0E0808181608083E8EDF0E080818F77C4
:100BD000808319BCA7EDB0E08C918E7F8C938081CF
:100BE0008F7E808310922C0108955DD064D0809117
:100BF000D8008F778093D8008091D8008068809348
:100C0000D8008091D8008F7D8093D8008091D70044
:100C10008F778093D7008CE089BD8EE089BD09B4C1
:100C200000FEFDCF81E08093350110922B0180E41E
:100C3000809327018091D80080648093D8008091B0
:100C4000DD0081608093DD008091DD008460809311
:100C5000DD008091D7008F7E8093D7006F9A779ABE
:100C60008091DE0081608093DE008091DE008460F0
:100C70008093DE008091E0008E7F8093E000809181
:100C8000D80080618093D8000895E8EDF0E080817D
:100C90008F7E8083E7EDF0E080818160808381E05A
:100CA00080932C01A2CFE8EDF0E080818C7F8083DF
:100CB0001092A00008951092DA0010929F000895FB
:100CC0001F920F920FB60F920BB60F9211242F9313
:100CD0003F934F935F936F937F938F939F93AF93C4
:100CE000BF93EF93FF9380919F0085FF0AC080918F
:100CF000A00085FF06C080919F008F7D80939F009C
:100D00000CD180919F0081FF15C08091A00081FFD0
:100D100011C080919F008D7F80939F0080919F00E4
:100D20008E7F80939F008091A0008D7F8093A00094
:100D300046DB5BDF8091DF0081FF15C08091DE0024
:100D400081FF11C08091DF008D7F8093DF00779855
:100D50008091DD0081608093DD0080E08BDB2FDB04
:100D600081E0809335018091DF0080FF17C0809182
:100D7000DE0080FF13C08091DF008E7F8093DF0054
:100D80008091DE008E7F8093DE0013DB8091A000D7
:100D900082608093A00082E0809335018091DF0023
:100DA00082FF0EC08091DE0082FF0AC08091DF00CA
:100DB0008B7F8093DF0082E060E07CDB00DB15DF6F
:100DC000FF91EF91BF91AF919F918F917F916F9123
:100DD0005F914F913F912F910F900BBE0F900FBEDF
:100DE0000F901F901895CF92DF92EF92FF920F9382
:100DF0001F93DF93CF93CDB7DEB729970FB6F89443
:100E0000DEBF0FBECDBF6B018A01790190E89093E0
:100E10002D0196E090932E0190E0019792609093BF
:100E2000300180932F01109232011092310189E03C
:100E300090E090933401809333011092A700CE018B
:100E4000019695D08823B9F48B819C81F60191831A
:100E50008083E816F90670F0909334018093330193
:100E6000C80185D0882339F4F8019181923019F0B6
:100E700086E001C085E029960FB6F894DEBF0FBE6C
:100E8000CDBFCF91DF911F910F91FF90EF90DF9039
:100E9000CF900895AF92BF92CF92DF92EF92FF92E0
:100EA0000F931F93CF93DF938C01EB016A0123C053
:100EB000E881F9815F01208130E0C7012E153F05EF
:100EC00008F4C901E80FF91FF983E883F8012081CC
:100ED0003181281B390B3183208388819981F60168
:100EE0000995823041F0813069F4A882B982F80115
:100EF000F182E08207C0F801E080F180E114F104A2
:100F0000B9F682E0DF91CF911F910F91FF90EF90A2
:100F1000DF90CF90BF90AF90089508951F93CF9327
:100F2000DF93182FC8EED3E007C081E06EDB882383
:100F3000D1F42097B9F02197112329F48091A600CC
:100F400083FFF3CF0DC0113029F48091A60080FFFC
:100F5000ECCF06C0123049F78091A60082FFE5CFA2
:100F600080E001C084E0DF91CF911F910895EF925E
:100F7000FF920F931F93CF93DF938C01E0909E001D
:100F8000FF2481E0E822FF24C0913301D091340195
:100F900080919E00816080939E0081E036DB8823F3
:100FA00009F0CBC08091AA008F7C8093AA00109298
:100FB000F5008091A6008F7E8093A6008091A90005
:100FC0008F7B8093A900EDE2F1E081918093AF00E7
:100FD00081E0E533F807C9F78091A6008777809311
:100FE000A60080E09BDF882309F0A7C08091A900BC
:100FF00080648093A90081E008DB882309F09DC00C
:1010000080912D0187FF4FC08091AA008F7C806165
:101010008093AA000115110561F52DC08091A900EA
:101020008F7B8093A90081E079DF882309F085C058
:101030008091F6009091F700009749F4C0E0D0E06D
:1010400006C08091AF00F80181938F0121978091B4
:10105000F6009091F700009711F0209791F780919A
:10106000A90080648093A9008091A6008E77809368
:10107000A600209799F68091AA008F7C80628093C9
:10108000AA008091A9008F7B8093A90082E046DFAF
:10109000882309F052C08091A6008B778093A60028
:1010A00082E03CDF4AC00115110599F18091AA0048
:1010B0008F7C80628093AA008091A9008F7B8093AF
:1010C000A9001CC082E02ADF8823B9F5F80106C018
:1010D00081918F018093AF00219759F08F0120916A
:1010E000F6003091F7008091270190E0281739072A
:1010F00078F38091A6008B778093A600209711F754
:1011000082E00CDF8823C9F48091A9008064809379
:10111000A9008091AA008F7C80618093AA008091B1
:10112000A9008F7B8093A90081E0F8DE882329F451
:101130009091A6009E779093A6009091A90090644C
:101140009093A900E114F10429F490919E009E7FF0
:1011500090939E0091E09093A8001092A800DF91D8
:10116000CF911F910F91FF90EF9008951F93182F2B
:1011700010922D0189E080932E0110932F0110927F
:10118000300110923201109231011092340110920C
:1011900033011092A70080E090E0E9DE882349F453
:1011A00010932B01112311F09BE001C09AE0909362
:1011B00035011F9108951F931091A7001F70809112
:1011C000AA001092A70076DA1093A7001F91089545
:1011D000FC018181843019F48581833011F082E033
:1011E000089580E00895FC018181813221F08430EE
:1011F00021F481E0089580E0089582E00895FC01E3
:101200008181853029F4828185DC882319F404C02A
:10121000843021F082E0089580E0089581E008950F
:101220004F925F926F927F928F929F92AF92BF92F6
:10123000CF92DF92EF92FF920F931F93DF93CF93A2
:1012400000D000D0CDB7DEB78C017A8369835C8390
:101250004B830F96FC0188E0DF011D928A95E9F728
:10126000EB81FC818181823009F095C044245524B2
:10127000AA24BB24EE24FF24CC24DD2493E0692E91
:10128000712C6C0E7D1E4E010894811C911CA114C2
:10129000B10439F0C401B3014FEF58E0FBDD8823FE
:1012A00021F1C114D10479F5C401B30148EE58E02D
:1012B000F1DD882309F071C0AB80BC80F801848522
:1012C000882331F0D50117969C911797981761F7ED
:1012D000C401B30143EF58E0DDDD882309F05DC0B0
:1012E0004B805C80EE24FF24D2CFEB81FC81828195
:1012F00087FF02C06F0101C07F01C114D10439F220
:10130000E114F10421F2F60184819581D80112964D
:101310009C938E931197828113968C93139783E0FD
:10132000C82E1496CC92C80161E0B7DB8823B9F1CE
:10133000E114F104A1F0F70184819581D801189698
:101340009C938E931797828119968C9319971A966E
:10135000CC92C801069661E0A0DB882301F1F5017B
:101360008281D80150968C935097F20187819085A5
:1013700055969C938E93549781E0D50116969C9137
:101380001697992309F480E0F801818B88E0868B19
:1013900081E0878704C081E003C082E001C080E073
:1013A0000F900F900F900F90CF91DF911F910F91A1
:1013B000FF90EF90DF90CF90BF90AF909F908F9075
:1013C0007F906F905F904F900895EF92FF92CF9330
:1013D000DF93FC01809135018B30D9F58785882317
:1013E000C1F180818F708093A7008091A9008F7BCD
:1013F0008093A900E62EE7017E01F72EE70183899D
:10140000882391F4A585B685A852BC4F8C9188237A
:1014100021F06091AF00699301C060E085859685F9
:1014200040E071D8BC0104C06091F6007091F700F3
:10143000CE0140E050E067DA882361F49091A60085
:101440009E779093A6009091A90090649093A90034
:1014500001C082E0DF91CF91FF90EF900895FC01F1
:10146000809135018B30A9F487858823A1F0808194
:101470008F708093A7008091A9008F7B8093A90033
:101480008091A60081709091A90090649093A9002A
:10149000089580E0089580E00895CF93DF93EC01F4
:1014A00089898823F9F0888991E290932D019BE046
:1014B00090932E011092300110922F0180933101F0
:1014C0001092320110923401109233011092A70051
:1014D00080E090E04CDD882331F498E09E8B91E031
:1014E0009B8B01C080E8DF91CF9108959091C80057
:1014F00095FFFCCF8093CE0080E090E0089580912E
:10150000C80087FF08C08091C80087FF07C02091EE
:10151000CE0030E005C02EEF3FEF02C02FEF3FEFCF
:10152000C9010895FC01009751F4E6E3F1E0F0935E
:101530004501E0934401F0934701E09346018EE0BA
:10154000DF011D928A95E9F783E0838386E79AE0BD
:10155000918780878FE79AE0938782870895DF934A
:10156000CF93CDB7DEB7FE01359661917191809131
:10157000460190914701DC0113962C911397286046
:1015800013962C93AF0142D0E0914601F0914701B0
:101590002381277F2383CF91DF910895EF92FF92DC
:1015A0000F931F93CF93DF938C01E0914601F0914D
:1015B0004701838181FF20C0C0E0D0E00CC0DB0187
:1015C0001896ED91FC9119970995009711F0CFEFBE
:1015D000DFEF0F5F1F4FF80184916091460170911A
:1015E0004701882361F7DB011896ED91FC9119976B
:1015F0008AE00995009711F0CFEFDFEFCE01DF9180
:10160000CF911F910F91FF90EF9008952F923F92ED
:101610004F925F926F927F928F929F92AF92BF9202
:10162000CF92DF92EF92FF920F931F93DF93CF93AE
:10163000CDB7DEB72C970FB6F894DEBF0FBECDBF87
:101640006C011B018A01FC0117821682838181FFD4
:10165000C4C12E010894411C511CF6019381F10173
:1016600093FD859193FF81911F01882309F4B1C1F6
:10167000853239F493FD859193FF81911F01853265
:1016800021F490E0B601DBD1E8CFEE24FF2420E086
:101690002032B0F48B3269F08C3228F4803251F071
:1016A000833271F40BC08D3239F0803349F42160FC
:1016B0002CC02260246029C0286027C0206125C07A
:1016C00027FD2CC0382F30533A3098F426FF08C03D
:1016D0008E2D880FE82EEE0CEE0CE80EE30E15C0F2
:1016E0008F2D880FF82EFF0CFF0CF80EF30E2062E2
:1016F0000CC08E3221F426FD6CC1206406C08C36ED
:1017000011F4206802C0883649F4F10193FD8591F7
:1017100093FF81911F01882309F0BACF982F955428
:10172000933018F09052933028F40C5F1F4FFFE372
:10173000F9830DC0833631F0833771F0833509F0BA
:101740005CC021C0F801808189830E5F1F4F420178
:1017500071E0A72EB12C15C062E0662E712C600ED0
:10176000711EF8018080918026FF03C06E2D70E00D
:1017700002C06FEF7FEFC4012C8756D15C0183015B
:101780002C852F7716C052E0652E712C600E711ECD
:10179000F8018080918026FF03C06E2D70E002C0AA
:1017A0006FEF7FEFC4012C8734D15C012C8520685A
:1017B000830123FD1EC007C080E290E0B6012C87A4
:1017C0003ED1FA942C858F2D90E0A816B906A0F38F
:1017D00010C0F40127FD859127FF81914F0190E012
:1017E000B6012C872CD12C85F110FA940894A1080D
:1017F000B108A114B10469F7E9C0843611F0893643
:1018000041F527FF08C0F8016081718182819381D1
:101810000C5F1F4F09C0F80160817181882777FD37
:101820008095982F0E5F1F4F4FE6B42EB22297FF80
:1018300009C090958095709561957F4F8F4F9F4F10
:10184000F0E8BF2AA2012AE030E025D1782E7418F2
:1018500044C0853731F43FEEB32EB2222AE030E0A7
:1018600025C099EFB92EB2228F36C1F0803720F40F
:10187000883509F0AEC00DC0803721F0883709F0F7
:10188000A8C002C020E1B22AB4FE0BC084E0B82A8E
:1018900008C0B4FE09C0E6E0BE2A06C028E030E079
:1018A00005C020E130E002C020E132E0B7FE08C010
:1018B000F80160817181828193810C5F1F4F07C0A5
:1018C000F8016081718180E090E00E5F1F4FA201FE
:1018D000E2D0782E7418FFE7BF22B6FE0BC02EEFC1
:1018E000B2227E1438F4B4FE07C0B2FC05C08FEEFD
:1018F000B82202C0A72C01C0AE2C8B2D90E0B4FE04
:101900000DC0FE01E70DF11D2081203319F4E9EE31
:10191000BE2209C0A394B2FE06C004C086789070AF
:10192000009709F0A3948B2C9924B3FC13C0B0FE4C
:101930000EC0AF1428F4E72CEF0CEA18AF2C07C048
:10194000E72C05C080E290E0B60179D0A394AF14F3
:10195000C8F304C0AF1410F4FA1801C0FF2484FEC9
:101960000EC080E390E0B6016AD082FE1DC081FE09
:1019700003C088E590E010C088E790E00DC0C40186
:1019800086789070009781F081FC02C080E201C0EF
:101990008BE2B7FC8DE290E0B60151D005C080E348
:1019A00090E0B6014CD0EA947E14C8F37A94F20128
:1019B000E70DF11D808190E0B60141D07720B1F7AD
:1019C00005C080E290E0B6013AD0FA94FF20C9F752
:1019D00044CEF6012681378102C02FEF3FEFC901C7
:1019E0002C960FB6F894DEBF0FBECDBFCF91DF911E
:1019F0001F910F91FF90EF90DF90CF90BF90AF902D
:101A00009F908F907F906F905F904F903F902F901E
:101A10000895FC010590615070400110D8F7809541
:101A200090958E0F9F1F0895FC01615070400190AA
:101A30000110D8F7809590958E0F9F1F08950F93F2
:101A40001F93CF93DF938C01EB018B8181FF1BC030
:101A500082FF0DC02E813F818C819D81281739071F
:101A600064F4E881F9810193F983E88306C0E8858D
:101A7000F985802F0995009731F48E819F81019619
:101A80009F838E8302C00FEF1FEFC801DF91CF91BC
:101A90001F910F910895FA01AA27283051F12031A2
:101AA00081F1E8946F936E7F6E5F7F4F8F4F9F4FF2
:101AB000AF4FB1E03ED0B4E03CD0670F781F891F34
:101AC0009A1FA11D680F791F8A1F911DA11D6A0F02
:101AD000711D811D911DA11D20D009F468943F91B5
:101AE0002AE0269F11243019305D3193DEF6CF01B4
:101AF0000895462F4770405D4193B3E00FD0C9F77A
:101B0000F6CF462F4F70405D4A3318F0495D31FDE6
:101B10004052419302D0A9F7EACFB4E0A695979539
:101B2000879577956795BA95C9F70097610571050F
:101B300008959B01AC010A2E069457954795379559
:101B40002795BA95C9F7620F731F841F951FA01DB3
:061B50000895F894FFCF98
:101B560081000000000102000000000102000000F8
:101B660000000000000000000501000000000080E9
:081B7600060001000008004018
:00000001FF
