:1000000006C2000022C2000020C200001EC2000082
:100010001CC200001AC2000018C2000016C2000074
:1000200014C2000012C200000C94DD080EC20000D1
:100030000CC200000AC2000008C2000006C2000094
:1000400004C2000002C2000000C20000FEC10000A5
:10005000FCC10000FAC10000F8C10000F6C10000B8
:10006000F4C10000F2C10000F0C10000EEC10000C8
:10007000ECC10000EAC10000E8C10000E6C10000D8
:10008000E4C10000E2C10000E0C10000DEC10000E8
:10009000DCC10000DAC100001B5B33316D446576C2
:1000A00020456E756D204572726F720D0A202D2DE0
:1000B000204572726F7220436F64652025640D0ABB
:1000C000202D2D20537562204572726F7220436F70
:1000D00064652025640D0A202D2D20496E2053745F
:1000E0006174652025640D0A1B5B33376D001B5B53
:1000F00033316D486F7374204D6F646520457272A3
:100100006F720D0A202D2D204572726F7220436F81
:1001100064652025640D0A1B5B33376D004D6173E8
:10012000732053746F7261676520446576696365F7
:1001300020456E756D6572617465642E0D0A0056FA
:10014000656E646F722022252E3873222C20507227
:100150006F647563742022252E313673220D0A00D8
:100160004572726F722072657472696576696E6726
:100170002064657669636520496E717569727920BE
:10018000646174612E0D0A004572726F722073658E
:100190007474696E672050726576656E742044656C
:1001A000766963652052656D6F76616C2062697453
:1001B0002E0D0A004572726F722072657472696545
:1001C00076696E67206465766963652073656E7312
:1001D000652E0D0A004572726F7220726573657428
:1001E00074696E67204D6173732053746F72616719
:1001F0006520696E746572666163652E0D0A005430
:100200006F74616C204C554E733A202564202D206C
:100210005573696E67206669727374204C554E2061
:10022000696E206465766963652E0D0A00457272F9
:100230006F722072657472696576696E67206D6190
:1002400078204C554E20696E6465782E0D0A004565
:1002500072726F722053657474696E67204465769C
:1002600069636520436F6E66696775726174696F53
:100270006E2E0D0A004174746163686564204465E4
:1002800076696365204E6F7420612056616C6964E5
:10029000204D6173732053746F72616765204465EC
:1002A000766963652E0D0A004572726F7220526581
:1002B0007472696576696E6720436F6E66696775EB
:1002C000726174696F6E2044657363726970746FD4
:1002D000722E0D0A000D0A44657669636520556E1D
:1002E00061747461636865642E0D0A004465766903
:1002F00063652041747461636865642E0D0A000DA6
:100300000A002020202000252E325820000D0A430C
:100310006F6E74656E7473206F6620666972737495
:1003200020626C6F636B3A0D0A004572726F722027
:1003300072656164696E67206465766963652062D1
:100340006C6F636B2E0D0A00256C7520626C6F63F9
:100350006B73206F6620256C752062797465732E2F
:100360000D0A004572726F7220726574726965764B
:10037000696E672064657669636520636170616397
:100380006974792E0D0A0052657472696576696E1A
:10039000672043617061636974792E2E2E0D0A0007
:1003A0004572726F722077616974696E6720666F3B
:1003B000722064657669636520746F2062652072BF
:1003C000656164792E0D0A0057616974696E672052
:1003D000756E74696C2072656164792E2E2E0D0A1B
:1003E000001B5B33366D4D6173732053746F726104
:1003F000676520486F73742044656D6F2072756E59
:100400006E696E672E0D0A1B5B33376D0000112479
:100410001FBECFEFD0E2DEBFCDBF11E0A0E0B1E064
:10042000EAEAF6E200E00BBF02C007900D92A432A8
:10043000B107D9F711E0A4E2B1E001C01D92A634E2
:10044000B107E1F787D10C945313DACD9BB19F70BC
:10045000982B9BB9089584B7877F84BF28E10FB696
:10046000F89420936000109260000FBE90E080E846
:100470000FB6F89480936100909361000FBE83E300
:1004800090E09093CD008093CC0086E08093CA00EA
:100490001092C8002093C900539A5A9A8AB1806F6B
:1004A0008AB98BB18F708BB96DD680E090E00C94D7
:1004B00012102F923F924F925F926F927F928F9283
:1004C0009F92AF92BF92CF92DF92EF92FF920F93E3
:1004D0001F93DF93CF93CDB7DEB72C970FB6F89469
:1004E000DEBF0FBECDBFEDB6FEB6FA86E9868091BF
:1004F00031018B3009F00EC180E2A8DF88EC93E077
:100500000E94A11080E091E060E00E94440E8823E8
:1005100029F08038B9F380EA93E010C087E893E0CF
:100520000E94A11080E091E060E0AE014F5F5F4F5C
:100530000E94730E882351F083E693E00E94A1107D
:1005400080E984DF80E00E94330BE4C02DB73EB722
:100550002A5030400FB6F8943EBF0FBE2DBFEDB706
:10056000FEB7319688E493E0ADB7BEB712969C9380
:100570008E93119789819A81AB81BC818283938309
:10058000A483B5838D819E81AF81B885868397834F
:10059000A087B1870E9482108D819E81AF81B8852E
:1005A000EDB7FEB73A960FB6F894FEBF0FBEEDBF9B
:1005B000AE2E1F2F8E2EFB872DB73EB7281B390B73
:1005C0000FB6F8943EBF0FBE2DBF2DB63EB60894B1
:1005D000211C311CED80FE8080E091E060E020E095
:1005E00030E0A90101E061010E94930F882361F0CE
:1005F0008AE293E00E94A11080E928DF80E00E9457
:10060000330B3A2D212F7FC08DE093E00E94A11083
:10061000EE24FF24B7E0AB2EB3E0BB2EA2E06A2E9F
:10062000A3E07A2EFFEF4F2EF2E05F2E52C087013B
:10063000E4E0000F111FEA95E1F7020D131D6801B8
:1006400020E0D6018D916D0100D000D0EDB7FEB74E
:100650003196ADB7BEB71296BC92AE921197828317
:1006600013822C870E9482102C852F5F0F900F9091
:100670000F900F90203129F700D0EDB7FEB77282AE
:1006800061820E9482100F900F909924D801CD9022
:100690008D01DD24C6010E945010009719F47EE2FE
:1006A000C72ED12C6091420170914301C6010E9476
:1006B00056109394B92DB03149F700D0EDB7FEB77D
:1006C000528241820E9482100894E11CF11C0F901A
:1006D0000F90970140E050E08D819E81AF81B885F9
:1006E00064E0B695A795979587956A95D1F72817F1
:1006F00039074A075B0708F49ACF80E6A7DE80E057
:10070000B2D7382D2B85832F922F0FB6F8949EBF2A
:100710000FBE8DBFE984FA840FB6F894FEBE0FBEFB
:10072000EDBE2C960FB6F894DEBF0FBECDBFCF91B5
:10073000DF911F910F91FF90EF90DF90CF90BF90CE
:10074000AF909F908F907F906F905F904F903F9071
:100750002F90089580DE81EE93E00E94A11080E149
:1007600075DE7894A6DEBBD7FDCF8CEE92E00E94BA
:10077000A11080EA6BCE85ED92E00E94A11080E18D
:1007800065CE0F931F93DF93CF93CDB7DEB7C953D9
:10079000D2400FB6F894DEBF0FBECDBF80EA56DE62
:1007A0008E01065C1F4F81E0BE016E5F7F4FA80186
:1007B00020E032E095D5882319F088EA92E012C053
:1007C0006A817B8180E091E0A8010E94000D88236E
:1007D00019F085E792E006C081E045D7882331F023
:1007E0008FE492E00E94A11080E97CC080E091E05B
:1007F000BE016F5F7F4F0E94E30D882319F08DE2E9
:1008000092E044C000D000D08FEF91E0ADB7BEB70A
:1008100012969C938E931197898190E0019614967D
:100820009C938E9313970E9482100F900F900F90BD
:100830000F9080E091E00E94A30D882319F085EDD0
:1008400091E024C080E091E060E0AE014C5F5F4F3A
:100850000E94260F882319F084EB91E017C080E0F6
:1008600091E060E041E00E94630F882319F088E87E
:1008700091E00CC080E091E060E0AE014A5E5F4F25
:100880000E94070E882349F080E691E00E94A110A3
:1008900080E9DCDD80E0E7D626C000D000D000D0C3
:1008A000EDB7FEB731968FE391E0ADB7BEB71296C4
:1008B0009C938E931197CE014E9693838283CE01A3
:1008C0008696958384830E948210EDB7FEB7369694
:1008D0000FB6F894FEBF0FBEEDBF8DE191E00E9410
:1008E000A11080E6B3DDC75CDD4F0FB6F894DEBF24
:1008F0000FBECDBFCF91DF911F910F910895DF9370
:10090000CF930F92CDB7DEB78983D4D300D000D078
:10091000EDB7FEB731962EEE30E0ADB7BEB712960A
:100920003C932E9311978981828313820E948210B7
:100930000F900F900F900F9080E988DDFFCF90917E
:1009400031012DB73EB7285030400FB6F8943EBF66
:100950000FBE2DBFEDB7FEB7319628E930E0ADB739
:10096000BEB712963C932E931197828313826483B1
:100970001582968317820E9482102DB73EB7285F9A
:100980003F4F0FB6F8943EBF0FBE2DBF80E95ECD3E
:1009900080919E0090E0817090702091A0002D7F4A
:1009A0002093A00020919E00226020939E00209121
:1009B0009E0021FDFCCF20919E00216020939E008F
:1009C000109227012091A00030E0207230704091F9
:1009D000A0004F7D4093A00040919F004F7D409329
:1009E0009F004AE050919F0055FF0BC040919F002F
:1009F0004F7D40939F0040919F004D7F40939F000B
:100A000008C0EFECF7E03197F1F700C0000041506B
:100A100049F72115310529F02091A000206220938B
:100A2000A000009729F480919E008E7F80939E0005
:100A30008091A00082608093A000089540919E0064
:100A400050E0417050702091A00030E02072307072
:100A50009091A0009F7D9093A00090919F009F7D1A
:100A600090939F0090919E00916090939E0026C06D
:100A700090919F0095FF06C090919F009F7D90935D
:100A80009F008150909131019130D9F09091A60052
:100A900094FF09C01092F5008091A6008F7E80938C
:100AA000A60082E00FC09091A60091FF07C0809140
:100AB000A6008D7F8093A60083E004C08823C1F642
:100AC00001C081E04115510529F490919E009E7F5F
:100AD00090939E002115310529F09091A00090621D
:100AE0009093A00008950F931F93DF93CF93CDB7FA
:100AF000DEB728970FB6F894DEBF0FBECDBF80914A
:100B00003101853009F499C0863068F48230C1F132
:100B1000833018F48823A1F004C18330D9F18430E4
:100B200009F0FFC062C0873009F49EC0873008F426
:100B30008FC0883009F4B8C0893009F0F2C0D9C03C
:100B400000912501109126010115110509F4E9C054
:100B500081E074DF682F882331F080912401809335
:100B6000310181E0D2C00150104010932601009362
:100B700025010115110509F0D4C08091240107C099
:100B800088EE93E0909326018093250183E0809383
:100B90003101C7C080912501909126019C0121500F
:100BA00030403093260120932501009739F08FECD7
:100BB00097E00197F1F700C00000B3C077988091EB
:100BC000D80080618093D8008091DD008B7F809376
:100BD000DD008091D70080618093D7008091DD0097
:100BE00082608093DD0084E0D2CF80919F0080FFFF
:100BF00098C080919F008E7F80939F0080919F007E
:100C00008D7F80939F008091DF008D7F8093DF0038
:100C10008091DE0082608093DE0080919E00816082
:100C200080939E00DDD11092310184E690E0909394
:100C300026018093250185E059C0AADE109231017A
:100C400088EC90E0909326018093250186E04EC0C9
:100C500080E060E040E020E430E001E033D1882330
:100C600009F44FC087E093CFA9E2B1E0EAE1F1E0F7
:100C700088E001900D928150E1F71092A700CE011B
:100C80000196F2D3682F882309F03EC088858093AF
:100C900022017EDE1092310188EC90E090932601D3
:100CA0008093250188E022C02091220180E060E04D
:100CB00040E030E001E006D1882319F1A9E2B1E07B
:100CC000E2E1F1E088E001900D928150E1F780E0EF
:100CD00090E0CAD3682F8823B9F41092310184E6DA
:100CE00090E0909326018093250189E08093240170
:100CF00018C081E08093A1008AE08093310141DD3A
:100D000010C060E084E001C083E090913101913037
:100D100041F015DE8091DD0081608093DD002BDDE8
:100D2000E1D128960FB6F894DEBF0FBECDBFCF91AC
:100D3000DF911F910F9108958F929F92BF92CF9252
:100D4000DF92EF92FF920F931F93DF93CF930F9257
:100D5000CDB7DEB7E82E4B018A018091AA008F7CC7
:100D600080628093AA00998375D1B82E99818823D7
:100D7000C1F5F92E0115110539F0F80120813181F5
:100D8000821A930AE20EF31ECC24DD2425C0809142
:100D9000A60085FD16C08091A6008B778093A600E3
:100DA0000115110551F0F801808191818C0D9D1D77
:100DB0009183808324E0B22E14C04CD1882361F04B
:100DC0000FC0F70181917F018093AF0008948108E3
:100DD00091080894C11CD11C81149104C1F601C072
:100DE000B82E8B2D0F90CF91DF911F910F91FF9017
:100DF000EF90DF90CF90BF909F908F9008958F924B
:100E00009F92BF92CF92DF92EF92FF920F931F9328
:100E1000DF93CF930F92CDB7DEB7E82E4B018A0157
:100E20008091AA008F7C80618093AA00998312D15F
:100E3000B82E99818823C1F5F92E0115110539F0D5
:100E4000F80120813181821A930AE20EF31ECC242C
:100E5000DD2425C08091A60085FD16C08091A600E6
:100E60008E778093A6000115110551F0F80180815D
:100E700091818C0D9D1D9183808344E0B42E14C01C
:100E8000E9D0882361F00FC08091AF00F701819312
:100E90007F010894810891080894C11CD11C811419
:100EA0009104C1F601C0B82E8B2D0F90CF91DF9128
:100EB0001F910F91FF90EF90DF90CF90BF909F9088
:100EC0008F9008950F93582F5F7087FF02C080E1C5
:100ED00001C080E2573008F059C0662309F480E071
:100EE0004F706295660F660F607C642B682B452FF0
:100EF0000260842F8F708093A7004517A1F488E0CB
:100F000090E070E003C07F5F880F991F82179307FE
:100F100010F47530C1F7872F8295807F802BF62FD4
:100F200070E0E0E008C0F091AA008091AB00E09191
:100F3000AD007091AE0081FF20C09091A9009E7F0E
:100F40009093A9009091AB009D7F9093AB009091FE
:100F5000A90091609093A900F093AA008093AB0040
:100F6000E093AD007093AE008091A9008062809301
:100F7000A9008091AC0087FF09C04F5F473009F09E
:100F8000B8CF5F705093A70081E001C080E00F915F
:100F90000895EF92FF920F931F93CF93DF93162F35
:100FA000E82EE7017E01F92EE701FF240DC08881BC
:100FB000882341F029813A816C814B810D8182DF48
:100FC000882331F0F3942696F11688F381E001C06E
:100FD00080E0DF91CF911F910F91FF90EF900895E6
:100FE0001092F80080E0982F9F709093A7001092C5
:100FF000AE001092A6001092AB009091A9009E7FC7
:101000009093A9008F5F873071F708954091A700F2
:101010009091AA0090E0292F2F702093A700209193
:10102000AC0027FF0CC03091AA00532F5F7030FF37
:1010300002C020E001C020E8252B281749F09F5F5F
:10104000973049F7842F8F708093A70080E0089530
:1010500081E008952091A2003091A30088E893E1F7
:101060004091AA004073403129F44091A60040FF0E
:1010700005C018C04091A60042FD14C04091A600D2
:1010800041FD12C040913101413081F04091A200F8
:101090005091A3004217530719F3009749F00197A5
:1010A0009A01DECF80E0089581E0089582E00895FE
:1010B00083E0089575D07CD0E0EEF0E0808181601F
:1010C0008083E8EDF0E080818F77808319BCA7ED05
:1010D000B0E08C918E7F8C9380818F7E8083109284
:1010E000280108955DD064D08091D8008F778093D7
:1010F000D8008091D80080688093D8008091D80073
:101100008F7D8093D8008091D7008F778093D70010
:101110008CE089BD8EE089BD09B400FEFDCF81E081
:10112000809331011092270180E480932201809105
:10113000D80080648093D8008091DD008160809326
:10114000DD008091DD0084608093DD008091D70018
:101150008F7E8093D7006F9A779A8091DE008160AE
:101160008093DE008091DE0084608093DE008091B9
:10117000E0008E7F8093E0008091D80080618093B2
:10118000D8000895E8EDF0E080818F7E8083E7ED60
:10119000F0E080818160808381E080932801A2CF8C
:1011A000E8EDF0E080818C7F80831092A0000895AC
:1011B0001092DA0010929F0008951F920F920FB6BE
:1011C0000F920BB60F9211242F933F934F935F937F
:1011D0006F937F938F939F93AF93BF93EF93FF93FF
:1011E00080919F0085FF0AC08091A00085FF06C006
:1011F00080919F008F7D80939F000CD180919F00F4
:1012000081FF15C08091A00081FF11C080919F00D7
:101210008D7F80939F0080919F008E7F80939F00A1
:101220008091A0008D7F8093A000A5DA5BDF809184
:10123000DF0081FF15C08091DE0081FF11C0809129
:10124000DF008D7F8093DF0077988091DD008160E3
:101250008093DD0080E053DB8EDA81E08093310102
:101260008091DF0080FF17C08091DE0080FF13C0F7
:101270008091DF008E7F8093DF008091DE008E7F83
:101280008093DE0072DA8091A00082608093A000DB
:1012900082E0809331018091DF0082FF0EC0809157
:1012A000DE0082FF0AC08091DF008B7F8093DF0029
:1012B00082E060E044DB5FDA15DFFF91EF91BF91E0
:1012C000AF919F918F917F916F915F914F913F91DE
:1012D0002F910F900BBE0F900FBE0F901F9018957F
:1012E000CF92DF92EF92FF920F931F93DF93CF93F2
:1012F000CDB7DEB729970FB6F894DEBF0FBECDBFCE
:101300006B018A01790190E89093290196E090930E
:101310002A0190E00197926090932C0180932B0119
:1013200010922E0110922D0189E090E090933001EF
:1013300080932F011092A700CE01019695D08823AB
:10134000B9F48B819C81F60191838083E816F906BC
:1013500070F09093300180932F01C80185D08823CD
:1013600039F4F8019181923019F086E001C085E0EE
:1013700029960FB6F894DEBF0FBECDBFCF91DF9197
:101380001F910F91FF90EF90DF90CF900895AF9253
:10139000BF92CF92DF92EF92FF920F931F93CF9362
:1013A000DF938C01EB016A0123C0E881F9815F01C1
:1013B000208130E0C7012E153F0508F4C901E80F70
:1013C000F91FF983E883F80120813181281B390B4B
:1013D0003183208388819981F6010995823041F01B
:1013E000813069F4A882B982F801F182E08207C0F5
:1013F000F801E080F180E114F104B9F682E0DF91B8
:10140000CF911F910F91FF90EF90DF90CF90BF9001
:10141000AF90089508951F93CF93DF93182FC8EED0
:10142000D3E007C081E00ADB8823D1F42097B9F02C
:101430002197112329F48091A60083FFF3CF0DC0DB
:10144000113029F48091A60080FFECCF06C0123045
:1014500049F78091A60082FFE5CF80E001C084E0DB
:10146000DF91CF911F910895EF92FF920F931F93F9
:10147000CF93DF938C01E0909E00FF2481E0E8226F
:10148000FF24C0912F01D091300180919E00816096
:1014900080939E0081E0D2DA882309F0CBC080914E
:1014A000AA008F7C8093AA001092F5008091A6007C
:1014B0008F7E8093A6008091A9008F7B8093A900E6
:1014C000E9E2F1E081918093AF0081E0E133F80738
:1014D000C9F78091A60087778093A60080E09BDF04
:1014E000882309F0A7C08091A90080648093A90097
:1014F00081E0A4DA882309F09DC08091290187FF4B
:101500004FC08091AA008F7C80618093AA00011552
:10151000110561F52DC08091A9008F7B8093A900F2
:1015200081E079DF882309F085C08091F6009091F1
:10153000F700009749F4C0E0D0E006C08091AF000A
:10154000F80181938F0121978091F6009091F70027
:10155000009711F0209791F78091A9008064809303
:10156000A9008091A6008E778093A600209799F617
:101570008091AA008F7C80628093AA008091A9004C
:101580008F7B8093A90082E046DF882309F052C058
:101590008091A6008B778093A60082E03CDF4AC052
:1015A0000115110599F18091AA008F7C80628093CA
:1015B000AA008091A9008F7B8093A9001CC082E0C3
:1015C0002ADF8823B9F5F80106C081918F01809345
:1015D000AF00219759F08F012091F6003091F7006C
:1015E0008091220190E02817390778F38091A600B6
:1015F0008B778093A600209711F782E00CDF882379
:10160000C9F48091A90080648093A9008091AA0008
:101610008F7C80618093AA008091A9008F7B80934A
:10162000A90081E0F8DE882329F49091A6009E7736
:101630009093A6009091A90090649093A900E11462
:10164000F10429F490919E009E7F90939E0091E07A
:101650009093A8001092A800DF91CF911F910F9155
:10166000FF90EF9008951F93182F1092290189E0A1
:1016700080932A0110932B0110922C0110922E01BD
:1016800010922D011092300110922F011092A7009C
:1016900080E090E0E9DE882349F4109327011123CC
:1016A00011F09BE001C09AE0909331011F910895E1
:1016B00092E09093290191E090932A0110922C01DD
:1016C00010922B0180932D0110922E011092300167
:1016D00010922F011092A70080E090E0C5CE1F93DA
:1016E0001091A7001F708091AA001092A700FBD94B
:1016F0001093A7001F910895FC018181843049F463
:101700008581883031F48681863019F4878180356F
:1017100011F082E0089580E00895FC012091A2007C
:101720003091A30080818F708093A7008091A900E1
:101730008F7B8093A90080E197E241C04091A20095
:101740005091A3004217530729F0009709F44FC0A6
:1017500001979A014091A90040644093A9004681F5
:101760004F704093A7004091A9004F7B4093A90080
:101770004091A60041FD12C04091A90040644093F1
:10178000A90040814F704093A7004091A9004F7B72
:101790004093A9004091A60041FF0DC09091AA007E
:1017A000292F2F7090FF02C080E001C080E8822BBB
:1017B0007FDF81E00895409131014130D1F04091C7
:1017C000A60040FFBBCF80818F708093A7008091DF
:1017D000A90080648093A90086818F708093A70000
:1017E0008091A90080648093A90080E0089583E03F
:1017F000089582E00895CF92DF92EF92FF920F93C7
:101800001F93DF93CF93CDB7DEB72F970FB6F89422
:10181000DEBF0FBECDBF8C017B016A01FC01868556
:101820009785A089B1890196A11DB11D86879787EB
:10183000A08BB18B8F3FFFEF9F07FFEFAF07FFEF4D
:10184000BF0749F481E090E0A0E0B0E0F8018687AE
:101850009787A08BB18B85E593E5A2E4B3E4F7010C
:1018600080839183A283B383F80186859785A089BD
:10187000B189F70184839583A683B783F8018681B4
:101880008F708093A7008091A9008F7B8093A9001F
:10189000C7016FE170E040E050E04EDA882309F0C4
:1018A0008BC08091A6008B778093A600D3DB8091BC
:1018B000A90080648093A900C114D10409F458C020
:1018C000F70160857185848587FF24C0C8016E8714
:1018D0007F8723DF6E857F85882331F09091A90073
:1018E00090649093A9003AC0F80180818F70809332
:1018F000A7008091A9008F7B8093A900C60140E0DA
:1019000050E07DDA882351F58091A6008E77809390
:10191000A6001EC0F80186818F708093A700809179
:10192000A9008F7B8093A900C60140E050E004DA53
:101930008823A1F48091A6008B778093A60004C031
:1019400080913101813069F08091A60082FFF8CF4B
:101950008091A90080648093A9000AC0823010F4AD
:1019600007C082E09091A90090649093A90024C0E0
:10197000C801D3DE882301F5F80180818F70809340
:10198000A7008091A9008F7B8093A900CE010196CA
:101990006DE070E040E050E032DA882369F4909125
:1019A000A6009E779093A6009091A90090649093D2
:1019B000A9009D85911180E82F960FB6F894DEBF9F
:1019C0000FBECDBFCF91DF911F910F91FF90EF9090
:1019D000DF90CF900895FC018181853049F48381A7
:1019E0008370823039F4828111DB882319F404C0BA
:1019F000843021F082E0089580E0089581E0089528
:101A00006F927F928F929F92AF92BF92CF92DF920E
:101A1000EF92FF920F931F93DF93CF9300D000D0EC
:101A2000CDB7DEB78C017A8369835C834B830C96D8
:101A3000FC0186E0DF011D928A95E9F7EB81FC81CC
:101A40008181823009F067C0AA24BB24CC24DD2424
:101A5000EE24FF2483E0682E712C6C0E7D1E4E0157
:101A60000894811C911CA114B10439F0C401B30184
:101A70004BEE5CE08CDC882379F0C401B3014CE7C9
:101A80005BE085DC882309F048C0AB80BC80CC24B7
:101A9000DD24EE24FF24E7CFEB81FC81828187FFE8
:101AA00002C07F0101C06F01E114F104E1F2C11431
:101AB000D104C9F2F70184819581D80112969C93D3
:101AC0008E931197828113968C93139722E014962C
:101AD0002C931497F6018481958118969C938E938C
:101AE0001797828119968C9319971A962C93C8018F
:101AF00061E04FDA882399F0C801069661E049DA7F
:101B0000882369F0D50112968C911297F801858788
:101B100081E0848704C081E003C082E001C080E0EE
:101B20000F900F900F900F90CF91DF911F910F9119
:101B3000FF90EF90DF90CF90BF90AF909F908F90ED
:101B40007F906F900895CF93DF93EC018D8591E2A4
:101B5000909329019FEF90932A0110922C011092EB
:101B60002B0180932D0110922E01109230011092C2
:101B70002F011092A70080E090E076DC882301F529
:101B800088818F708093A7009091AA00292F2F70D1
:101B900090FF02C080E001C080E8822B89DD8823AD
:101BA00079F48E818F708093A7009091AA00292FDD
:101BB0002F7090FF02C080E001C080E8822B78DDAA
:101BC000DF91CF910895CF93DF93EB01FC018585E1
:101BD00091EA909329019EEF90932A0110922C0193
:101BE00010922B0180932D0110922E0181E090E044
:101BF0009093300180932F011092A700CB0134DC29
:101C0000833011F4188280E0DF91CF9108950F9313
:101C10001F93DF93CF93CDB7DEB76F970FB6F894CE
:101C2000DEBF0FBECDBF209131012B3009F5DC01A5
:101C30001C962C911C972223D9F0FE0131962FE19E
:101C4000DF011D922A95E9F704E210E020E030E080
:101C500009871A872B873C8720E82D876E8726E027
:101C60002F8722E1288B24E22C8BBF01C4DD01C029
:101C700081E06F960FB6F894DEBF0FBECDBFCF9157
:101C8000DF911F910F910895DF93CF93CDB7DEB70A
:101C90006F970FB6F894DEBF0FBECDBF2091310114
:101CA0002B30B9F4DC011C962C911C97222389F06F
:101CB000FE0131962FE1DF011D922A95E9F720E818
:101CC0002D876E8726E02F87BF0140E050E093DD2F
:101CD00001C081E06F960FB6F894DEBF0FBECDBF96
:101CE000CF91DF910895CF92DF92EF92FF920F9301
:101CF0001F93DF93CF93CDB7DEB76F970FB6F894EE
:101D0000DEBF0FBECDBF6A01209131012B3009F03B
:101D10008CC0DC011C962C911C97222309F485C0F1
:101D2000FE0131962FE1DF011D922A95E9F728E0A7
:101D300030E040E050E029873A874B875C8720E815
:101D40002D876E872AE02F8725E2288BBF01A60109
:101D500052DDE82F882309F069C0D6016D917D918D
:101D60008D919C911397562F442733272227E92ED4
:101D7000FF24002711272E293F29402B512BE12C2E
:101D8000F12CFFEF0F2F112DE622F7220823192344
:101D9000EF2CF02E012F11272E293F29402B512BFC
:101DA000607080709070982F872F762F6627262B73
:101DB000372B482B592B2D933D934D935C931397C1
:101DC00014966D917D918D919C911797562F442774
:101DD00033272227E92EFF24002711272E293F2908
:101DE000402B512BE12CF12CFFEF0F2F112DE62270
:101DF000F72208231923EF2CF02E012F11272E296B
:101E00003F29402B512B607080709070982F872F46
:101E1000762F6627262B372B482B592B14962D937C
:101E20003D934D935C93179701C0E1E08E2F6F9621
:101E30000FB6F894DEBF0FBECDBFCF91DF911F91DB
:101E40000F91FF90EF90DF90CF9008950F931F9325
:101E5000DF93CF93CDB7DEB76F970FB6F894DEBFA1
:101E60000FBECDBF209131012B3009F5DC011C964E
:101E70002C911C972223D9F0FE0131962FE1DF012E
:101E80001D922A95E9F702E110E020E030E0098791
:101E90001A872B873C8720E82D876E8726E02F87BF
:101EA00023E0288B22E12C8BBF01A5DC01C081E05F
:101EB0006F960FB6F894DEBF0FBECDBFCF91DF9106
:101EC0001F910F910895DF93CF93CDB7DEB76F9732
:101ED0000FB6F894DEBF0FBECDBF209131012B307D
:101EE000C1F4DC011C962C911C97222391F0FE0179
:101EF00031962FE1DF011D922A95E9F76E8726E0E2
:101F00002F872EE1288B4B8BBF0140E050E073DC24
:101F100001C081E06F960FB6F894DEBF0FBECDBF53
:101F2000CF91DF9108954F925F926F927F928F923F
:101F30009F92AF92BF92CF92DF92EF92FF920F9358
:101F40001F93DF93CF93CDB7DEB76F970FB6F8949B
:101F5000DEBF0FBECDBF5C01162F39014A0126013D
:101F6000809131018B3051F5F5018485882331F161
:101F70006E010894C11CD11C8FE1F60111928A9563
:101F8000E9F7B70180E090E0202F30E040E050E03A
:101F900066D069877A878B879C8780E88D871E87C4
:101FA0008AE08F8788E2888B9A8A8B8A7C8A6D8AFE
:101FB000088FC501B601A2011EDC01C081E06F9649
:101FC0000FB6F894DEBF0FBECDBFCF91DF911F914A
:101FD0000F91FF90EF90DF90CF90BF90AF909F90C8
:101FE0008F907F906F905F904F9008959091C80070
:101FF00095FFFCCF8093CE0080E090E00895809123
:10200000C80087FF08C08091C80087FF07C02091E3
:10201000CE0030E005C02EEF3FEF02C02FEF3FEFC4
:10202000C9010895FC01009751F4E2E3F1E0F09357
:102030004101E0934001F0934301E09342018EE0BF
:10204000DF011D928A95E9F783E0838386EF9FE0A5
:10205000918780878FEF9FE0938782870895629FA3
:10206000D001739FF001829FE00DF11D649FE00D90
:10207000F11D929FF00D839FF00D749FF00D659FF1
:10208000F00D9927729FB00DE11DF91F639FB00DF0
:10209000E11DF91FBD01CF0111240895803209F01F
:1020A00091118AC280528F55E0F708950F931F93C4
:1020B000CF93DF938C01EB018B8181FF1BC082FFEB
:1020C0000DC02E813F818C819D812817390764F4D2
:1020D000E881F9810193F983E88306C0E885F985F1
:1020E000802F0995009731F48E819F8101969F83FF
:1020F0008E8302C00FEF1FEFC801DF91CF911F91B8
:102100000F910895DF93CF93CDB7DEB7FE013596DB
:10211000619171918091420190914301DC0113968C
:102120002C911397286013962C93AF0142D0E09125
:102130004201F09143012381277F2383CF91DF91D7
:102140000895EF92FF920F931F93CF93DF938C012B
:10215000E0914201F0914301838181FF20C0C0E002
:10216000D0E00CC0DB011896ED91FC911997099510
:10217000009711F0CFEFDFEF0F5F1F4FF801849151
:102180006091420170914301882361F7DB01189649
:10219000ED91FC9119978AE00995009711F0CFEF26
:1021A000DFEFCE01DF91CF911F910F91FF90EF9064
:1021B00008952F923F924F925F926F927F928F92EB
:1021C0009F92AF92BF92CF92DF92EF92FF920F93C6
:1021D0001F93DF93CF93CDB7DEB72C970FB6F8944C
:1021E000DEBF0FBECDBF6C011B018A01FC0117824F
:1021F0001682838181FFC4C12E010894411C511CA9
:10220000F6019381F10193FD859193FF81911F0167
:10221000882309F4B1C1853239F493FD859193FF88
:1022200081911F01853221F490E0B6013FDFE8CFB4
:10223000EE24FF2420E02032B0F48B3269F08C329F
:1022400028F4803251F0833271F40BC08D3239F0B2
:10225000803349F421602CC02260246029C02860AA
:1022600027C0206125C027FD2CC0382F30533A30BD
:1022700098F426FF08C08E2D880FE82EEE0CEE0C89
:10228000E80EE30E15C08F2D880FF82EFF0CFF0C03
:10229000F80EF30E20620CC08E3221F426FD6CC1C4
:1022A000206406C08C3611F4206802C0883649F4D8
:1022B000F10193FD859193FF81911F01882309F01E
:1022C000BACF982F9554933018F09052933028F449
:1022D0000C5F1F4FFFE3F9830DC0833631F0833766
:1022E00071F0833509F05CC021C0F80180818983D9
:1022F0000E5F1F4F420171E0A72EB12C15C062E0A6
:10230000662E712C600E711EF8018080918026FF70
:1023100003C06E2D70E002C06FEF7FEFC4012C8709
:1023200059D15C0183012C852F7716C052E0652EB0
:10233000712C600E711EF8018080918026FF03C011
:102340006E2D70E002C06FEF7FEFC4012C8737D194
:102350005C012C852068830123FD1EC007C080E23C
:1023600090E0B6012C87A2DEFA942C858F2D90E0A8
:10237000A816B906A0F310C0F40127FD859127FF28
:1023800081914F0190E0B6012C8790DE2C85F110F1
:10239000FA940894A108B108A114B10469F7E9C03E
:1023A000843611F0893641F527FF08C0F8016081B5
:1023B0007181828193810C5F1F4F09C0F801608198
:1023C0007181882777FD8095982F0E5F1F4F4FE60C
:1023D000B42EB22297FF09C09095809570956195B3
:1023E0007F4F8F4F9F4FF0E8BF2AA2012AE030E0D5
:1023F000FCD0782E741844C0853731F43FEEB32EEC
:10240000B2222AE030E025C099EFB92EB2228F36F1
:10241000C1F0803720F4883509F0AEC00DC0803798
:1024200021F0883709F0A8C002C020E1B22AB4FE2A
:102430000BC084E0B82A08C0B4FE09C0E6E0BE2A9A
:1024400006C028E030E005C020E130E002C020E115
:1024500032E0B7FE08C0F80160817181828193810A
:102460000C5F1F4F07C0F8016081718180E090E030
:102470000E5F1F4FA201B9D0782E7418FFE7BF225C
:10248000B6FE0BC02EEFB2227E1438F4B4FE07C0A5
:10249000B2FC05C08FEEB82202C0A72C01C0AE2C42
:1024A0008B2D90E0B4FE0DC0FE01E70DF11D2081E3
:1024B000203319F4E9EEBE2209C0A394B2FE06C08F
:1024C00004C086789070009709F0A3948B2C99240F
:1024D000B3FC13C0B0FE0EC0AF1428F4E72CEF0C11
:1024E000EA18AF2C07C0E72C05C080E290E0B601E7
:1024F000DDDDA394AF14C8F304C0AF1410F4FA18D0
:1025000001C0FF2484FE0EC080E390E0B601CEDD62
:1025100082FE1DC081FE03C088E590E010C088E700
:1025200090E00DC0C40186789070009781F081FC26
:1025300002C080E201C08BE2B7FC8DE290E0B60100
:10254000B5DD05C080E390E0B601B0DDEA947E140D
:10255000C8F37A94F201E70DF11D808190E0B60195
:10256000A5DD7720B1F705C080E290E0B6019EDDE1
:10257000FA94FF20C9F744CEF6012681378102C0C4
:102580002FEF3FEFC9012C960FB6F894DEBF0FBEB8
:10259000CDBFCF91DF911F910F91FF90EF90DF9012
:1025A000CF90BF90AF909F908F907F906F905F90F3
:1025B0004F903F902F900895992788270895FC0108
:1025C0000590615070400110D8F7809590958E0F5E
:1025D0009F1F0895FC016150704001900110D8F7D1
:1025E000809590958E0F9F1F0895FA01AA27283095
:1025F00051F1203181F1E8946F936E7F6E5F7F4FD0
:102600008F4F9F4FAF4FB1E03ED0B4E03CD0670F4B
:10261000781F891F9A1FA11D680F791F8A1F911D9E
:10262000A11D6A0F711D811D911DA11D20D009F4EE
:1026300068943F912AE0269F11243019305D319330
:10264000DEF6CF010895462F4770405D4193B3E019
:102650000FD0C9F7F6CF462F4F70405D4A3318F0C0
:10266000495D31FD4052419302D0A9F7EACFB4E071
:10267000A6959795879577956795BA95C9F7009729
:102680006105710508959B01AC010A2E06945795CA
:10269000479537952795BA95C9F7620F731F841F21
:0A26A000951FA01D0895F894FFCFC8
:1026AA00810000000001020000000001000000009B
:1026BA000000000501000000000080060001000083
:0426CA0008004000C4
:00000001FF
