:10000000B2C00000CEC00000CCC00000CAC00000DA
:10001000C8C00000C6C00000C4C00000C2C00000CC
:10002000C0C00000BEC000000C9490090C945F0A90
:10003000B8C00000B6C00000B4C00000B2C00000EC
:10004000B0C00000AEC00000ACC00000AAC00000FC
:10005000A8C00000A6C00000A4C00000A2C000000C
:10006000A0C000009EC000009CC000009AC000001C
:1000700098C0000096C0000094C0000092C000002C
:1000800090C000008EC000008CC000008AC000003C
:1000900088C0000086C0000012011001EF020108B4
:1000A000EB03682001000102DC0109025D0003018D
:1000B00000C032080B000202020100090400000126
:1000C0000202010005240010010424020605240692
:1000D0000001070581030800FF09040100020A006E
:1000E0000000070503021000050705820210000545
:1000F00009040200020806500007058402400005BA
:1001000007050502400005040309041803440065BF
:100110000061006E002000430061006D0065007208
:1001200000610000003E034C0055004600410020E5
:1001300000430044004300200061006E0064002082
:10014000004D006100730073002000530074006FC5
:100150000072006100670065002000440065006DCA
:10016000006F0000000011241FBECFEFD0E2DEBF01
:10017000CDBF11E0A0E0B1E0E6EFFEE100E00BBF93
:1001800002C007900D92AC3DB107D9F711E0ACED7C
:10019000B1E001C01D92A83FB107E1F77CD00C94FB
:1001A000790F2ECF9BB19F70982B9BB9089584B780
:1001B000877F84BF88E10FB6F89480936000109227
:1001C00060000FBE90E080E80FB6F8948093610065
:1001D000909361000FBE8AB1806F8AB98BB18F7026
:1001E0008BB984B18F7184B98DB18F7C8DB985B194
:1001F000806E85B98EB180638EB9209A289A84B1B9
:10020000866084B923982B9A8DB581608DBD209826
:100210008CE58CBD8DB183608DB98EB183608EB954
:100220000E94750984D3882319F480E9BBDFFFCFCE
:1002300030C323B18CB1809590E080739070959518
:1002400087952095207E282B27FD0BC024FD0CC010
:1002500026FD0DC023FD0EC025FD0FC01092EA0142
:10026000089580E091E00BC08EE091E008C08EE13F
:1002700091E005C08EE291E002C08FE391E0209111
:10028000EA01222339F421E02093EA016CED71E0C8
:100290000C94530F08958BDF82E591E06CED71E0D3
:1002A0000E94B40D80E17EDF7894C3DF82E591E0A7
:1002B0000E94770D82E591E00E945F0D8DE691E04E
:1002C0000E94210E0E94050CF0CF80EA6BCF80E1E6
:1002D00069CF1F9382E591E00E94CE0C182F8DE626
:1002E00091E00E94050E212F30E090E02823392371
:1002F00020FF02C080E601C080E954DF1F9108950D
:1003000082E591E00E94210C8DE691E00C94C80DED
:100310001F93CF93DF93EC0180E244DFCE0196D3AD
:10032000182F80E63FDF812FDF91CF911F91089535
:10033000923029F0933041F09130E9F417C02DE567
:1003400030E0EAEAF0E01BC0813041F0813018F083
:10035000823089F406C0E7E0F1E005C0EBE0F1E0AF
:1003600002C0E5E2F1E0249130E009C022E130E092
:10037000E8E9F0E004C020E030E0E0E0F0E0DA019D
:100380001196FC93EE93C90108952EB123602EB906
:1003900020E48030920758F480FF05C08EB183605E
:1003A0008D7F8EB908958EB183608E7F8EB908954A
:1003B0008EB19EB193609EB99EB18C6F936089237C
:1003C0008EB90895F5DF87ED8EBD0DB407FEFDCF24
:1003D0001EBC0DB407FEFDCF0EB407FEF9CFE8CF6B
:1003E0009C013695279536E0969587953A95E1F7E5
:1003F0008EBD0DB407FEFDCF220F220F220F272B3B
:100400002EBD0DB407FEFDCF6EBD0DB407FEFDCFB2
:1004100008956F927F929F92AF92BF92CF92DF9298
:10042000EF92FF920F931F93DF93CF930F92CDB76D
:10043000DEB76C017901DB01CA0119E0880F991F51
:10044000AA1FBB1F1A95D1F7FAE0B695A795979505
:100450008795FA95D1F73C018A01102F0027110FDB
:10046000137093DF83E58EBD0DB407FEFDCFC3018E
:1004700060E070E0B5DFA6DF84E88EBD0DB407FE56
:10048000FDCF80E090E0B801ABDFB6D6882309F05D
:10049000EAC074E0169507957A95E1F7902F8701E9
:1004A00065E0000F111F6A95E1F7BB24992493942E
:1004B000BBC050E2A52E8091E80085FD0BC0809165
:1004C000E8008B778093E800998396D699818823FA
:1004D00009F0C9C0903409F03AC074DFBB2011F0B4
:1004E00086E801C083E88EBD0DB407FEFDCFC301D1
:1004F00060E070E075DF0894611C711C8EB180951E
:100500008370823009F4B924C3013FDF0034110540
:1005100078F458DFBB2011F085E501C083E58EBD7E
:100520000DB407FEFDCFC30160E070E059DF4ADF84
:10053000BB2011F087E801C084E88EBD0DB407FE32
:10054000FDCF80E090E060E070E04ADF90E08091D5
:10055000F1008EBD0DB407FEFDCF8091F1008EBD80
:100560000DB407FEFDCF8091F1008EBD0DB407FEE6
:10057000FDCF8091F1008EBD0DB407FEFDCF8091BF
:10058000F1008EBD0DB407FEFDCF8091F1008EBD50
:100590000DB407FEFDCF8091F1008EBD0DB407FEB6
:1005A000FDCF8091F1008EBD0DB407FEFDCF80918F
:1005B000F1008EBD0DB407FEFDCF8091F1008EBD20
:1005C0000DB407FEFDCF8091F1008EBD0DB407FE86
:1005D000FDCF8091F1008EBD0DB407FEFDCF80915F
:1005E000F1008EBD0DB407FEFDCF8091F1008EBDF0
:1005F0000DB407FEFDCF8091F1008EBD0DB407FE56
:10060000FDCF8091F1008EBD0DB407FEFDCFF60148
:1006100080AD882341F59F5FAA9409F04CCF0894E0
:10062000E108F10800521040E114F10409F041CF53
:10063000C9DEBB2011F086E801C083E88EBD0DB491
:1006400007FEFDCFC30160E070E0CADEBBDE809133
:10065000E80085FD05C08091E8008B778093E80075
:100660008EB183608EB90F90CF91DF911F910F9162
:10067000FF90EF90DF90CF90BF90AF909F907F90D2
:100680006F900895BF92CF92DF92EF92FF920F93F7
:100690001F93CF93DF936C017901DB01CA0169E0FD
:1006A000880F991FAA1FBB1F6A95D1F73AE0B6952C
:1006B000A795979587953A95D1F7EC018A01102F68
:1006C0000027110F137061DE82ED8EBD0DB407FEA1
:1006D000FDCFCE01B80184DE1EBC0DB407FEFDCFF8
:1006E0001EBC0DB407FEFDCF1EBC0DB407FEFDCF32
:1006F0001EBC0DB407FEFDCF7FD5882309F0BFC017
:1007000094E0169507959A95E1F782EDB82EA7C06B
:1007100010E28091E80085FD09C08091E8008E77A5
:100720008093E80069D5882309F0A9C00034E1F47A
:100730002196CE012ADEBEBC0DB407FEFDCFCE0150
:1007400060E070E04DDE1EBC0DB407FEFDCF1EBCA8
:100750000DB407FEFDCF1EBC0DB407FEFDCF1EBCC1
:100760000DB407FEFDCF00E01EBC0DB407FEFDCFAB
:100770008EB58093F1001EBC0DB407FEFDCF8EB583
:100780008093F1001EBC0DB407FEFDCF8EB58093A3
:10079000F1001EBC0DB407FEFDCF8EB58093F100B5
:1007A0001EBC0DB407FEFDCF8EB58093F1001EBCBC
:1007B0000DB407FEFDCF8EB58093F1001EBC0DB4C5
:1007C00007FEFDCF8EB58093F1001EBC0DB407FE71
:1007D000FDCF8EB58093F1001EBC0DB407FEFDCF9A
:1007E0008EB58093F1001EBC0DB407FEFDCF8EB513
:1007F0008093F1001EBC0DB407FEFDCF8EB5809333
:10080000F1001EBC0DB407FEFDCF8EB58093F10044
:100810001EBC0DB407FEFDCF8EB58093F1001EBC4B
:100820000DB407FEFDCF8EB58093F1001EBC0DB454
:1008300007FEFDCF8EB58093F1001EBC0DB407FE00
:10084000FDCF8EB58093F100F60180AD8823B9F419
:100850000F5F115009F05DCF0894E108F108E11431
:10086000F10409F055CF8091E80085FD05C0809125
:10087000E8008E778093E8008EB183608EB9DF91B7
:10088000CF911F910F91FF90EF90DF90CF90BF908D
:1008900008958EB183608E7F8EB987ED8EBD0DB4C5
:1008A00007FEFDCF1EBC0DB407FEFDCF0EB401FE4A
:1008B00015C07EDD8DE38EBD0DB407FEFDCF8AE24F
:1008C0008EBD0DB407FEFDCF8FE78EBD0DB407FEC4
:1008D000FDCF8AE98EBD0DB407FEFDCF8EB18360DA
:1008E0008D7F8EB987ED8EBD0DB407FEFDCF1EBC8A
:1008F0000DB407FEFDCF0EB401FE15C059DD8DE32A
:100900008EBD0DB407FEFDCF8AE28EBD0DB407FE8D
:10091000FDCF8FE78EBD0DB407FEFDCF8AE98EBDFA
:100920000DB407FEFDCF8EB183608EB908958EB1F0
:1009300083608E7F8EB98FE98EBD0DB407FEFDCF2B
:100940001EBC0DB407FEFDCF9EB58EB183608EB97F
:100950009F31B1F48EB183608D7F8EB98FE98EBDEA
:100960000DB407FEFDCF1EBC0DB407FEFDCF9EB536
:100970008EB183608EB981E09F3119F080E00895D7
:1009800080E00895282F892F922F0895AF92BF926B
:10099000CF92DF92EF92FF920F931F93DF93CF934B
:1009A0000F92CDB7DEB75C01FC017B96E580F48049
:1009B00003811281878190856983E4DF6C016981FD
:1009C00080E0E81680E8F80680E0080780E0180775
:1009D00068F08091A801807F85608093A80181E202
:1009E0008093B2011092B30180E024C0662331F0FD
:1009F000C501B801A701960145DE05C0C501B801D2
:100A0000A701960106DDEE24FF2489E0CC0CDD1C55
:100A1000EE1CFF1C8A95D1F7F50184899589A6897A
:100A2000B7898C199D09AE09BF09848B958BA68B5C
:100A3000B78B81E00F90CF91DF911F910F91FF90C5
:100A4000EF90DF90CF90BF90AF900895CF92DF925C
:100A5000EF92FF920F931F93DF93CF93CDB7DEB743
:100A600028970FB6F894DEBF0FBECDBF8C01FC01F6
:100A7000838D8D3109F4ACC08E3178F4833009F464
:100A800056C0843020F4882309F4DFC0E4C08231EA
:100A9000B9F08A3109F0DFC0BEC0883209F4B5C0B0
:100AA000893238F48E3109F4D0C0853209F0D3C0D0
:100AB00063C08A3209F4A6C08F3209F0CCC0C5C029
:100AC000F801868D978D5EDF6C01F801848D90E0D2
:100AD00083709070009709F07FC0858D882309F09E
:100AE0007BC07601F5E2CF16D10418F024E2E22EA5
:100AF000F12C88EB91E0B70140E050E016D1C6013F
:100B00008E199F0960E070E0CBD08091E8008E776D
:100B10008093E800970140E050E0F80184899589CE
:100B2000A689B789821B930BA40BB50B89C0F8016A
:100B3000C78CEC2CFC2DF33110F092E1E92E86EA03
:100B400091E06E2D70E040E050E0EFD08C2D90E011
:100B50008E19910960E070E0A3D08091E8008E7753
:100B60008093E800F80184899589A689B7898E1950
:100B70009109A109B10964C08FEF9FE7A0E0B0E03F
:100B800089839A83AB83BC8380E092E0A0E0B0E0ED
:100B90008D839E83AF83B887CE01019664E070E0B9
:100BA00040E050E01FD1CE01059664E070E040E0E7
:100BB00050E018D18091E8008E778093E800F8012A
:100BC00084899589A689B7890897A109B10938C090
:100BD000F801848D82FD08C08091A801807F856026
:100BE0008093A80184E23EC0A2DE882371F5809143
:100BF000A801807F84608093A8011092B2011092B6
:100C0000B3013EC0C80160E002C0C80161E0BEDEC1
:100C10008823B1F12AC01092F1001092F1001092D5
:100C2000F1001092F1008091E8008E778093E80047
:100C3000F80184899589A689B7890497A109B10922
:100C4000848B958BA68BB78B10C0F801148A158AFC
:100C5000168A178A0AC08091A801807F85608093D8
:100C6000A80180E28093B201CACF8091A801807F61
:100C70008093A8011092B2011092B30181E001C0EB
:100C800080E028960FB6F894DEBF0FBECDBFCF919F
:100C9000DF911F910F91FF90EF90DF90CF9008951B
:100CA000DF92EF92FF920F931F93CF93DF93EC01AC
:100CB0008B01A2D2D82E882379F50115110529F0D0
:100CC000F80120813181C21BD30BEE24FF2420C008
:100CD0008091E80085FD16C08091E8008E778093B2
:100CE000E8000115110551F0F801808191818E0D08
:100CF0009F1D9183808395E0D92E0EC07DD28823DD
:100D000039F009C01092F10021970894E11CF11C00
:100D10002097F1F601C0D82E8D2DDF91CF911F9134
:100D20000F91FF90EF90DF9008958F929F92BF9266
:100D3000CF92DF92EF92FF920F931F93DF93CF93A7
:100D40000F92CDB7DEB7E82E4B018A01998354D2BA
:100D5000B82E99818823C1F5F92E0115110539F0B6
:100D6000F80120813181821A930AE20EF31ECC240D
:100D7000DD2425C08091E80085FD16C08091E80043
:100D80008E778093E8000115110551F0F8018081FC
:100D900091818C0D9D1D9183808325E0B22E14C01E
:100DA0002BD2882361F00FC0F70181917F018093DE
:100DB000F1000894810891080894C11CD11C811489
:100DC0009104C1F601C0B82E8B2D0F90CF91DF9109
:100DD0001F910F91FF90EF90DF90CF90BF909F9069
:100DE0008F900895BF92CF92DF92EF92FF920F9370
:100DF0001F93CF93DF936C01EB017A01FDD1B82EE5
:100E00008823D1F58E01015010400C0D1D1DE114F9
:100E1000F10439F0F70120813181C21BD30B021B91
:100E2000130BCC24DD2424C08091E80085FD16C07E
:100E30008091E8008E778093E800E114F10451F08E
:100E4000F701808191818C0D9D1D9183808335E018
:100E5000B32E12C0D1D1882359F00DC0F801808182
:100E60008093F1000150104021970894C11CD11CBF
:100E70002097D1F601C0B82E8B2DDF91CF911F9115
:100E80000F91FF90EF90DF90CF90BF9008958F92D9
:100E90009F92BF92CF92DF92EF92FF920F931F9398
:100EA000DF93CF930F92CDB7DEB7E82E4B018A01C7
:100EB0009983A2D1B82E99818823C1F5F92E011505
:100EC000110539F0F80120813181821A930AE20E6E
:100ED000F31ECC24DD2425C08091E80085FD16C0DA
:100EE0008091E8008B778093E8000115110551F09F
:100EF000F801808191818C0D9D1D9183808345E057
:100F0000B42E14C079D1882361F00FC08091F10014
:100F1000F70181937F010894810891080894C11C0E
:100F2000D11C81149104C1F601C0B82E8B2D0F90F5
:100F3000CF91DF911F910F91FF90EF90DF90CF90B5
:100F4000BF909F908F900895282F392FF90180919D
:100F5000F6019091F7018617970718F4BC0120E07D
:100F600037C061157105D9F78091E8008E778093BD
:100F7000E800F5CF8091EF01882309F43FC0853068
:100F8000C9F18091E80083FD37C08091E80082FDBF
:100F90002BC08091E80080FF1BC08091F2009091EF
:100FA000F30006C021912093F1006150704001963A
:100FB0006115710519F088309105A0F321E08830A2
:100FC000910509F020E08091E8008E778093E80099
:100FD0006115710579F6222369F606C08091EF014B
:100FE000882361F0853061F08091E80082FFF6CFC0
:100FF00080E0089583E0089581E0089582E00895F7
:1010000083E00895E82FF92F8091F6019091F70180
:101010008617970718F4BC0120E038C061157105E8
:10102000D9F78091E8008E778093E800F5CF809122
:10103000EF01882309F440C08530D1F18091E800A8
:1010400083FD38C08091E80082FD2CC08091E800CB
:1010500080FF1CC08091F2009091F30007C02491A2
:101060002093F10031966150704001966115710531
:1010700019F08830910598F321E08830910509F046
:1010800020E08091E8008E778093E800611571057B
:1010900071F6222361F606C08091EF01882361F08A
:1010A000853061F08091E80082FFF6CF80E00895FE
:1010B00083E0089581E0089582E0089583E0089533
:1010C000982F2CC0292F2F702093E900981739F002
:1010D0007091EC002091ED005091F00003C0242F9E
:1010E000762F50E021FF19C03091EB003E7F309306
:1010F000EB003091ED003D7F3093ED003091EB003F
:1011000031603093EB007093EC002093ED0050932E
:10111000F0002091EE0027FF08C09F5F973090F20B
:101120008F708093E90081E0089580E00895EF9248
:10113000FF920F931F93CF93DF93162FE82EE701B3
:101140007E01F92EE70100E02AC09881992329F158
:101150006B81E981FA812C81892F8F70873018F596
:101160006295660F660F607C991F9927991F692BFE
:10117000223010F096E001C092E028E030E040E03C
:1011800003C04F5F220F331F2E173F07D0F3429546
:10119000407F492B95DF882331F00F5F259601179B
:1011A000A0F281E001C080E0DF91CF911F910F910B
:1011B000FF90EF9008958091F00187FF13C004C065
:1011C0008091EF018823B9F08091E80082FFF8CF89
:1011D0008091E8008B778093E80008958091EF017B
:1011E000882349F08091E80080FFF8CF8091E800E3
:1011F0008E778093E80008958091E4009091E50057
:1012000044E62091EC0020FF26C02091E80020FD5C
:1012100016C02091EF012223A1F02530A1F02091EA
:10122000EB0025FD12C02091E4003091E500281765
:10123000390739F3442359F04150C901E2CF80E026
:10124000089582E0089583E0089581E0089584E0A0
:10125000089580E008952091E80022FFDACFF9CFC9
:101260000F931F93CF93DF934ED055D0C8EDD0E0AE
:1012700088818F77888388818068888388818F7D43
:101280008883E7EDF0E080818068808319BC10924C
:10129000EF011092EB011092ED011092EC0100EEC3
:1012A00010E0F80180818B7F808388818160888352
:1012B00080E060E042E004DFE1EEF0E080818E7FDC
:1012C0008083E2EEF0E080818160808380818860AD
:1012D0008083F80180818E7F80838881806188830C
:1012E000DF91CF911F910F910895E8EDF0E080819B
:1012F0008F7E8083E7EDF0E080818160808381E0F4
:101300008093EE01ADCFE8EDF0E080818C7F8083AB
:101310001092E20008951092DA001092E100089510
:101320001F920F920FB60F920BB60F9211242F93AC
:101330003F934F935F936F937F938F939F93AF935D
:10134000BF93EF93FF938091E10082FF0AC08091E9
:10135000E20082FF06C08091E1008B7F8093E10074
:1013600053D28091DA0080FF1FC08091D80080FFA7
:101370001BC08091DA008E7F8093DA008091D900C3
:1013800080FF0DC08CE089BD8EE089BD09B400FEF0
:10139000FDCF81E08093EF010E94650105C019BC7B
:1013A0001092EF010E9467018091E10080FF18C058
:1013B0008091E20080FF14C08091E2008E7F8093D4
:1013C000E2008091E20080618093E2008091D80089
:1013D00080628093D80019BC85E08093EF0114D21D
:1013E0008091E10084FF2DC08091E20084FF29C03C
:1013F0008CE089BD8EE089BD09B400FEFDCF8091EF
:10140000D8008F7D8093D8008091E1008F7E8093FB
:10141000E1008091E2008F7E8093E2008091E20003
:1014200081608093E2008091EB01882321F4809118
:10143000E30087FF02C084E001C081E08093EF01F8
:10144000E3D18091E10083FF27C08091E20083FF18
:1014500023C08091E100877F8093E10082E0809348
:10146000EF011092EB018091E1008E7F8093E1000B
:101470008091E2008E7F8093E2008091E2008061A3
:101480008093E20080E060E042E01ADE8091F000AC
:1014900088608093F000B8D1FF91EF91BF91AF9138
:1014A0009F918F917F916F915F914F913F912F917C
:1014B0000F900BBE0F900FBE0F901F9018951F92AC
:1014C0000F920FB60F920BB60F9211241F932F930A
:1014D0003F934F935F936F937F938F939F93AF93BC
:1014E000BF93EF93FF931091E9001F708091EC0080
:1014F0001092E9008091F000877F8093F00078944B
:101500001DD01092E9008091F00088608093F00077
:101510001093E900FF91EF91BF91AF919F918F914F
:101520007F916F915F914F913F912F911F910F90FC
:101530000BBE0F900FBE0F901F9018951F93DF9357
:10154000CF93CDB7DEB7AC970FB6F894DEBF0FBE22
:10155000CDBFE0EFF1E08091F100819321E0E83F21
:10156000F207C9F70E9480018091E80083FF34C12F
:101570008091F0012091F101253009F484C02630DA
:1015800040F42130A1F1213070F0233009F024C162
:101590002EC0283009F4F1C0293009F400C12630EA
:1015A00009F01AC193C0803821F0823809F014C1C3
:1015B00008C08091EC019091ED01992371F0826057
:1015C0000CC08091F4018F708093E9009091EB0042
:1015D00081E095FF80E01092E9009091E800977F0C
:1015E0009093E8008093F1001092F100D1C088231D
:1015F00019F0823009F0F0C090E08F719070009780
:1016000029F08230910509F0E7C00BC08091F2010A
:10161000813009F0E1C0233009F080E08093ED01D2
:101620002CC08091F201882341F52091F4012F70A4
:1016300009F4D2C02093E9008091EB0080FF1DC027
:101640008091F101833021F48091EB00806213C01E
:101650008091EB0080618093EB0081E090E002C01C
:10166000880F991F2A95E2F78093EA001092EA000A
:101670008091EB0088608093EB001092E9008091EC
:10168000E800877F88C0882309F0A6C01091F20186
:101690001F778091E3008078812B8093E300809115
:1016A000E800877F8093E80086DD8091E80080FF76
:1016B000FCCF8091E30080688093E300112311F058
:1016C00083E001C082E08093EF0186C080588230C1
:1016D00008F082C08091F2019091F30123E08C3DEB
:1016E000920791F583E08C838AE28B835FB7F8944D
:1016F000DE01159680E090E04EE061E2E42FF0E03C
:1017000060935700E49180FF03C0E295EF704F5F54
:10171000EF702E2F30E0EA3018F0295C3F4F02C006
:10172000205D3F4F2D933D9301968431910531F714
:101730005FBF8091E800877F8093E800CE01039629
:101740006AE270E001DC13C06091F401AE014F5F0A
:101750005F4F0E949801BC01009709F43DC0809141
:10176000E800877F8093E80089819A814BDC809133
:10177000E8008B778093E8002FC0803869F580916E
:10178000E800877F8093E8008091EB018093F1006F
:101790008091E8008E778093E8000DDD1DC08823DE
:1017A000D9F49091F2019230B8F48091E800877FEB
:1017B0008093E8009093EB01FEDC8091EB0188239D
:1017C00021F48091E30087FF02C084E001C081E042
:1017D0008093EF010E9469018091E80083FF0AC0B5
:1017E0008091E800877F8093E8008091EB00806221
:1017F0008093EB00AC960FB6F894DEBF0FBECDBF62
:10180000CF91DF911F91089508951F938091EF016B
:101810008823A9F08091E9008F709091EC0090FFEF
:1018200002C010E801C010E0182B1092E90080916E
:10183000E80083FF01C082DE1F701093E9001F9152
:101840000895CF93DF93EC018091E80083FFA3C05C
:10185000888190E02091F4013091F5012817390733
:1018600009F099C08091F101813269F0823220F44F
:10187000803209F090C03CC0823209F46BC08332E0
:1018800009F089C07AC08091F001813A09F083C0E3
:101890008091E800877F8093E8008091E80080FFD6
:1018A000FCCF8C899D89AE89BF898093F100292F57
:1018B0003A2F4B2F55272093F1009D0144275527A0
:1018C0002093F1008B2F9927AA27BB278093F10043
:1018D000888D8093F100898D8093F1008A8D8093AB
:1018E000F1008091E8008E778093E80064DC53C0BB
:1018F0008091F001813209F04EC08091E800877F2D
:101900008093E80005C08091EF01882309F443C06B
:101910008091E80082FFF7CF3091F1002091F10033
:101920009091F1008091F1003C8B2D8B9E8B8F8BE1
:101930008091F100888F8091F100898F8091F10072
:101940008A8F8091E8008B778093E80034DCCE01A9
:101950001ED121C08091F0018132E9F48091E8002C
:10196000877F8093E80027DC8091F2019091F3015A
:10197000998B888BCE010BD10EC08091F001813202
:1019800051F48091E800877F8093E80014DCCE0159
:101990006091F201FCD0DF91CF910895CF93DF9356
:1019A000EC014096FC018BE0DF011D928A95E9F77E
:1019B00082E08C83898783E08E87CE01019661E087
:1019C000B6DB882359F0CE01069661E0B0DB8823B0
:1019D00029F0CE010B9661E0AADB01C080E0DF9127
:1019E000CF910895DF93CF930F92CDB7DEB7FC016F
:1019F0008091EF018430F9F424893589468957892B
:101A00002115310541055105B1F081818F70809319
:101A1000E9008091E80085FD0AC08091E8008E779A
:101A20008093E8006983E8DB6981882329F4609367
:101A3000F10080E001C082E00F90CF91DF91089526
:101A4000282FFB0184859585622FCCDF882319F030
:101A50002FEF3FEF02C020E030E0C9010895FC0104
:101A60008091EF01843029F5248935894689578989
:101A70002115310541055105E1F081818F70809379
:101A8000E9008091F2009091F3000097A1F090910D
:101A9000E8008091E8008E778093E80095FD0DC006
:101AA000ABDB882359F49091E8009E779093E8008F
:101AB000089582E0089580E0089580E008952091DF
:101AC000EF01243099F4FC0124893589468957892E
:101AD000211531054105510549F021812F702093D1
:101AE000E9002091E80020FF01C0B9CF0895FC0172
:101AF0008091EF01843049F52489358946895789D9
:101B0000211531054105510501F186818F708093C2
:101B1000E9008091E80082FF18C08091F200909166
:101B2000F300009721F02091F10030E002C02FEF88
:101B30003FEF8091F2009091F300009741F4809183
:101B4000E8008B778093E80002C02FEF3FEFC901D8
:101B50000895FC0184859585CADF9C0197FF02C02A
:101B60002EEF3FEFC9010895FB012EE0DB011D922E
:101B70002A95E9F723E0238320E23DE0318720879F
:101B800029EA3DE033872287958784870895089561
:101B9000CF93DF93EC018091E80083FF33C088810D
:101BA00090E02091F4013091F5012817390751F5A3
:101BB0008091F1018E3F79F08F3F21F58091F00106
:101BC000813201F58091E800877F8093E800F3DAA5
:101BD00081E088AF17C08091F001813A99F480913B
:101BE000E800877F8093E8008091E80080FFFCCFC9
:101BF0008B8581508093F1008091E8008E778093EF
:101C0000E800D9DADF91CF910895CF93DF93EC010B
:101C10000C96FC018DE2DF011D928A95E9F782E0C6
:101C20008C838987CE01019661E081DA882329F0CF
:101C3000CE01069661E07BDA01C080E0DF91CF91B2
:101C40000895CF92DF92EF92FF920F931F93DF934D
:101C5000CF9300D0CDB7DEB78C018091EF018430F7
:101C600009F016C1F80186818F708093E900809198
:101C7000E80082FFD3C086818F708093E9001A82CA
:101C800019822CE0C22ED12CC00ED11E7E010894E8
:101C9000E11CF11C05C0F80180AD882309F0BEC02D
:101CA000C6016FE070E0A701F2D88530A1F3F8011A
:101CB00084859585A685B7858535F3E59F07F2E48C
:101CC000AF07F3E4BF0781F4F801918D838598177E
:101CD00058F4808D90E08F719070009729F4828D78
:101CE000882311F0813180F08091EB008062809335
:101CF000EB00F80181818F708093E9008091EB0007
:101D000080628093EB008AC01A8219829BE1C92EFF
:101D1000D12CC00ED11E7E010894E11CF11C05C01F
:101D2000F80180AD882309F079C0F801628DC60101
:101D300070E0A701ACD8853099F38091E8008B77EB
:101D40008093E800F801808D87FF04C081818F7047
:101D50008093E900C8010E94880191E09827F8016A
:101D600097AB25E533E542E453E523A734A745A720
:101D700056A7208931894289538927A730AB41ABC7
:101D800052AB248935894689578923AB34AB45AB9F
:101D900056AB882351F4211531054105510529F031
:101DA0008091EB0080628093EB00F80186818F7058
:101DB0008093E90004C0F80180AD882379F5809113
:101DC000EB0085FDF8CFF80181818F708093E900E9
:101DD00004C0F80180AD882309F58091EB0085FDF2
:101DE000F8CF1A8219828BE2C82ED12CC00ED11ED8
:101DF0007E010894E11CF11C04C0F80180AD882329
:101E000069F4C6016DE070E0A7010E949506853077
:101E1000A1F38091E8008E778093E800F80180AD0F
:101E20008823B1F126812F7081E090E0AC0102C0DF
:101E3000440F551F2A95E2F74093EA001092EA00FA
:101E400021812F7002C0880F991F2A95E2F7809395
:101E5000EA001092EA0086818F708093E9008091F9
:101E6000EB0080618093EB008091EB0088608093B1
:101E7000EB0081818F708093E9008091EB0080619D
:101E80008093EB008091EB0088608093EB0010AEB4
:101E90000F900F90CF91DF911F910F91FF90EF90D6
:101EA000DF90CF900895EF92FF920F931F93CF93FF
:101EB000DF937C01EB018B8181FF11C000E010E01A
:101EC00008C0E885F985BE010995009711F00FEF6C
:101ED0001FEFF70181917F01882399F702C00FEF6F
:101EE0001FEFC801DF91CF911F910F91FF90EF90ED
:061EF0000895F894FFCFF5
:101EF6004A6F79737469636B2055700D0A004A6FD7
:101F060079737469636B20446F776E0D0A004A6FAC
:101F160079737469636B204C6566740D0A004A6FA9
:101F260079737469636B2052696768740D0A004A95
:101F36006F79737469636B20507265737365640D92
:101F46000A00008210000001031000000181080051
:101F560000010000000000000000000000028440B4
:101F66000000010540000001010000000000000023
:101F7600000000000000000000000000000000005B
:101F8600000000000000000000000000000000004B
:101F9600000000000000700000000000000A0000C1
:101FA6000000000000000000008000021F0000008A
:101FB6004C5546410000000044617461666C6173D3
:0C1FC60068204469736B0000302E30303E
:00000001FF
