:10000000A2C00000BDC00000BBC00000B9C000001D
:10001000B7C00000B5C00000B3C00000B1C0000010
:10002000AFC00000ADC0000003C40000A9C00000C4
:10003000A7C00000A5C00000A3C00000A1C0000030
:100040009FC000009DC000009BC0000099C0000040
:1000500097C0000095C0000093C0000091C0000050
:100060008FC000008DC000008BC0000089C0000060
:1000700087C0000085C0000083C0000081C0000070
:100080007FC000007DC000007BC0000079C0000080
:1000900077C0000075C0000005010902A101090137
:1000A000A100050919012903150025019503750112
:1000B000810295017505810105010930093116FF9D
:1000C000FF26010036FFFF460100950275088106F4
:1000D000C0C01201100100000008EB034120010024
:1000E0000102000109022200010100C032090400DE
:1000F000000103010200092111010001223A000759
:100100000581030800050403090418034400650081
:1001100061006E002000430061006D006500720008
:100120006100000020034C00550046004100200003
:100130004D006F00750073006500200044006500ED
:100140006D006F00000011241FBECFEFD0E2DEBFB4
:10015000CDBF11E0A0E0B1E0E2E4F1E100E00BBFCF
:1001600002C007900D92A031B107D9F711E0A0E1CC
:10017000B1E001C01D92A032B107E1F730D0DFC776
:100180003FCF9BB19F70982B9BB9089584B7877F11
:1001900084BF88E10FB6F8948093600010926000ED
:1001A0000FBE90E080E80FB6F894809361009093C2
:1001B00061000FBE84B18F7184B98DB18F7C8DB910
:1001C00085B1806E85B98EB180638EB98AB1806F3A
:1001D0008AB98BB18F708BB96A98729A0EC3D6DFC9
:1001E00080E1CFDF789480E091E0C0D64DD5FBCFA1
:1001F00080EAC7CF80E1C5CF80E091E09ED69091A4
:10020000E20094609093E20080FF02C080E601C0AB
:1002100080E9B7CF80E091E053C580910E019091C5
:100220000F01009729F0019790930F0180930E0121
:1002300008950F931F93D801F90123B18CB18095D4
:1002400090E080739070959587952095207E282B5F
:100250008CB18095847027FF02C09FEF03C024FFFC
:1002600002C091E0928326FF02C09FEF03C023FFEC
:1002700002C091E0918325FF03C09081916090833B
:10028000882319F080818260808383E090E011965A
:100290009C938E9381E01F910F9108950895933060
:1002A00089F0943028F4913049F1923061F505C01D
:1002B0009132D1F0923239F51CC022E230E0E4EE06
:1002C000F0E025C0813041F0813018F08230D9F45F
:1002D00006C0E6E0F1E005C0EAE0F1E002C0E4E2D9
:1002E000F1E0249130E013C029E030E0E6EFF0E0E7
:1002F0000EC02AE330E0E8E9F0E009C022E130E096
:10030000E2EDF0E004C020E030E0E0E0F0E0DA010F
:100310001196FC93EE93C90108958F929F92BF921C
:10032000CF92DF92EF92FF920F931F93DF93CF93C1
:100330000F92CDB7DEB7E82E4B018A019983E4D145
:10034000B82E99818823C9F5F92E0115110539F0C8
:10035000F80120813181821A930AE20EF31ECC2427
:10036000DD2426C08091E80085FD17C08091E8005B
:100370008E778093E80088D40115110551F0F801BB
:10038000808191818C0D9D1D9183808325E0B22E0B
:1003900014C0BAD1882361F00FC0F70181917F01A9
:1003A0008093F1000894810891080894C11CD11C25
:1003B00081149104B9F601C0B82E8B2D0F90CF9106
:1003C000DF911F910F91FF90EF90DF90CF90BF9042
:1003D0009F908F900895282F392FF90180911E0149
:1003E00090911F018617970718F4BC0120E037C0D1
:1003F00061157105D9F78091E8008E778093E80048
:10040000F5CF80911701882309F43FC08530C9F1E9
:100410008091E80083FD37C08091E80082FD2BC009
:100420008091E80080FF1BC08091F2009091F30062
:1004300006C021912093F100615070400196611532
:10044000710519F088309105A0F321E088309105FD
:1004500009F020E08091E8008E778093E800611534
:10046000710579F6222369F606C080911701882369
:1004700061F0853061F08091E80082FFF6CF80E086
:10048000089583E0089581E0089582E0089583E06F
:1004900008956115710531F520C0209117012223BF
:1004A000A9F1253079F12091E80023FD2DC020919C
:1004B000E80022FFF2CFE82FF92F07C08091F1006A
:1004C0008193CF016150704041F0CF012091F20043
:1004D0003091F3002115310589F72091E8002B7741
:1004E0002093E80061157105C1F606C080911701DF
:1004F000882361F0853061F08091E80080FFF6CFBD
:1005000080E0089583E0089581E0089582E00895F1
:1005100083E00895E82FF92F80911E0190911F012B
:100520008617970718F4BC0120E038C061157105E3
:10053000D9F78091E8008E778093E800F5CF80911D
:100540001701882309F440C08530D1F18091E8007B
:1005500083FD38C08091E80082FD2CC08091E800C6
:1005600080FF1CC08091F2009091F30007C024919D
:100570002093F1003196615070400196611571052C
:1005800019F08830910598F321E08830910509F041
:1005900020E08091E8008E778093E8006115710576
:1005A00071F6222361F606C080911701882361F05D
:1005B000853061F08091E80082FFF6CF80E00895F9
:1005C00083E0089581E0089582E0089583E008952E
:1005D000982F2CC0292F2F702093E900981739F0FD
:1005E0007091EC002091ED005091F00003C0242F99
:1005F000762F50E021FF19C03091EB003E7F309301
:10060000EB003091ED003D7F3093ED003091EB0039
:1006100031603093EB007093EC002093ED00509329
:10062000F0002091EE0027FF08C09F5F973090F206
:100630008F708093E90081E0089580E00895EF9243
:10064000FF920F931F93CF93DF93162FE82EE701AE
:100650007E01F92EE70100E02AC09881992329F153
:100660006B81E981FA812C81892F8F70873018F591
:100670006295660F660F607C991F9927991F692BF9
:10068000223010F096E001C092E028E030E040E037
:1006900003C04F5F220F331F2E173F07D0F3429541
:1006A000407F492B95DF882331F00F5F2596011796
:1006B000A0F281E001C080E0DF91CF911F910F9106
:1006C000FF90EF9008958091180187FF13C004C038
:1006D000809117018823B9F08091E80082FFF8CF5C
:1006E0008091E8008B778093E8000895809117014E
:1006F000882349F08091E80080FFF8CF8091E800DE
:100700008E778093E80008958091E4009091E50051
:1007100044E62091EC0020FF26C02091E80020FD57
:1007200016C0209117012223A1F02530A1F02091BD
:10073000EB0025FD12C02091E4003091E500281760
:10074000390739F3442359F04150C901E2CF80E021
:10075000089582E0089583E0089581E0089584E09B
:10076000089580E008952091E80022FFDACFF9CFC4
:100770000F931F93CF93DF934ED055D0C8EDD0E0A9
:1007800088818F77888388818068888388818F7D3E
:100790008883E7EDF0E080818068808319BC109247
:1007A000170110921301109215011092140100EE1E
:1007B00010E0F80180818B7F80838881816088834D
:1007C00080E060E042E004DFE1EEF0E080818E7FD7
:1007D0008083E2EEF0E080818160808380818860A8
:1007E0008083F80180818E7F808388818061888307
:1007F000DF91CF911F910F910895E8EDF0E0808196
:100800008F7E8083E7EDF0E080818160808381E0EE
:1008100080931601ADCFE8EDF0E080818C7F80837E
:100820001092E20008951092DA001092E10008950B
:100830001F920F920FB60F920BB60F9211242F93A7
:100840003F934F935F936F937F938F939F93AF9358
:10085000BF93EF93FF938091E10082FF0AC08091E4
:10086000E20082FF06C08091E1008B7F8093E1006F
:10087000D4DC8091DA0080FF1DC08091D80080FF19
:1008800019C08091DA008E7F8093DA008091D900C0
:1008900080FF0CC08CE089BD8EE089BD09B400FEEC
:1008A000FDCF81E080931701A3DC04C019BC109236
:1008B0001701A0DC8091E10080FF18C08091E20068
:1008C00080FF14C08091E2008E7F8093E2008091CF
:1008D000E20080618093E2008091D8008062809382
:1008E000D80019BC85E080931701CDD18091E1003B
:1008F00084FF2DC08091E20084FF29C08CE089BD77
:100900008EE089BD09B400FEFDCF8091D8008F7DB7
:100910008093D8008091E1008F7E8093E1008091E8
:10092000E2008F7E8093E2008091E20081608093FC
:10093000E20080911301882321F48091E30087FF76
:1009400002C084E001C081E0809317019CD18091B6
:10095000E10083FF22C08091E20083FF1EC08091EE
:10096000E100877F8093E10082E08093170110927D
:1009700013018091E1008E7F8093E1008091E2007D
:100980008E7F8093E2008091E20080618093E2009C
:1009900080E060E042E01CDE76D1FF91EF91BF91F4
:1009A000AF919F918F917F916F915F914F913F9107
:1009B0002F910F900BBE0F900FBE0F901F901895A8
:1009C0001F93DF93CF93CDB7DEB7AC970FB6F894F4
:1009D000DEBF0FBECDBFE8E1F1E08091F100819371
:1009E00021E0E032F207C9F715DC8091E80083FFCF
:1009F00032C18091180120911901253009F484C079
:100A0000263040F42130A1F1213070F0233009F07C
:100A100022C12EC0283009F4F0C0293009F4FFC0EB
:100A2000263009F018C193C0803821F0823809F0CF
:100A300012C108C08091140190911501992371F0A1
:100A400082600CC080911C018F708093E9009091AE
:100A5000EB0081E095FF80E01092E9009091E800C2
:100A6000977F9093E8008093F1001092F100D0C03E
:100A7000882319F0823009F0EEC090E08F719070F9
:100A8000009729F08230910509F0E5C00BC08091F4
:100A90001A01813009F0DFC0233009F080E0809333
:100AA00015012CC080911A01882341F520911C0169
:100AB0002F7009F4D0C02093E9008091EB0080FFF3
:100AC0001DC080911901833021F48091EB00806278
:100AD00013C08091EB0080618093EB0081E090E097
:100AE00002C0880F991F2A95E2F78093EA001092BE
:100AF000EA008091EB0088608093EB001092E9009F
:100B00008091E800877F87C0882309F0A4C01091F6
:100B10001A011F778091E3008078812B8093E30096
:100B20008091E800877F8093E800CDDD8091E80028
:100B300080FFFCCF8091E30080688093E300112365
:100B400011F083E001C082E08093170184C08058D7
:100B5000823008F080C080911A0190911B0123E03F
:100B60008C3D920791F583E08C838AE28B835FB79B
:100B7000F894DE01159680E090E04EE061E2E42F0B
:100B8000F0E060935700E49180FF03C0E295EF70BE
:100B90004F5FEF702E2F30E0EA3018F0295C3F4FA6
:100BA00002C0205D3F4F2D933D9301968431910506
:100BB00031F75FBF8091E800877F8093E800CE0126
:100BC00003966AE270E007DC12C060911C01AE017E
:100BD0004F5F5F4F64DBBC01009709F43CC080911C
:100BE000E800877F8093E80089819A8193DC809177
:100BF000E8008B778093E8002EC0803861F5809103
:100C0000E800877F8093E800809113018093F100D2
:100C10008091E8008E778093E80055DD1CC0882322
:100C2000D1F490911A019230B0F48091E800877F5E
:100C30008093E8009093130146DD8091130188238F
:100C400021F48091E30087FF02C084E001C081E0CD
:100C500080931701D1DA8091E80083FF0AC0809168
:100C6000E800877F8093E8008091EB0080628093AA
:100C7000EB00AC960FB6F894DEBF0FBECDBFCF91A0
:100C8000DF911F91089508951F9380911701882384
:100C9000A9F08091E9008F709091EC0090FF02C064
:100CA00010E801C010E0182B1092E9008091E800D4
:100CB00083FF01C085DE1F701093E9001F91089526
:100CC0006F927F928F929F92AF92BF92CF92DF925C
:100CD000EF92FF920F931F93DF93CF9300D00F9269
:100CE000CDB7DEB77C016DB67EB68091E80083FF9C
:100CF0000DC1F701808190E020911C0130911D0110
:100D00002817390709F002C180911901833009F4CD
:100D1000A4C0843030F4813071F0823009F0F6C024
:100D2000D9C08A3009F4BEC08B3009F4A7C089301D
:100D300009F0ECC04CC080911801813A09F0E6C07E
:100D4000CDB6DEB69DB68D2C1B821A8280911A011B
:100D500000911B018983F7014085C41AD1080FB6A1
:100D6000F894DEBE0FBECDBE0894C11CD11CBC2CB5
:100D7000AD2CC60160E070E050E0DAD1402F415068
:100D8000C701BE016F5F7F4F96018E010E5F1F4F3F
:100D900050DAF701268137812115310529F0408588
:100DA000C901B60150E0BBD11092E9008091E80082
:100DB000877F8093E8006A817B818B2D9A2D0BDBE6
:100DC0008091E8008B778093E80094013EC0809189
:100DD0001801813209F09AC0CDB6DEB6BDB69D2CA1
:100DE00000911E0110911F01A0901A0180901B011B
:100DF0008DB79EB7801B910B0FB6F8949EBF0FBEA8
:100E00008DBFCDB6DEB60894C11CD11C8091E80020
:100E1000877F8093E800C601B8013BDB8091E80042
:100E20008E778093E80081E090E0AA2011F480E0C2
:100E300090E0482D41509601280F391F081B190BCF
:100E4000C7016A2D2BDA3B2D292D832F922F0FB648
:100E5000F8949EBF0FBE8DBF59C080911801813A92
:100E600009F054C08091E800877F8093E80080916A
:100E7000E80080FFFCCFF701818540C08091180118
:100E8000813209F043C08091E800877F8093E800B9
:100E90001ADC90911A0181E0992309F480E0F701AE
:100EA000818734C080911801813281F58091E800FA
:100EB000877F8093E80007DC80911A0190911B01E5
:100EC000807036E0969587953A95E1F7F70195871A
:100ED00084871CC080911801813AC1F48091E80098
:100EE000877F8093E8008091E80080FFFCCFF701C6
:100EF0008485958596958795969587958093F1003D
:100F00008091E8008E778093E800DDDB0FB6F894DF
:100F10007EBE0FBE6DBE0F900F900F90CF91DF91F0
:100F20001F910F91FF90EF90DF90CF90BF90AF9007
:100F30009F908F907F906F900895CF93DF93FC01E7
:100F40000996DC0187E0ED0119928A95E9F781E0C5
:100F5000818784EF91E09587848783E08483CF0144
:100F6000019661E06CDBDF91CF9108955F926F9203
:100F70007F928F929F92AF92BF92CF92DF92EF9229
:100F8000FF920F931F93DF93CF9300D000D0CDB784
:100F9000DEB77C016DB67EB680911701843009F012
:100FA00098C08091E4009091E500F7012285338597
:100FB0002817390709F48DC081818F708093E9006B
:100FC0008091E80085FF85C08DB6572C4085CDB651
:100FD000DEB6C41AD1080FB6F894DEBE0FBECDBE81
:100FE0000DB71EB70F5F1F4FB02EA12E19821B82A7
:100FF0001A82C80160E070E050E09AD0C701BE01DB
:101000006F5F7F4F40E098018E010E5F1F4F11D937
:10101000982EF70184859585009759F081E090E03E
:10102000268537852115310511F080E090E06C01AF
:1010300002C0CC24DD24F7010681178101151105BA
:10104000A1F04A815B818B2D9A2DB8015BD021E004
:10105000009709F420E0F7014085C8016B2D7A2D37
:1010600050E02C835CD02C8101C020E08A819B81E0
:10107000009709F1992029F4222319F4C114D1040D
:10108000D1F0F701848595859787868781818F7058
:101090008093E9008981882311F08093F1006A81AF
:1010A0007B818B2D9A2D40E050E037D98091E8006C
:1010B0008E778093E8008091E4009091E500F7013D
:1010C00093878287882D952D0FB6F8949EBF0FBE0B
:1010D0008DBF0FB6F8947EBE0FBE6DBE0F900F9001
:1010E0000F900F90CF91DF911F910F91FF90EF9094
:1010F000DF90CF90BF90AF909F908F907F906F9038
:101100005F900895FB01DC0104C08D91019080196E
:1011100021F441505040C8F7881B990B0895FB01FA
:10112000DC0102C001900D9241505040D8F7089563
:10113000DC0101C06D9341505040E0F70895F894F0
:02114000FFCFDF
:1011420000810800000110010300000000000000FF
:00000001FF
