:1000000091C00000ACC00000AAC00000A8C0000061
:10001000A6C00000A4C00000A2C00000A0C0000054
:100020009EC000009CC000001AC4000098C00000E0
:1000300096C0000094C0000092C0000090C0000074
:100040008EC000008CC000008AC0000088C0000084
:1000500086C0000084C0000082C0000080C0000094
:100060007EC000007CC000007AC0000078C00000A4
:1000700076C0000074C0000072C0000070C00000B4
:100080006EC000006CC000006AC0000068C00000C4
:1000900066C0000064C000001201100102000008E8
:1000A000EB03442001000102DC0109023E000201D1
:1000B00000C0320904000001020201000524001002
:1000C0000104240206052406000107058203080036
:1000D000FF09040100020A000000070504021000E5
:1000E00005070583021000050403090418034400F2
:1000F000650061006E002000430061006D00650036
:100100007200610000001C034C00550046004100D5
:1001100020004300440043002000440065006D00BF
:100120006F00000011241FBECFEFD0E2DEBFCDBFB5
:1001300011E0A0E0B1E0E2EFFCE000E00BBF02C0A4
:1001400007900D92AA35B107D9F711E0AAE5B1E001
:1001500001C01D92A836B107E1F706D1C8C550CF3E
:100160009BB19F70982B9BB9089584B7877F84BFFC
:1001700088E10FB6F89480936000109260000FBE83
:1001800090E080E80FB6F89480936100909361004E
:100190000FBE84B18F7184B98DB18F7C8DB985B15B
:1001A000806E85B98EB180638EB98AB1806F8AB94D
:1001B0008BB18F708BB938C380EAD2CF80E1D0CFBA
:1001C0000F931F9382E061EC42E05DD2082F83E041
:1001D00061E842E158D2182F84E060E842E153D24E
:1001E0001092520110925301109254011092550135
:1001F000202F30E0412F50E0242335232170307030
:1002000090E0282339232115310511F080E601C043
:1002100080E9A6DF1F910F910895809161018132DD
:1002200029F0823249F1803289F512C08091600153
:10023000813A61F58091E800877F8093E80082E54C
:1002400091E067E070E022D18091E8008B7711C0E7
:10025000809160018132D1F48091E800877F8093A2
:10026000E80082E591E067E070E06ED18091E800FF
:100270008E778093E800089580916001813231F497
:100280008091E800877F8093E80034C2089523B10D
:100290008CB190915F01943009F065C0809590E039
:1002A00080739070959587952095207E282B27FD4B
:1002B0000BC024FD0CC026FD0DC023FD0EC025FD86
:1002C0000FC010925A0143C080E091E00BC08EE055
:1002D00091E008C08EE191E005C08EE291E002C09D
:1002E0008FE391E020915A01222389F52091520158
:1002F0003091530140915401509155012115310520
:100300004105510521F121E020935A0123E020937A
:10031000E900DC010D900020E9F7BD01615070405B
:10032000681B790B40E050E053D08091F20090912F
:10033000F3002091E8002E772093E80080319105AA
:1003400031F4F9D18091E8008E778093E80084E061
:100350008093E9008091E80082FF05C08091E80069
:100360008B778093E800089500DF80E1F9DE7894D0
:100370008EDFA1D4FDCF923029F0933041F091303F
:10038000E9F417C02EE330E0EAEAF0E01BC0813068
:1003900041F0813018F0823089F406C0E8EEF0E0D8
:1003A00005C0ECEEF0E002C0E6E0F1E0249130E0C0
:1003B00009C022E130E0E8E9F0E004C020E030E0EC
:1003C000E0E0F0E0DA011196FC93EE93C9010895A4
:1003D0008F929F92BF92CF92DF92EF92FF920F93F4
:1003E0001F93DF93CF930F92CDB7DEB7E82E4B016B
:1003F0008A019983A0D1B82E99818823C9F5F92E55
:100400000115110539F0F80120813181821A930A12
:10041000E20EF31ECC24DD2426C08091E80085FD89
:1004200017C08091E8008E778093E80044D40115CE
:10043000110551F0F801808191818C0D9D1D9183F2
:10044000808325E0B22E14C076D1882361F00FC0DE
:10045000F70181917F018093F10008948108910850
:100460000894C11CD11C81149104B9F601C0B82EA6
:100470008B2D0F90CF91DF911F910F91FF90EF90F7
:10048000DF90CF90BF909F908F900895282F392FA5
:10049000F90180916601909167018617970718F41A
:1004A000BC0120E037C061157105D9F78091E800E3
:1004B0008E778093E800F5CF80915F01882309F45F
:1004C0003FC08530C9F18091E80083FD37C080913D
:1004D000E80082FD2BC08091E80080FF1BC0809166
:1004E000F2009091F30006C021912093F100615039
:1004F000704001966115710519F088309105A0F3DF
:1005000021E08830910509F020E08091E8008E77A5
:100510008093E8006115710579F6222369F606C01B
:1005200080915F01882361F0853061F08091E8005F
:1005300082FFF6CF80E0089583E0089581E008957A
:1005400082E0089583E008956115710531F520C0BA
:1005500020915F012223A9F1253079F12091E80053
:1005600023FD2DC02091E80022FFF2CFE82FF92FC4
:1005700007C08091F1008193CF016150704041F03C
:10058000CF012091F2003091F3002115310589F758
:100590002091E8002B772093E80061157105C1F6E2
:1005A00006C080915F01882361F0853061F0809101
:1005B000E80080FFF6CF80E0089583E0089581E0B1
:1005C000089582E0089583E00895E82FF92F80913F
:1005D0006601909167018617970718F4BC0120E027
:1005E00038C061157105D9F78091E8008E77809346
:1005F000E800F5CF80915F01882309F440C0853081
:10060000D1F18091E80083FD38C08091E80082FD3F
:100610002CC08091E80080FF1CC08091F200909176
:10062000F30007C024912093F1003196615070408F
:1006300001966115710519F08830910598F321E054
:100640008830910509F020E08091E8008E77809352
:10065000E8006115710571F6222361F606C08091EC
:100660005F01882361F0853061F08091E80082FFAE
:10067000F6CF80E0089583E0089581E0089582E058
:10068000089583E00895982F2CC0292F2F70209370
:10069000E900981739F07091EC002091ED0050912D
:1006A000F00003C0242F762F50E021FF19C03091B5
:1006B000EB003E7F3093EB003091ED003D7F3093B7
:1006C000ED003091EB0031603093EB007093EC0063
:1006D0002093ED005093F0002091EE0027FF08C01A
:1006E0009F5F973090F28F708093E90081E00895CA
:1006F00080E008958091600187FF13C004C080915D
:100700005F018823B9F08091E80082FFF8CF8091E3
:10071000E8008B778093E800089580915F0188233B
:1007200049F08091E80080FFF8CF8091E8008E7753
:100730008093E80008958091E4009091E50044E6FC
:100740002091EC0020FF26C02091E80020FD16C07B
:1007500020915F012223A1F02530A1F02091EB0030
:1007600025FD12C02091E4003091E50028173907DB
:1007700039F3442359F04150C901E2CF80E0089594
:1007800082E0089583E0089581E0089584E008956B
:1007900080E008952091E80022FFDACFF9CF0F938F
:1007A0001F93CF93DF934ED055D0C8EDD0E0888112
:1007B0008F77888388818068888388818F7D88830C
:1007C000E7EDF0E080818068808319BC10925F01C2
:1007D00010925B0110925D0110925C0100EE10E03E
:1007E000F80180818B7F808388818160888380E0AD
:1007F00060E042E048DFE1EEF0E080818E7F8083C0
:10080000E2EEF0E080818160808380818860808377
:10081000F80180818E7F8083888180618883DF9169
:10082000CF911F910F910895E8EDF0E080818F7EC8
:100830008083E7EDF0E080818160808381E08093B8
:100840005E01ADCFE8EDF0E080818C7F8083109277
:10085000E20008951092DA001092E10008951F92CC
:100860000F920FB60F920BB60F9211242F933F9356
:100870004F935F936F937F938F939F93AF93BF93A8
:10088000EF93FF938091E10082FF0AC08091E20024
:1008900082FF06C08091E1008B7F8093E1000AD245
:1008A0008091DA0080FF1DC08091D80080FF19C0C0
:1008B0008091DA008E7F8093DA008091D90080FFEA
:1008C0000CC08CE089BD8EE089BD09B400FEFDCF6F
:1008D00081E080935F0170DC04C019BC10925F015D
:1008E0006DDC8091E10080FF18C08091E20080FF04
:1008F00014C08091E2008E7F8093E2008091E2003C
:1009000080618093E2008091D80080628093D8005B
:1009100019BC85E080935F01CDD18091E10084FF17
:100920002DC08091E20084FF29C08CE089BD8EE05B
:1009300089BD09B400FEFDCF8091D8008F7D8093E2
:10094000D8008091E1008F7E8093E1008091E200E9
:100950008F7E8093E2008091E20081608093E200CC
:1009600080915B01882321F48091E30087FF02C01E
:1009700084E001C081E080935F019CD18091E1001F
:1009800083FF22C08091E20083FF1EC08091E100BE
:10099000877F8093E10082E080935F0110925B018A
:1009A0008091E1008E7F8093E1008091E2008E7F54
:1009B0008093E2008091E20080618093E20080E019
:1009C00060E042E060DE76D1FF91EF91BF91AF91A0
:1009D0009F918F917F916F915F914F913F912F9157
:1009E0000F900BBE0F900FBE0F901F9018951F9386
:1009F000DF93CF93CDB7DEB7AC970FB6F894DEBFD9
:100A00000FBECDBFE0E6F1E08091F100819321E0DF
:100A1000E836F207C9F701DC8091E80083FF32C1B4
:100A20008091600120916101253009F484C0263055
:100A300040F42130A1F1213070F0233009F022C1BF
:100A40002EC0283009F4F0C0293009F4FFC0263048
:100A500009F018C193C0803821F0823809F012C122
:100A600008C080915C0190915D01992371F08260D2
:100A70000CC0809164018F708093E9009091EB002D
:100A800081E095FF80E01092E9009091E800977F67
:100A90009093E8008093F1001092F100D0C0882379
:100AA00019F0823009F0EEC090E08F7190700097DD
:100AB00029F08230910509F0E5C00BC080916201F8
:100AC000813009F0DFC0233009F080E080935D01C0
:100AD0002CC080916201882341F5209164012F7020
:100AE00009F4D0C02093E9008091EB0080FF1DC085
:100AF00080916101833021F48091EB00806213C00A
:100B00008091EB0080618093EB0081E090E002C077
:100B1000880F991F2A95E2F78093EA001092EA0065
:100B20008091EB0088608093EB001092E900809147
:100B3000E800877F87C0882309F0A4C01091620174
:100B40001F778091E3008078812B8093E300809170
:100B5000E800877F8093E800CDDD8091E80080FF8A
:100B6000FCCF8091E30080688093E300112311F0B3
:100B700083E001C082E080935F0184C080588230AE
:100B800008F080C0809162019091630123E08C3D68
:100B9000920791F583E08C838AE28B835FB7F894A8
:100BA000DE01159680E090E04EE061E2E42FF0E097
:100BB00060935700E49180FF03C0E295EF704F5FB0
:100BC000EF702E2F30E0EA3018F0295C3F4F02C062
:100BD000205D3F4F2D933D9301968431910531F770
:100BE0005FBF8091E800877F8093E800CE01039685
:100BF0006AE270E04BDC12C060916401AE014F5FAD
:100C00005F4FB9DBBC01009709F43CC08091E8005C
:100C1000877F8093E80089819A81D7DC8091E80002
:100C20008B778093E8002EC0803861F58091E800D2
:100C3000877F8093E80080915B018093F100809131
:100C4000E8008E778093E80055DD1CC08823D1F43E
:100C5000909162019230B0F48091E800877F809398
:100C6000E80090935B0146DD80915B01882321F4CD
:100C70008091E30087FF02C084E001C081E080939F
:100C80005F019EDA8091E80083FF0AC08091E8004E
:100C9000877F8093E8008091EB0080628093EB0077
:100CA000AC960FB6F894DEBF0FBECDBFCF91DF91EB
:100CB0001F91089508951F9380915F018823A9F0E3
:100CC0008091E9008F709091EC0090FF02C010E8D5
:100CD00001C010E0182B1092E9008091E80083FF1A
:100CE00001C085DE1F701093E9001F910895F894EC
:020CF000FFCF34
:100CF2004A6F79737469636B2055700D0A004A6FED
:100D020079737469636B20446F776E0D0A004A6FC2
:100D120079737469636B204C6566740D0A004A6FBF
:100D220079737469636B2052696768740D0A004AAB
:100D32006F79737469636B20507265737365640DA8
:0A0D42000A00000000000000080095
:00000001FF
