:10000000D3C00000EDC00000EBC00000E9C000005C
:10001000E7C00000E5C00000E3C00000E1C0000050
:10002000DFC00000DDC0000085C400004CC500003A
:10003000D7C00000D5C00000D3C00000D1C0000070
:10004000CFC00000CDC00000CBC00000C9C0000080
:10005000C7C00000C5C00000C3C00000C1C0000090
:10006000BFC00000BDC00000BBC00000B9C00000A0
:10007000B7C00000B5C00000B3C00000B1C00000B0
:10008000AFC00000ADC00000ABC00000A9C00000C0
:10009000A7C00000A5C00000A3C00000A1C00000D0
:1000A0009FC000009DC000009BC000000501090228
:1000B000A1010901A1000509190129031500250164
:1000C00095037501810295017505810105010930CE
:1000D000093116FFFF26010036FFFF460100950299
:1000E00075088106C0C012011001EF020108EB0380
:1000F000622001000102DC0109025F00030100C06F
:1001000032080B0002020201000904000001020291
:100110000100052400100104240206052406000144
:10012000070582030800FF09040100020A0000001D
:1001300007050402100005070583021000050904E5
:1001400002000103010200092111010001223A000D
:10015000070581030800050403090418034400652A
:100160000061006E002000430061006D00650072B8
:10017000006100000030034C0055004600410020A3
:1001800000430044004300200061006E0064002032
:10019000004D006F0075007300650020004400658D
:1001A000006D006F0000000011241FBECFEFDAE0E9
:1001B000DEBFCDBF11E0A0E0B1E0ECEBF5E102C0A5
:1001C00005900D92AE37B107D9F711E0AEE7B1E077
:1001D00001C01D92AF38B107E1F75ED00C94DC0A84
:1001E0000FCF9EB19F7B982B9EB9089523B18CB100
:1001F000809590E080739070959587952095207EEE
:10020000822B089584B7877F84BF88E10FB6F89466
:1002100080936000109260000FBE90E080E80FB6FF
:10022000F89480936100909361000FBE84B18F7148
:1002300084B98DB18F7C8DB985B1806E85B98EB151
:1002400080638EB96E9A769858C3D0DF87FD0BC055
:1002500084FD0CC086FD0DC083FD0EC085FD0FC062
:1002600010927E01089560E071E00BC06EE071E0D5
:1002700008C06EE171E005C06EE271E002C06FE39C
:1002800071E080917E01882331F481E080937E01CA
:1002900082E591E0A4C60895B5DF80E4A2DF7894FA
:1002A000D4DF82E591E00AD782E591E0EFD68DE6D2
:1002B00091E00E94F109A6D5F3CF80E092CF80E4CF
:1002C00090CF1F938DE691E00E94D809182F82E508
:1002D00091E061D69091E20094609093E200212F2A
:1002E00030E090E02823392320FF02C080E001C0E5
:1002F00080E477DF1F91089582E591E09FD58DE638
:1003000091E019C780917B0190917C01009729F0C1
:10031000019790937C0180937B010895EF92FF9267
:100320000F931F93CF93DF93E22EE7017E01F32E0D
:10033000E7015CDF9CB19095947087FF02C02FEFBE
:1003400003C084FF02C021E02A8386FF02C02FEF92
:1003500003C083FF02C021E0298385FF03C0888199
:1003600081608883992319F088818260888383E083
:1003700090E0F8019183808381E0DF91CF911F911C
:100380000F91FF90EF9008950895933089F0943085
:1003900028F4913049F1923061F505C09132D1F0E5
:1003A000923239F51CC02FE530E0E8EFF0E025C0CF
:1003B000813041F0813018F08230D9F406C0E7E591
:1003C000F1E005C0EBE5F1E002C0E5E7F1E02491E2
:1003D00030E013C029E030E0E7E4F1E00EC02AE3AA
:1003E00030E0ECEAF0E009C022E130E0E6EEF0E0D7
:1003F00004C020E030E0E0E0F0E0DA011196FC9388
:10040000EE93C90108958F929F92BF92CF92DF928F
:10041000EF92FF920F931F93DF93CF930F92CDB77D
:10042000DEB7E82E4B018A019983F3D1B82E99816A
:100430008823C1F5F92E0115110539F0F801208145
:100440003181821A930AE20EF31ECC24DD2425C0EA
:100450008091E80085FD16C08091E8008E7780933A
:10046000E8000115110551F0F801808191818C0D92
:100470009D1D9183808325E0B22E14C0CAD18823AC
:1004800061F00FC0F70181917F018093F100089422
:10049000810891080894C11CD11C81149104C1F6F3
:1004A00001C0B82E8B2D0F90CF91DF911F910F912E
:1004B000FF90EF90DF90CF90BF909F908F90089526
:1004C000482F592FFA0180918D0190918E01861746
:1004D000970718F4BC0140E03CC061157105D9F7DD
:1004E0008091E8008E778093E800F5CF80918601B7
:1004F000882309F444C08530F1F18091E80083FD40
:100500003CC08091E80082FD30C08091E80080FF0F
:1005100020C09091F3008091F200392F20E090E00C
:10052000822B932B06C041914093F10061507040A3
:1005300001966115710519F088309105A0F341E02D
:100540008830910509F040E08091E8008E77809333
:10055000E8006115710551F6442341F606C080910B
:100560008601882361F0853061F08091E80082FF88
:10057000F6CF80E0089583E0089581E0089582E059
:10058000089583E008956115710559F525C04091DE
:1005900086014423D1F14530A1F14091E80043FDAB
:1005A00032C04091E80042FFF2CFE82FF92F07C098
:1005B0008091F1008193CF016150704069F0CF01CB
:1005C0005091F3004091F200352F20E050E0422B93
:1005D000532B4115510561F74091E8004B7740934B
:1005E000E8006115710599F606C08091860188239F
:1005F00061F0853061F08091E80080FFF6CF80E007
:10060000089583E0089581E0089582E0089583E0ED
:100610000895E82FF92F80918D0190918E01861712
:10062000970718F4BC0140E03EC061157105D9F789
:100630008091E8008E778093E800F5CF8091860165
:10064000882309F446C0853009F43FC08091E80052
:1006500083FD3DC08091E80082FD31C08091E800BB
:1006600080FF21C09091F3008091F200392F20E0AB
:1006700090E0822B932B07C044914093F100319678
:100680006150704001966115710519F0883091052F
:1006900098F341E08830910509F040E08091E8004E
:1006A0008E778093E8006115710541F6442331F699
:1006B00006C080918601882361F0853061F08091C9
:1006C000E80082FFF6CF80E0089583E0089581E09E
:1006D000089582E0089583E00895982F2CC0292F73
:1006E0002F702093E900981739F07091EC00209159
:1006F000ED005091F00003C0242F762F50E021FF31
:1007000019C03091EB003E7F3093EB003091ED004B
:100710003D7F3093ED003091EB0031603093EB0082
:100720007093EC002093ED005093F0002091EE00C8
:1007300027FF08C09F5F973090F28F708093E90089
:1007400081E0089580E00895EF92FF920F931F9348
:10075000CF93DF93162FE82EE7017E01F92EE701F4
:1007600000E02AC09881992329F16B81E981FA81FF
:100770002C81892F8F70873018F56295660F660F70
:10078000607C991F9927991F692B223010F096E001
:1007900001C092E028E030E040E003C04F5F220F4C
:1007A000331F2E173F07D0F34295407F492B95DF2B
:1007B000882331F00F5F25960117A0F281E001C078
:1007C00080E0DF91CF911F910F91FF90EF900895FE
:1007D0008091870187FF13C004C080918601882320
:1007E000B9F08091E80082FFF8CF8091E8008B7724
:1007F0008093E800089580918601882349F08091D4
:10080000E80080FFF8CF8091E8008E778093E800C1
:1008100008958091E4009091E50044E62091EC0079
:1008200020FF26C02091E80020FD16C020918601FF
:100830002223A1F02530A1F02091EB0025FD12C06C
:100840002091E4003091E5002817390739F344235B
:1008500059F04150C901E2CF80E0089582E0089547
:1008600083E0089581E0089584E0089580E008958C
:100870002091E80022FFDACFF9CF0F931F93CF9397
:10088000DF934BD052D0C8EDD0E088818F7788833A
:1008900088818068888388818F7D888319BC1092C5
:1008A000860110928201109284011092830100EE61
:1008B00010E0F80180818B7F80838881816088834C
:1008C00080E060E042E009DFE1EEF0E080818E7FD1
:1008D0008083E2EEF0E080818160808380818860A7
:1008E0008083F80180818E7F808388818061888306
:1008F000DF91CF911F910F910895E8EDF0E0808195
:100900008F7E8083E7EDF0E080818160808384E0EA
:1009100082BF81E080938501B0CFE8EDF0E0808177
:100920008E7F80831092E20008951092DA00109278
:10093000E10008951F920F920FB60F9211242F938A
:100940003F934F935F936F937F938F939F93AF9357
:10095000BF93EF93FF938091E10082FF0AC08091E3
:10096000E20082FF06C08091E1008B7F8093E1006E
:10097000C9DC8091DA0080FF1DC08091D80080FF23
:1009800019C08091DA008E7F8093DA008091D900BF
:1009900080FF0CC080E189BD82E189BD09B400FE01
:1009A000FDCF81E08093860188DC04C019BC1092E1
:1009B000860185DC8091E10080FF18C08091E20013
:1009C00080FF14C08091E2008E7F8093E2008091CE
:1009D000E20080618093E2008091D8008062809381
:1009E000D80019BC85E0809386010BD28091E1008C
:1009F00084FF2DC08091E20084FF29C080E189BD81
:100A000082E189BD09B400FEFDCF8091D8008F7DC1
:100A10008093D8008091E1008F7E8093E1008091E7
:100A2000E2008F7E8093E2008091E20081608093FB
:100A3000E20080918201882321F48091E30087FF06
:100A400002C084E001C081E080938601DAD1809108
:100A5000E10083FF27C08091E20083FF23C08091E3
:100A6000E100877F8093E10082E08093860110920D
:100A700082018091E1008E7F8093E1008091E2000D
:100A80008E7F8093E2008091E20080618093E2009B
:100A900080E060E042E021DE8091F0008860809399
:100AA000F000AFD1FF91EF91BF91AF919F918F91E6
:100AB0007F916F915F914F913F912F910F900FBE5A
:100AC0000F901F9018951F920F920FB60F9211243E
:100AD0001F932F933F934F935F936F937F938F93C6
:100AE0009F93AF93BF93EF93FF931091E9001F7013
:100AF0008091EC001092E9008091F000877F809354
:100B0000F00078941BD01092E9008091F00088608A
:100B10008093F0001093E900FF91EF91BF91AF91A6
:100B20009F918F917F916F915F914F913F912F9105
:100B30001F910F900FBE0F901F9018951F93DF937A
:100B4000CF93CDB7DEB7AC970FB6F894DEBF0FBE2C
:100B5000CDBFE7E8F1E08091F100819321E0EF382B
:100B6000F207C9F7C9DB8091E80083FF32C18091A9
:100B7000870120918801253009F484C0263040F493
:100B80002130A1F1213070F0233009F022C12EC0B4
:100B9000283009F4F0C0293009F4FFC0263009F0EC
:100BA00018C193C0803821F0823809F012C108C002
:100BB0008091830190918401992371F082600CC02F
:100BC00080918B018F708093E9009091EB0081E020
:100BD00095FF80E01092E9009091E800977F909354
:100BE000E8008093F1001092F100D0C0882319F042
:100BF000823009F0EEC090E08F719070009729F07C
:100C00008230910509F0E5C00BC0809189018130E7
:100C100009F0DFC0233009F080E0809384012CC00C
:100C200080918901882341F520918B012F7009F46F
:100C3000D0C02093E9008091EB0080FF1DC080911F
:100C40008801833021F48091EB00806213C0809191
:100C5000EB0080618093EB0081E090E002C0880FA0
:100C6000991F2A95E2F78093EA001092EA0080919A
:100C7000EB0088608093EB001092E9008091E8001F
:100C8000877F87C0882309F0A4C0109189011F774E
:100C90008091E3008078812B8093E3008091E800CD
:100CA000877F8093E80094DD8091E80080FFFCCF8F
:100CB0008091E30080688093E300112311F083E0CA
:100CC00001C082E08093860184C08058823008F0A1
:100CD00080C08091890190918A0123E08C3D920728
:100CE00091F583E08C838AE28B835FB7F894DE0111
:100CF000159680E090E04EE061E2E42FF0E0609332
:100D00005700E49180FF03C0E295EF704F5FEF70F2
:100D10002E2F30E0EA3018F0295C3F4F02C0205DF2
:100D20003F4F2D933D9301968431910531F75FBF7D
:100D30008091E800877F8093E800CE0103966AE205
:100D400070E0BEDB12C060918B01AE014F5F5F4F60
:100D50001CDBBC01009709F43CC08091E800877F50
:100D60008093E80089819A8154DC8091E8008B7738
:100D70008093E8002EC0803861F58091E800877F7D
:100D80008093E800809182018093F1008091E800D7
:100D90008E778093E8001CDD1CC08823D1F49091ED
:100DA00089019230B0F48091E800877F8093E80059
:100DB000909382010DDD80918201882321F480913E
:100DC000E30087FF02C084E001C081E080938601D8
:100DD00078DA8091E80083FF0AC08091E800877F7D
:100DE0008093E8008091EB0080628093EB00AC96EA
:100DF0000FB6F894DEBF0FBECDBFCF91DF911F912C
:100E0000089508951F93809186018823A9F0809109
:100E1000E9008F709091EC0090FF02C010E801C0D3
:100E200010E0182B1092E9008091E80083FF01C0C8
:100E300085DE1F701093E9001F910895CF93DF9313
:100E4000EC018091E80083FFA3C0888190E02091AD
:100E50008B0130918C012817390709F099C08091D6
:100E60008801813269F0823220F4803209F090C02A
:100E70003CC0823209F46BC0833209F089C07AC069
:100E800080918701813A09F083C08091E800877FD3
:100E90008093E8008091E80080FFFCCF8C899D89D9
:100EA000AE89BF898093F100292F3A2F4B2F552708
:100EB0002093F1009D01442755272093F1008B2FAB
:100EC0009927AA27BB278093F100888D8093F10092
:100ED000898D8093F1008A8D8093F1008091E800E4
:100EE0008E778093E80074DC53C080918701813253
:100EF00009F04EC08091E800877F8093E80005C02C
:100F000080918601882309F443C08091E80082FF24
:100F1000F7CF3091F1002091F1009091F100809194
:100F2000F1003C8B2D8B9E8B8F8B8091F100888FF5
:100F30008091F100898F8091F1008A8F8091E80083
:100F40008B778093E80044DCCE01F4D021C08091FF
:100F500087018132E9F48091E800877F8093E8007F
:100F600037DC8091890190918A01998B888BCE0121
:100F7000E1D00EC080918701813251F48091E80068
:100F8000877F8093E80024DCCE0160918901D2D074
:100F9000DF91CF910895CF93DF93EC014096FC0150
:100FA0008BE0DF011D928A95E9F782E08C838987C7
:100FB00083E08E87CE01019661E0C6DB882359F07D
:100FC000CE01069661E0C0DB882329F0CE010B96A6
:100FD00061E0BADB01C080E0DF91CF910895FC01B0
:100FE000CB01209186012430C1F4248935894689BA
:100FF0005789211531054105510589F021812F704F
:101000002093E900FB0101900020E9F73197E61BEE
:10101000F70BBF0140E050E0F6C982E0089582E09E
:101020000895FC0180918601843051F52489358929
:1010300046895789211531054105510509F18181FD
:101040008F708093E9009091F3008091F200392F26
:1010500020E090E0822B932B0097A1F09091E80084
:101060008091E8008E778093E80095FD0DC0D1DB7C
:10107000882359F49091E8009E779093E8000895B2
:1010800082E0089580E0089580E00895209186012F
:10109000243099F4FC012489358946895789211522
:1010A00031054105510549F021812F702093E90058
:1010B0002091E80020FF01C0B4CF0895FC01809189
:1010C0008601843099F52489358946895789211507
:1010D00031054105510551F186818F708093E900FA
:1010E0008091E80082FF22C09091F3008091F2008D
:1010F000392F20E090E0822B932B009721F0209154
:10110000F10030E002C02FEF3FEF9091F3008091AB
:10111000F200592F40E090E0842B952B009741F48A
:101120008091E8008B778093E80002C02FEF3FEFBB
:10113000C901089508956F927F928F929F92AF9206
:10114000BF92CF92DF92EF92FF920F931F93DF93A4
:10115000CF9300D00F92CDB7DEB77C016DB67EB6CF
:101160008091E80083FF0DC1F701808190E020911C
:101170008B0130918C012817390709F002C1809149
:101180008801833009F4A4C0843030F4813071F0D8
:10119000823009F0F6C0D9C08A3009F4BEC08B3065
:1011A00009F4A7C0893009F0ECC04CC080918701D8
:1011B000813A09F0E6C0CDB6DEB69DB68D2C1B8215
:1011C0001A828091890100918A018983F701408503
:1011D000C41AD1080FB6F894DEBE0FBECDBE089477
:1011E000C11CD11CBC2CAD2CC60160E070E050E0ED
:1011F000DCD1402F4150C701BE016F5F7F4F960188
:101200008E010E5F1F4F8AD8F70126813781211585
:10121000310529F04085C901B60150E0BDD11092D9
:10122000E9008091E800877F8093E8006A817B81F4
:101230008B2D9A2D45D98091E8008B778093E8001B
:1012400094013EC080918701813209F09AC0CDB6E9
:10125000DEB6BDB69D2C00918D0110918E01A0903F
:10126000890180908A018DB79EB7801B910B0FB6C4
:10127000F8949EBF0FBE8DBFCDB6DEB60894C11CDC
:10128000D11C8091E800877F8093E800C601B801F7
:101290007AD98091E8008E778093E80081E090E031
:1012A000AA2011F480E090E0482D41509601280FCB
:1012B000391F081B190BC7016A2D66D83B2D292D34
:1012C000832F922F0FB6F8949EBF0FBE8DBF59C0CB
:1012D00080918701813A09F054C08091E800877FAE
:1012E0008093E8008091E80080FFFCCFF7018185C2
:1012F00040C080918701813209F043C08091E800AD
:10130000877F8093E80064DA9091890181E09923D6
:1013100009F480E0F701818734C080918701813230
:1013200081F58091E800877F8093E80051DA809111
:10133000890190918A01807036E0969587953A955B
:10134000E1F7F701958784871CC080918701813A76
:10135000C1F48091E800877F8093E8008091E800E5
:1013600080FFFCCFF70184859585969587959695A6
:1013700087958093F1008091E8008E778093E80054
:1013800027DA0FB6F8947EBE0FBE6DBE0F900F9099
:101390000F90CF91DF911F910F91FF90EF90DF9011
:1013A000CF90BF90AF909F908F907F906F90089557
:1013B000CF93DF93FC010996DC0187E0ED011992E0
:1013C0008A95E9F781E0818784EF91E095878487AA
:1013D00083E08483CF01019661E0B6D9DF91CF919C
:1013E00008955F926F927F928F929F92AF92BF9279
:1013F000CF92DF92EF92FF920F931F93DF93CF93E1
:1014000000D000D0CDB7DEB77C016DB67EB680913E
:101410008601843009F09AC08091E4009091E50043
:10142000F701228533852817390709F48FC0818198
:101430008F708093E9008091E80085FF87C08DB6AA
:10144000572C4085CDB6DEB6C41AD1080FB6F89435
:10145000DEBE0FBECDBE0DB71EB70F5F1F4FB02E45
:10146000A12E19821B821A82C80160E070E050E050
:101470009CD0C701BE016F5F7F4F40E098018E0195
:101480000E5F1F4F0E948E01982EF701848595856F
:10149000009759F081E090E02685378521153105C8
:1014A00011F080E090E06C0102C0CC24DD24F70153
:1014B0000681178101151105A1F04A815B818B2DF1
:1014C0009A2DB8015CD021E0009709F420E0F701E3
:1014D0004085C8016B2D7A2D50E02C835DD02C8186
:1014E00001C020E08A819B81009711F1992029F4A5
:1014F000222319F4C114D104D9F0F701848595850C
:101500009787868781818F708093E90089818823FE
:1015100011F08093F1006A817B818B2D9A2D40E040
:1015200050E00E9403028091E8008E778093E800EB
:101530008091E4009091E500F70193878287882DE0
:10154000952D0FB6F8949EBF0FBE8DBF0FB6F894C1
:101550007EBE0FBE6DBE0F900F900F900F90CF917B
:10156000DF911F910F91FF90EF90DF90CF90BF9090
:10157000AF909F908F907F906F905F900895FB0148
:10158000DC0104C08D910190801921F4415050403C
:10159000C8F7881B990B0895FB01DC0102C001907C
:1015A0000D9241505040D8F70895DC0101C06D9371
:0C15B00041505040E0F70895F894FFCF40
:1015BC004A6F79737469636B2055700D0A004A6F1A
:1015CC0079737469636B20446F776E0D0A004A6FF0
:1015DC0079737469636B204C6566740D0A004A6FED
:1015EC0079737469636B2052696768740D0A004AD9
:1015FC006F79737469636B20507265737365640DD6
:10160C000A00008310000001041000000182080091
:10161C000001000000000000000000000002810832
:0E162C000000017F010300000000000000002C
:00000001FF
