:1000000015C1000031C100002FC100002DC100004A
:100010002BC1000029C1000027C1000025C100003C
:1000200023C1000021C10000E0C500001DC1000087
:100030001BC1000019C1000017C1000015C100005C
:1000400013C1000011C100000FC100000DC100006C
:100050000BC1000009C1000007C1000005C100007C
:1000600003C1000001C10000FFC00000FDC000008E
:10007000FBC00000F9C00000F7C00000F5C00000A0
:10008000F3C00000F1C00000EFC00000EDC00000B0
:10009000EBC00000E9C000001B5B33316D446576A6
:1000A00020456E756D204572726F720D0A202D2DE0
:1000B000204572726F7220436F64652025640D0ABB
:1000C000202D2D20537562204572726F7220436F70
:1000D00064652025640D0A202D2D20496E2053745F
:1000E0006174652025640D0A1B5B33376D001B5B53
:1000F00033316D486F7374204D6F646520457272A3
:100100006F720D0A202D2D204572726F7220436F81
:1001100064652025640D0A1B5B33376D004344433F
:100120002044657669636520456E756D65726174FE
:1001300065642E0D0A004572726F722053657474E7
:10014000696E6720446576696365204C696E652039
:10015000456E636F64696E672E0D0A004572726F9B
:10016000722053657474696E6720446576696365AF
:1001700020436F6E66696775726174696F6E2E0DCC
:100180000A0041747461636865642044657669633C
:1001900065204E6F7420612056616C696420434471
:1001A0004320436C617373204465766963652E0D4B
:1001B0000A004572726F72205265747269657669C1
:1001C0006E6720436F6E66696775726174696F6EE2
:1001D0002044657363726970746F722E0D0A000D8E
:1001E0000A44657669636520556E6174746163685D
:1001F00065642E0D0A004465766963652041747458
:1002000061636865642E0D0A001B5B33366D4344E1
:100210004320486F73742044656D6F2072756E6E55
:10022000696E672E0D0A1B5B33376D0011241FBEEC
:10023000CFEFD0E2DEBFCDBF11E0A0E0B1E0E2EA57
:10024000FBE100E00BBF02C007900D92A033B107A5
:10025000D9F711E0A0E3B1E001C01D92A235B107CA
:10026000E1F74DD00C94CF0DCBCE9BB19F70982B66
:100270009BB9089584B7877F84BF28E10FB6F894AF
:1002800020936000109260000FBE90E080E80FB6EF
:10029000F89480936100909361000FBE83E390E037
:1002A0009093CD008093CC0086E08093CA0010929A
:1002B000C8002093C900539A5A9A8AB1806F8AB9AC
:1002C0008BB18F708BB976D480E090E00C94B80A33
:1002D00080913D018B3091F480E091E00E94A6096D
:1002E000009761F080E091E00E94DA0997FD06C076
:1002F00060914E0170914F010C94D50A0895BADFB8
:1003000089E092E00E94200B80E1AFDF7894E0DF8B
:1003100080E091E00E94460AE3D6F9CF86EF91E0B3
:100320000E94200B80EAA1CF8FED91E00E94200B6C
:1003300080E19BCF0F931F93DF93CF93CDB7DEB7B1
:10034000C250D2400FB6F894DEBF0FBECDBF80EAD8
:100350008CDF8E010D5F1F4F81E0BE016F5F7F4F0D
:10036000A80120E032E0D4D4882319F082EB91E098
:100370002CC069817A8180E091E0A801F6D68823BB
:1003800019F082E891E021C081E085D6882319F038
:100390008CE591E01AC080E895E2A0E0B0E080939F
:1003A000180190931901A0931A01B0931B011092A8
:1003B0001C0110921D0188E080931E0180E091E0F5
:1003C000ABD7882331F086E391E00E94200B80E9CF
:1003D00005C08DE191E00E94200B80E646DFCE5FF4
:1003E000DD4F0FB6F894DEBF0FBECDBFCF91DF91CA
:1003F0001F910F910895DF93CF930F92CDB7DEB782
:10040000898370D300D000D0EDB7FEB731962EEEC1
:1004100030E0ADB7BEB712963C932E931197898109
:10042000828313820E94010B0F900F900F900F9008
:1004300080E91BDFFFCF90913D012DB73EB72850DB
:1004400030400FB6F8943EBF0FBE2DBFEDB7FEB7DC
:10045000319628E930E0ADB7BEB712963C932E93A3
:1004600011978283138264831582968317820E9478
:10047000010B2DB73EB7285F3F4F0FB6F8943EBF34
:100480000FBE2DBF80E9F1CE80919E0090E081707B
:1004900090702091A0002D7F2093A00020919E00BD
:1004A000226020939E0020919E0021FDFCCF209190
:1004B0009E00216020939E00109233012091A000A5
:1004C00030E0207230704091A0004F7D4093A0003A
:1004D00040919F004F7D40939F004AE050919F00C4
:1004E00055FF0BC040919F004F7D40939F0040916E
:1004F0009F004D7F40939F0008C0EFECF7E03197DD
:10050000F1F700C00000415049F72115310529F0ED
:100510002091A00020622093A000009729F48091F0
:100520009E008E7F80939E008091A00082608093C9
:10053000A000089540919E0050E0417050702091BD
:10054000A00030E0207230709091A0009F7D9093C9
:10055000A00090919F009F7D90939F0090919E009E
:10056000916090939E0026C090919F0095FF06C0D9
:1005700090919F009F7D90939F00815090913D01AD
:100580009130D9F09091A60094FF09C01092F50027
:100590008091A6008F7E8093A60082E00FC090918C
:1005A000A60091FF07C08091A6008D7F8093A600D2
:1005B00083E004C08823C1F601C081E041155105E4
:1005C00029F490919E009E7F90939E002115310505
:1005D00029F09091A00090629093A00008950F934D
:1005E0001F93DF93CF93CDB7DEB728970FB6F8945C
:1005F000DEBF0FBECDBF80913D01853009F499C0AB
:10060000863068F48230C1F1833018F48823A1F079
:1006100004C18330D9F1843009F0FFC062C0873053
:1006200009F49EC0873008F48FC0883009F4B8C040
:10063000893009F0F2C0D9C0009131011091320126
:100640000115110509F4E9C081E074DF682F8823E2
:1006500031F08091300180933D0181E0D2C00150A2
:10066000104010933201009331010115110509F07A
:10067000D4C08091300107C088EE93E0909332019E
:100680008093310183E080933D01C7C080913101A7
:10069000909132019C0121503040309332012093DF
:1006A0003101009739F08FEC97E00197F1F700C026
:1006B0000000B3C077988091D80080618093D80003
:1006C0008091DD008B7F8093DD008091D700806179
:1006D0008093D7008091DD0082608093DD0084E00C
:1006E000D2CF80919F0080FF98C080919F008E7F25
:1006F00080939F0080919F008D7F80939F008091C9
:10070000DF008D7F8093DF008091DE008260809328
:10071000DE0080919E00816080939E007AD11092CD
:100720003D0184E690E0909332018093310185E0B1
:1007300059C0AADE10923D0188EC90E090933201FE
:100740008093310186E04EC080E060E040E020E42C
:1007500030E001E0D0D0882309F44FC087E093CF88
:10076000A5E3B1E0E7E2F1E088E001900D9281506D
:10077000E1F71092A700CE0101968ED3682F88234F
:1007800009F03EC0888580932F017EDE10923D01E6
:1007900088EC90E0909332018093310188E022C090
:1007A00020912F0180E060E040E030E001E0A3D044
:1007B000882319F1A5E3B1E0EFE1F1E088E00190D1
:1007C0000D928150E1F780E090E066D3682F882396
:1007D000B9F410923D0184E690E090933201809349
:1007E000310189E08093300118C081E08093A1003D
:1007F0008AE080933D019EDD10C060E084E001C08E
:1008000083E090913D01913041F015DE8091DD0053
:1008100081608093DD0088DD7DD128960FB6F89445
:10082000DEBF0FBECDBFCF91DF911F910F91089515
:100830008F929F92BF92CF92DF92EF92FF920F938F
:100840001F93DF93CF930F92CDB7DEB7E82E4B0106
:100850008A018091AA008F7C80618093AA0099838D
:1008600012D1B82E99818823C1F5F92E01151105F1
:1008700039F0F80120813181821A930AE20EF31EC9
:10088000CC24DD2425C08091A60085FD16C0809172
:10089000A6008E778093A6000115110551F0F8018E
:1008A000808191818C0D9D1D9183808344E0B42EC5
:1008B00014C0E9D0882361F00FC08091AF00F70128
:1008C00081937F010894810891080894C11CD11C70
:1008D00081149104C1F601C0B82E8B2D0F90CF91D9
:1008E000DF911F910F91FF90EF90DF90CF90BF901D
:1008F0009F908F9008950F93582F5F7087FF02C0CD
:1009000080E101C080E2573008F059C0662309F445
:1009100080E04F706295660F660F607C642B682BD9
:10092000452F0260842F8F708093A7004517A1F494
:1009300088E090E070E003C07F5F880F991F821706
:10094000930710F47530C1F7872F8295807F802B35
:10095000F62F70E0E0E008C0F091AA008091AB00B3
:10096000E091AD007091AE0081FF20C09091A90090
:100970009E7F9093A9009091AB009D7F9093AB00D8
:100980009091A90091609093A900F093AA008093A0
:10099000AB00E093AD007093AE008091A90080623F
:1009A0008093A9008091AC0087FF09C04F5F47305A
:1009B00009F0B8CF5F705093A70081E001C080E0DC
:1009C0000F910895EF92FF920F931F93CF93DF93B0
:1009D000162FE82EE7017E01F92EE701FF240DC056
:1009E0008881882341F029813A816C814B810D8176
:1009F00082DF882331F0F3942696F11688F381E0A4
:100A000001C080E0DF91CF911F910F91FF90EF9097
:100A100008951092F80080E0982F9F709093A7009F
:100A20001092AE001092A6001092AB009091A90017
:100A30009E7F9093A9008F5F873071F70895409152
:100A4000A7009091AA0090E0292F2F702093A70073
:100A50002091AC0027FF0CC03091AA00532F5F708B
:100A600030FF02C020E001C020E8252B281749F004
:100A70009F5F973049F7842F8F708093A70080E0A5
:100A8000089581E008958091A2009091A30044E62A
:100A90002091AA002073203129F42091A60020FF84
:100AA00005C018C02091A60022FD14C02091A60008
:100AB00021FD12C020913D01213081F02091A20042
:100AC0003091A3002817390719F3442349F0415006
:100AD000C901DECF80E0089581E0089582E00895A5
:100AE00083E0089575D07CD0E0EEF0E080818160F5
:100AF0008083E8EDF0E080818F77808319BCA7EDDB
:100B0000B0E08C918E7F8C9380818F7E8083109259
:100B1000340108955DD064D08091D8008F778093A0
:100B2000D8008091D80080688093D8008091D80048
:100B30008F7D8093D8008091D7008F778093D700E6
:100B40008CE089BD8EE089BD09B400FEFDCF81E057
:100B500080933D011092330180E480932F018091B6
:100B6000D80080648093D8008091DD0081608093FC
:100B7000DD008091DD0084608093DD008091D700EE
:100B80008F7E8093D7006F9A779A8091DE00816084
:100B90008093DE008091DE0084608093DE0080918F
:100BA000E0008E7F8093E0008091D8008061809388
:100BB000D8000895E8EDF0E080818F7E8083E7ED36
:100BC000F0E080818160808381E080933401A2CF56
:100BD000E8EDF0E080818C7F80831092A000089582
:100BE0001092DA0010929F0008951F920F920FB694
:100BF0000F920BB60F9211242F933F934F935F9355
:100C00006F937F938F939F93AF93BF93EF93FF93D4
:100C100080919F0085FF0AC08091A00085FF06C0DB
:100C200080919F008F7D80939F000CD180919F00C9
:100C300081FF15C08091A00081FF11C080919F00AD
:100C40008D7F80939F0080919F008E7F80939F0077
:100C50008091A0008D7F8093A00066DB5BDF809198
:100C6000DF0081FF15C08091DE0081FF11C08091FF
:100C7000DF008D7F8093DF0077988091DD008160B9
:100C80008093DD0080E0B7DB4FDB81E080933D01A6
:100C90008091DF0080FF17C08091DE0080FF13C0CD
:100CA0008091DF008E7F8093DF008091DE008E7F59
:100CB0008093DE0033DB8091A00082608093A000EF
:100CC00082E080933D018091DF0082FF0EC0809121
:100CD000DE0082FF0AC08091DF008B7F8093DF00FF
:100CE00082E060E0A8DB20DB15DFFF91EF91BF9190
:100CF000AF919F918F917F916F915F914F913F91B4
:100D00002F910F900BBE0F900FBE0F901F90189554
:100D1000CF92DF92EF92FF920F931F93DF93CF93C7
:100D2000CDB7DEB729970FB6F894DEBF0FBECDBFA3
:100D30006B018A01790190E89093350196E09093D8
:100D4000360190E0019792609093380180933701CB
:100D500010923A011092390189E090E090933C01A1
:100D600080933B011092A700CE01019695D0882375
:100D7000B9F48B819C81F60191838083E816F90692
:100D800070F090933C0180933B01C80185D088238B
:100D900039F4F8019181923019F086E001C085E0C4
:100DA00029960FB6F894DEBF0FBECDBFCF91DF916D
:100DB0001F910F91FF90EF90DF90CF900895AF9229
:100DC000BF92CF92DF92EF92FF920F931F93CF9338
:100DD000DF938C01EB016A0123C0E881F9815F0197
:100DE000208130E0C7012E153F0508F4C901E80F46
:100DF000F91FF983E883F80120813181281B390B21
:100E00003183208388819981F6010995823041F0F0
:100E1000813069F4A882B982F801F182E08207C0CA
:100E2000F801E080F180E114F104B9F682E0DF918D
:100E3000CF911F910F91FF90EF90DF90CF90BF90D7
:100E4000AF90089508951F93CF93DF93182FC8EEA6
:100E5000D3E007C081E06EDB8823D1F42097B9F09E
:100E60002197112329F48091A60083FFF3CF0DC0B1
:100E7000113029F48091A60080FFECCF06C012301B
:100E800049F78091A60082FFE5CF80E001C084E0B1
:100E9000DF91CF911F910895EF92FF920F931F93CF
:100EA000CF93DF938C01E0909E00FF2481E0E82245
:100EB000FF24C0913B01D0913C0180919E00816054
:100EC00080939E0081E036DB882309F0CBC08091BF
:100ED000AA008F7C8093AA001092F5008091A60052
:100EE0008F7E8093A6008091A9008F7B8093A900BC
:100EF000E5E3F1E081918093AF0081E0ED33F80705
:100F0000C9F78091A60087778093A60080E09BDFD9
:100F1000882309F0A7C08091A90080648093A9006C
:100F200081E008DB882309F09DC08091350187FFAF
:100F30004FC08091AA008F7C80618093AA00011528
:100F4000110561F52DC08091A9008F7B8093A900C8
:100F500081E079DF882309F085C08091F6009091C7
:100F6000F700009749F4C0E0D0E006C08091AF00E0
:100F7000F80181938F0121978091F6009091F700FD
:100F8000009711F0209791F78091A90080648093D9
:100F9000A9008091A6008E778093A600209799F6ED
:100FA0008091AA008F7C80628093AA008091A90022
:100FB0008F7B8093A90082E046DF882309F052C02E
:100FC0008091A6008B778093A60082E03CDF4AC028
:100FD0000115110599F18091AA008F7C80628093A0
:100FE000AA008091A9008F7B8093A9001CC082E099
:100FF0002ADF8823B9F5F80106C081918F0180931B
:10100000AF00219759F08F012091F6003091F70041
:1010100080912F0190E02817390778F38091A6007E
:101020008B778093A600209711F782E00CDF88234E
:10103000C9F48091A90080648093A9008091AA00DE
:101040008F7C80618093AA008091A9008F7B809320
:10105000A90081E0F8DE882329F49091A6009E770C
:101060009093A6009091A90090649093A900E11438
:10107000F10429F490919E009E7F90939E0091E050
:101080009093A8001092A800DF91CF911F910F912B
:10109000FF90EF9008951F93182F1092350189E06B
:1010A00080933601109337011092380110923A0163
:1010B0001092390110923C0110923B011092A7004E
:1010C00080E090E0E9DE882349F410933301112396
:1010D00011F09BE001C09AE090933D011F910895AB
:1010E0001F931091A7001F708091AA001092A70073
:1010F00076DA1093A7001F910895FC018181843056
:1011000049F48581823031F48681823019F48781F7
:10111000813011F082E0089580E00895FC01818122
:10112000843049F485818A3031F48681882319F42A
:101130008781882311F082E0089580E00895FC0102
:101140008181853051F4838183708250823038F4FC
:10115000828175DC882319F404C0843021F082E098
:10116000089580E0089581E008954F925F926F9214
:101170007F928F929F92AF92BF92CF92DF92EF9227
:10118000FF920F931F93DF93CF9300D000D0CDB782
:10119000DEB78C017A8369835C834B834296FC01C2
:1011A0008DE0DF011D928A95E9F7EB81FC81818159
:1011B000823009F097C044245524AA24BB24CC24AF
:1011C000DD24EE24FF2483E0682E712C6C0E7D1E3E
:1011D0004E010894811C911C4114510439F0C40142
:1011E000B3014FE958E0EBDD8823D9F0A114B10435
:1011F00069F0C401B3014EE858E0E1DD882309F04D
:1012000073C0CC24DD24EE24FF24E6CFC401B30157
:101210004DE758E0D4DD882309F066C04B805C8040
:101220000EC0EB81FC81828187FF06C083818370C1
:10123000833021F45F0103C06F0101C07F01E1141D
:10124000F10451F2C114D10439F2A114B10421F214
:10125000F70184819581D80112969C938E93119702
:10126000828113968C93139722E014962C931497F3
:10127000F6018481958118969C938E9317978281AD
:1012800019968C9319971A962C93D50114968D91D3
:101290009C911597F8019687858712968C91878780
:1012A00083E0808BC80161E08DDB8823F9F0C80101
:1012B000069661E087DB8823C9F0C8010C9661E0DF
:1012C00081DB882399F0D20112968C911297F80154
:1012D000838B83E090E0958B848B978B868B81E06A
:1012E000828B04C081E003C082E001C080E00F90E7
:1012F0000F900F900F90CF91DF911F910F91FF9062
:10130000EF90DF90CF90BF90AF909F908F907F90A5
:101310006F905F904F900895FC01238931E23093E4
:10132000350130E2309336011092380110923701C6
:101330002093390110923A0127E030E030933C01CC
:1013400020933B011092A7004896A6CDFC01809106
:101350003D018B3059F58289882341F180818F705E
:101360008093A7008091A9008F7B8093A900809132
:10137000A60080FF16C08091F6009091F7000097BC
:1013800031F48091A6008E778093A6000AC08091E8
:10139000A90080648093A9002091F6003091F700A5
:1013A00007C08091A90080648093A90020E030E00C
:1013B000C9010895FC0180913D018B3081F582893E
:1013C000882369F180818F708093A7008091A900A4
:1013D0008F7B8093A9008091A60080FF18C0809128
:1013E000F6009091F700009721F02091AF0030E0D7
:1013F00002C02FEF3FEF8091F6009091F700009729
:1014000041F48091A6008E778093A60002C02FEF52
:101410003FEF8091A90080648093A90002C02FEF64
:101420003FEFC9010895FC0180913D018B3051F5DA
:101430008289882339F186818F708093A7008091FB
:10144000A9008F7B8093A9008091F6009091F7000E
:101450000097D1F09091A6008091A6008B778093A1
:10146000A60095FD08C00FDB882379F48091A600C3
:101470008B778093A6008091A90080648093A90057
:1014800080E0089582E0089580E008950F931F930F
:10149000DF93CF93CDB7DEB728970FB6F894DEBFB2
:1014A0000FBECDBF8C0180913D018B30C9F5F80195
:1014B00082898823A9F184858F708093A700809109
:1014C000A9008F7B8093A9008091A60080FF21C096
:1014D000CE01019668E070E040E050E0A9D98A8131
:1014E000803291F48981813A79F4C801469662E0AC
:1014F00070E040E050E09CD98091A6008E77809308
:10150000A600C80118D005C08091A6008E778093F0
:10151000A6008091A90080648093A900C80183DFA0
:1015200028960FB6F894DEBF0FBECDBFCF91DF91E6
:101530001F910F91089508959091C80095FFFCCFD9
:101540008093CE0080E090E008958091C80087FFEE
:1015500008C08091C80087FF07C02091CE0030E00E
:1015600005C02EEF3FEF02C02FEF3FEFC9010895F6
:10157000FC01009751F4EEE3F1E0F0934D01E093AC
:101580004C01F0934F01E0934E018EE0DF011D927C
:101590008A95E9F783E083838CE99AE091878087D5
:1015A00085EA9AE09387828708950F931F93CF93DC
:1015B000DF938C01EB018B8181FF1BC082FF0DC08B
:1015C0002E813F818C819D812817390764F4E88141
:1015D000F9810193F983E88306C0E885F985802FB6
:1015E0000995009731F48E819F8101969F838E83A8
:1015F00002C00FEF1FEFC801DF91CF911F910F9134
:101600000895DF93CF93CDB7DEB7FE013596619194
:10161000719180914E0190914F01DC0113962C91B4
:101620001397286013962C93AF0142D0E0914E019E
:10163000F0914F012381277F2383CF91DF9108957C
:10164000EF92FF920F931F93CF93DF938C01E09162
:101650004E01F0914F01838181FF20C0C0E0D0E0B6
:101660000CC0DB011896ED91FC9119970995009734
:1016700011F0CFEFDFEF0F5F1F4FF8018491609102
:101680004E0170914F01882361F7DB011896ED91AF
:10169000FC9119978AE00995009711F0CFEFDFEFE1
:1016A000CE01DF91CF911F910F91FF90EF900895A0
:1016B0002F923F924F925F926F927F928F929F9262
:1016C000AF92BF92CF92DF92EF92FF920F931F9350
:1016D000DF93CF93CDB7DEB72C970FB6F894DEBF6C
:1016E0000FBECDBF6C011B018A01FC01178216825F
:1016F000838181FFC4C12E010894411C511CF60155
:101700009381F10193FD859193FF81911F018823BE
:1017100009F4B1C1853239F493FD859193FF81912C
:101720001F01853221F490E0B6013FDFE8CFEE24BF
:10173000FF2420E02032B0F48B3269F08C3228F4A0
:10174000803251F0833271F40BC08D3239F0803326
:1017500049F421602CC02260246029C0286027C081
:10176000206125C027FD2CC0382F30533A3098F423
:1017700026FF08C08E2D880FE82EEE0CEE0CE80E2A
:10178000E30E15C08F2D880FF82EFF0CFF0CF80EFE
:10179000F30E20620CC08E3221F426FD6CC1206451
:1017A00006C08C3611F4206802C0883649F4F10175
:1017B00093FD859193FF81911F01882309F0BACF92
:1017C000982F9554933018F09052933028F40C5F72
:1017D0001F4FFFE3F9830DC0833631F0833771F07B
:1017E000833509F05CC021C0F801808189830E5FD8
:1017F0001F4F420171E0A72EB12C15C062E0662E8A
:10180000712C600E711EF8018080918026FF03C04C
:101810006E2D70E002C06FEF7FEFC4012C8756D1B0
:101820005C0183012C852F7716C052E0652E712C48
:10183000600E711EF8018080918026FF03C06E2D1E
:1018400070E002C06FEF7FEFC4012C8734D15C01E0
:101850002C852068830123FD1EC007C080E290E034
:10186000B6012C87A2DEFA942C858F2D90E0A81665
:10187000B906A0F310C0F40127FD859127FF8191DF
:101880004F0190E0B6012C8790DE2C85F110FA9480
:101890000894A108B108A114B10469F7E9C084361D
:1018A00011F0893641F527FF08C0F8016081718188
:1018B000828193810C5F1F4F09C0F80160817181A3
:1018C000882777FD8095982F0E5F1F4F4FE6B42E27
:1018D000B22297FF09C090958095709561957F4FD2
:1018E0008F4F9F4FF0E8BF2AA2012AE030E0F9D0E5
:1018F000782E741844C0853731F43FEEB32EB222EF
:101900002AE030E025C099EFB92EB2228F36C1F01F
:10191000803720F4883509F0AEC00DC0803721F043
:10192000883709F0A8C002C020E1B22AB4FE0BC07B
:1019300084E0B82A08C0B4FE09C0E6E0BE2A06C0AA
:1019400028E030E005C020E130E002C020E132E0D4
:10195000B7FE08C0F80160817181828193810C5FBC
:101960001F4F07C0F8016081718180E090E00E5F39
:101970001F4FA201B6D0782E7418FFE7BF22B6FE23
:101980000BC02EEFB2227E1438F4B4FE07C0B2FCB6
:1019900005C08FEEB82202C0A72C01C0AE2C8B2D43
:1019A00090E0B4FE0DC0FE01E70DF11D2081203353
:1019B00019F4E9EEBE2209C0A394B2FE06C004C029
:1019C00086789070009709F0A3948B2C9924B3FC2F
:1019D00013C0B0FE0EC0AF1428F4E72CEF0CEA18C9
:1019E000AF2C07C0E72C05C080E290E0B601DDDD3A
:1019F000A394AF14C8F304C0AF1410F4FA1801C0D4
:101A0000FF2484FE0EC080E390E0B601CEDD82FEAE
:101A10001DC081FE03C088E590E010C088E790E01B
:101A20000DC0C40186789070009781F081FC02C0DF
:101A300080E201C08BE2B7FC8DE290E0B601B5DD3B
:101A400005C080E390E0B601B0DDEA947E14C8F3EF
:101A50007A94F201E70DF11D808190E0B601A5DDD9
:101A60007720B1F705C080E290E0B6019EDDFA94E0
:101A7000FF20C9F744CEF6012681378102C02FEF3F
:101A80003FEFC9012C960FB6F894DEBF0FBECDBF55
:101A9000CF91DF911F910F91FF90EF90DF90CF904A
:101AA000BF90AF909F908F907F906F905F904F907E
:101AB0003F902F900895FC010590615070400110F7
:101AC000D8F7809590958E0F9F1F0895FC01615067
:101AD000704001900110D8F7809590958E0F9F1F50
:101AE0000895FA01AA27283051F1203181F1E894B4
:101AF0006F936E7F6E5F7F4F8F4F9F4FAF4FB1E001
:101B00003ED0B4E03CD0670F781F891F9A1FA11DFB
:101B1000680F791F8A1F911DA11D6A0F711D811DFC
:101B2000911DA11D20D009F468943F912AE0269FC1
:101B300011243019305D3193DEF6CF010895462F20
:101B40004770405D4193B3E00FD0C9F7F6CF462F01
:101B50004F70405D4A3318F0495D31FD405241936A
:101B600002D0A9F7EACFB4E0A69597958795779527
:101B70006795BA95C9F700976105710508959B01AE
:101B8000AC010A2E06945795479537952795BA9537
:101B9000C9F7620F731F841F951FA01D0895F89445
:021BA000FFCF75
:101BA200810000000001020000000001830000002B
:101BB2000001000000000000000000000000000022
:101BC200050100000000008006000100000800403E
:00000001FF
