:1000000040C100005CC100005AC1000058C100009E
:1000100056C1000054C1000052C1000050C1000090
:100020004EC100004CC1000081C7000048C1000063
:1000300046C1000044C1000042C1000040C10000B0
:100040003EC100003CC100003AC1000038C10000C0
:1000500036C1000034C1000032C1000030C10000D0
:100060002EC100002CC100002AC1000028C10000E0
:1000700026C1000024C1000022C1000020C10000F0
:100080001EC100001CC100001AC1000018C1000000
:1000900016C1000014C100004D494449204E6F7440
:1000A00065202573202D204368616E6E656C2025C8
:1000B000642C2050697463682025642C2056656C7C
:1000C0006F636974792025640D0A001B5B33316D01
:1000D00044657620456E756D204572726F720D0A0B
:1000E000202D2D204572726F7220436F646520258C
:1000F000640D0A202D2D20537562204572726F7297
:1001000020436F64652025640D0A202D2D20496E43
:100110002053746174652025640D0A1B5B33376DB1
:10012000001B5B33316D486F7374204D6F64652025
:100130004572726F720D0A202D2D204572726F72FA
:1001400020436F64652025640D0A1B5B33376D0007
:100150004D4944492044657669636520456E756D57
:100160006572617465642E0D0A001B5B33316D434B
:100170006F6E74726F6C204572726F7220285365B7
:100180007420436F6E66696775726174696F6E295A
:100190002E0D0A202D2D204572726F7220436F6440
:1001A000653A2025640D0A1B5B33376D00202D2D29
:1001B000204572726F7220436F64653A2025640D8A
:1001C0000A1B5B33376D001B5B33316D496E766103
:1001D0006C6964204465766963652E0D0A001B5BBB
:1001E00033316D436F6E74726F6C204572726F7233
:1001F000202847657420436F6E6669677572617465
:10020000696F6E292E0D0A0047657474696E672048
:10021000436F6E66696720446174612E0D0A001B8E
:100220005B33326D0D0A44657669636520556E61F6
:10023000747461636865642E0D0A1B5B33376D004F
:100240001B5B33326D44657669636520417474616C
:10025000636865642E0D0A1B5B33376D001B5B33CF
:10026000366D4D49444920486F73742044656D6F65
:100270002072756E6E696E672E0D0A1B5B33376DCB
:10028000000011241FBECFEFD0E2DEBFCDBF11E0D2
:10029000A0E0B1E0E6EAFAE100E00BBF02C007909F
:1002A0000D92A831B107D9F711E0A8E1B1E001C082
:1002B0001D92AB33B107E1F7BBD10C94510DA0CE29
:1002C0009BB19F70982B9BB9089584B7877F84BF9B
:1002D00028E10FB6F89420936000109260000FBEE2
:1002E00090E080E80FB6F8948093610090936100ED
:1002F0000FBE83E390E09093CD008093CC0086E026
:100300008093CA001092C8002093C900539A5A9A49
:100310008AB1806F8AB98BB18F708BB96A98729AE3
:1003200084B18F7184B98DB18F7C8DB985B1806EA8
:1003300085B98EB180638EB9DED580E090E00C94F3
:100340003A0A80E492E00E94760A80EAB9CF8FE10F
:1003500092E00E94760A80E1B3CF1F9388E092E09A
:100360000E94760A91D1182F882301F1813019F467
:100370008EED91E002C087EC91E00E94760A00D0F9
:1003800000D0EDB7FEB731962DEA31E0ADB7BEB77C
:1003900012963C932E931197128313820E94570A50
:1003A0000F900F900F900F9080E919C081E00E948C
:1003B000EC09882379F000D000D0EDB7FEB7319674
:1003C0002AE631E0ADB7BEB712963C932E93119753
:1003D0008283E3CF80E591E00E94760A80E670DFB9
:1003E0001F910895DF93CF930F92CDB7DEB7898326
:1003F0001AD500D000D0EDB7FEB7319621E231E03A
:10040000ADB7BEB712963C932E9311978981828324
:1004100013820E94570A0F900F900F900F9080E95F
:100420004FDFFFCF909126012DB73EB728503040C7
:100430000FB6F8943EBF0FBE2DBFEDB7FEB7319695
:100440002BEC30E0ADB7BEB712963C932E931197CC
:100450008283138264831582968317820E94570ACF
:100460002DB73EB7285F3F4F0FB6F8943EBF0FBE83
:100470002DBF80E925CF1F93DF93CF9300D000D00D
:10048000CDB7DEB7809126018B3009F0C9C081E07D
:100490008093A7008091A9008F7B8093A900809111
:1004A000A60080FF49C0CE01019664E070E040E004
:1004B00050E0AAD38091F6009091F700009729F4BC
:1004C0008091A6008E778093A6008981893029F0DB
:1004D000883091F583E091E002C080E091E02DB793
:1004E0003EB72A5030400FB6F8943EBF0FBE2DBF26
:1004F000EDB7FEB7319628E930E0ADB7BEB712963A
:100500003C932E931197938382838A8190E08F701E
:1005100090700196958384838B81868317828C816A
:1005200080871186C4D72DB73EB7265F3F4F0FB6E1
:10053000F8943EBF0FBE2DBF8091A90080648093C8
:10054000A90082E08093A7008091A9008F7B80930F
:10055000A9008091A60082FF63C013B18CB1809581
:1005600090E080739070959587951095107E182B6C
:100570009091180191278CB182FD02C039E001C031
:1005800030E0292F96FF04C016FF04C080E903C0A5
:1005900080E001C080E897FF05C017FF05C09DE31C
:1005A00080E904C09CE302C09DE380E823FF07C00C
:1005B00013FF03C09EE380E902C09EE380E824FFAE
:1005C00007C014FF03C09FE380E902C09FE380E8F7
:1005D00025FF04C015FF21C080E920C08823A9F0B1
:1005E000282F22952F702983832B8A839B8380E475
:1005F0008C83CE01019664E070E040E050E0A1D22F
:100600008091A6008B778093A6008091A9008064DA
:100610008093A9001093180103C080E89BE3E0CF0A
:100620000F900F900F900F90CF91DF911F91089531
:100630004CDE8DE592E05AD780E142DE78941BDFF4
:10064000F0D6FDCFFC018181843049F48581813071
:1006500031F48681833019F48781882311F082E098
:10066000089580E00895FC018181853029F483811B
:100670008370823019F404C0843021F082E0089540
:1006800080E0089581E008958F929F92AF92BF928B
:10069000CF92DF92EF92FF920F931F93DF93CF934E
:1006A000CDB7DEB7C450D2400FB6F894DEBF0FBE50
:1006B000CDBFAE014B5F5F4F5A83498383E0C82EA5
:1006C000D12CCC0EDD1E81E0B60120E032E0C1D499
:1006D000853009F44BC0863071F0882371F4EE2424
:1006E000FF2400E010E08824992456016E0108944C
:1006F000C11CD11C04C083E03CC081E03AC081141D
:10070000910439F0C501B60143E353E0F9D48823DD
:1007100071F0C501B60142E253E0F2D4882341F5FD
:1007200089809A80EE24FF2400E010E0E8CFE98180
:10073000FA81828187FF02C08F0101C07F0101150C
:100740001105E9F2E114F104D1F2F80124813581B7
:1007500081E862E0428101E0BAD2F701248135816B
:1007600082E062E04281B3D280E003C082E001C057
:1007700084E0CC5FDD4F0FB6F894DEBF0FBECDBF77
:10078000CF91DF911F910F91FF90EF90DF90CF906D
:10079000BF90AF909F908F90089580919E0090E0C1
:1007A000817090702091A0002D7F2093A000209157
:1007B0009E00226020939E0020919E0021FDFCCF90
:1007C00020919E00216020939E0010921C01209198
:1007D000A00030E0207230704091A0004F7D409327
:1007E000A00040919F004F7D40939F004AE05091B0
:1007F0009F0055FF0BC040919F004F7D40939F008D
:1008000040919F004D7F40939F0008C0EFECF7E0C0
:100810003197F1F700C00000415049F7211531052B
:1008200029F02091A00020622093A000009729F4D5
:1008300080919E008E7F80939E008091A0008260B8
:100840008093A000089540919E0050E04170507048
:100850002091A00030E0207230709091A0009F7D28
:100860009093A00090919F009F7D90939F00909106
:100870009E00916090939E0026C090919F0095FFEE
:1008800006C090919F009F7D90939F008150909112
:1008900026019130D9F09091A60094FF09C01092E2
:1008A000F5008091A6008F7E8093A60082E00FC0A5
:1008B0009091A60091FF07C08091A6008D7F809344
:1008C000A60083E004C08823C1F601C081E0411581
:1008D000510529F490919E009E7F90939E002115D2
:1008E000310529F09091A00090629093A0000895A6
:1008F0000F931F93DF93CF93CDB7DEB728970FB633
:10090000F894DEBF0FBECDBF80912601853009F47B
:1009100099C0863068F48230C1F1833018F488239E
:10092000A1F004C18330D9F1843009F0FFC062C066
:10093000873009F49EC0873008F48FC0883009F4EE
:10094000B8C0893009F0F2C0D9C000911A011091E5
:100950001B010115110509F4E9C081E074DF682F5E
:10096000882331F0809119018093260181E0D2C063
:100970000150104010931B0100931A01011511053D
:1009800009F0D4C08091190107C088EE93E09093DC
:100990001B0180931A0183E080932601C7C08091D8
:1009A0001A0190911B019C012150304030931B0192
:1009B00020931A01009739F08FEC97E00197F1F737
:1009C00000C00000B3C077988091D8008061809308
:1009D000D8008091DD008B7F8093DD008091D7006F
:1009E00080618093D7008091DD0082608093DD007C
:1009F00084E0D2CF80919F0080FF98C080919F00BB
:100A00008E7F80939F0080919F008D7F80939F00B9
:100A10008091DF008D7F8093DF008091DE00826017
:100A20008093DE0080919E00816080939E00B6D10D
:100A30001092260184E690E090931B0180931A01A6
:100A400085E059C0AADE1092260188EC90E09093D0
:100A50001B0180931A0186E04EC080E060E040E018
:100A600020E430E001E033D1882309F44FC087E06F
:100A700093CFAEE1B1E0EFE0F1E088E001900D92BC
:100A80008150E1F71092A700CE010196A6D3682FFE
:100A9000882309F03EC08885809317017EDE10927E
:100AA000260188EC90E090931B0180931A0188E066
:100AB00022C02091170180E060E040E030E001E0DA
:100AC00006D1882319F1AEE1B1E0E7E0F1E088E07A
:100AD00001900D928150E1F780E090E07ED3682F85
:100AE0008823B9F41092260184E690E090931B01CC
:100AF00080931A0189E08093190118C081E08093E6
:100B0000A1008AE08093260128DC10C060E084E028
:100B100001C083E090912601913041F083DC809107
:100B2000DD0081608093DD0012DC95D128960FB640
:100B3000F894DEBF0FBECDBFCF91DF911F910F9113
:100B400008958F929F92BF92CF92DF92EF92FF9281
:100B50000F931F93DF93CF930F92CDB7DEB7E82E9D
:100B60004B018A018091AA008F7C80628093AA0049
:100B700099832AD1B82E99818823C1F5F92E0115C0
:100B8000110539F0F80120813181821A930AE20EB1
:100B9000F31ECC24DD2425C08091A60085FD16C05F
:100BA0008091A6008B778093A6000115110551F066
:100BB000F801808191818C0D9D1D9183808324E0BB
:100BC000B22E14C001D1882361F00FC0F7018191CA
:100BD0007F018093AF000894810891080894C11C9C
:100BE000D11C81149104C1F601C0B82E8B2D0F9039
:100BF000CF91DF911F910F91FF90EF90DF90CF90F9
:100C0000BF909F908F9008958F929F92BF92CF92A6
:100C1000DF92EF92FF920F931F93DF93CF930F9288
:100C2000CDB7DEB7E82E4B018A018091AA008F7CF8
:100C300080618093AA009983C7D0B82E99818823B8
:100C4000C1F5F92E0115110539F0F8012081318126
:100C5000821A930AE20EF31ECC24DD2425C0809173
:100C6000A60085FD16C08091A6008E778093A60011
:100C70000115110551F0F801808191818C0D9D1DA8
:100C80009183808344E0B42E14C09ED0882361F009
:100C90000FC08091AF00F70181937F010894810814
:100CA00091080894C11CD11C81149104C1F601C0A3
:100CB000B82E8B2D0F90CF91DF911F910F91FF9048
:100CC000EF90DF90CF90BF909F908F9008950F93FB
:100CD000582F5F7087FF02C080E101C080E257306B
:100CE00008F059C0662309F480E04F706295660FE2
:100CF000660F607C642B682B452F0260842F8F70F9
:100D00008093A7004517A1F488E090E070E003C04D
:100D10007F5F880F991F8217930710F47530C1F712
:100D2000872F8295807F802BF62F70E0E0E008C04F
:100D3000F091AA008091AB00E091AD007091AE00FF
:100D400081FF20C09091A9009E7F9093A90090916F
:100D5000AB009D7F9093AB009091A9009160909320
:100D6000A900F093AA008093AB00E093AD007093CC
:100D7000AE008091A90080628093A9008091AC00B0
:100D800087FF09C04F5F473009F0B8CF5F705093BD
:100D9000A70081E001C080E00F9108951092F80053
:100DA00080E0982F9F709093A7001092AE00109251
:100DB000A6001092AB009091A9009E7F9093A9008D
:100DC0008F5F873071F708958091A2009091A30002
:100DD00044E62091AA002073203129F42091A60036
:100DE00020FF05C018C02091A60022FD14C020914C
:100DF000A60021FD12C020912601213081F0209112
:100E0000A2003091A3002817390719F3442349F0B1
:100E10004150C901DECF80E0089581E0089582E06D
:100E2000089583E0089575D07CD0E0EEF0E08081F5
:100E300081608083E8EDF0E080818F77808319BC4A
:100E4000A7EDB0E08C918E7F8C9380818F7E808324
:100E500010921D0108955DD064D08091D8008F77E5
:100E60008093D8008091D80080688093D8008091CA
:100E7000D8008F7D8093D8008091D7008F778093A2
:100E8000D7008CE089BD8EE089BD09B400FEFDCF9E
:100E900081E08093260110921C0180E48093170169
:100EA0008091D80080648093D8008091DD008160BB
:100EB0008093DD008091DD0084608093DD0080916F
:100EC000D7008F7E8093D7006F9A779A8091DE004B
:100ED00081608093DE008091DE0084608093DE007C
:100EE0008091E0008E7F8093E0008091D800806147
:100EF0008093D8000895E8EDF0E080818F7E8083B4
:100F0000E7EDF0E080818160808381E080931D01C6
:100F1000A2CFE8EDF0E080818C7F80831092A0006A
:100F200008951092DA0010929F0008951F920F9278
:100F30000FB60F920BB60F9211242F933F934F933E
:100F40005F936F937F938F939F93AF93BF93EF9331
:100F5000FF9380919F0085FF0AC08091A00085FFCC
:100F600006C080919F008F7D80939F000CD180915F
:100F70009F0081FF15C08091A00081FF11C080916A
:100F80009F008D7F80939F0080919F008E7F809334
:100F90009F008091A0008D7F8093A000D8D95BDF57
:100FA0008091DF0081FF15C08091DE0081FF11C0BC
:100FB0008091DF008D7F8093DF0077988091DD0046
:100FC00081608093DD0080E00DDAC1D981E08093FB
:100FD00026018091DF0080FF17C08091DE0080FF36
:100FE00013C08091DF008E7F8093DF008091DE0050
:100FF0008E7F8093DE00A5D98091A00082608093CF
:10100000A00082E0809326018091DF0082FF0EC065
:101010008091DE0082FF0AC08091DF008B7F809389
:10102000DF0082E060E0FED992D915DFFF91EF91F9
:10103000BF91AF919F918F917F916F915F914F91F0
:101040003F912F910F900BBE0F900FBE0F901F90EE
:101050001895CF92DF92EF92FF920F931F93DF9339
:10106000CF93CDB7DEB729970FB6F894DEBF0FBE8A
:10107000CDBF6B018A01790190E890931E0196E043
:1010800090931F0190E001979260909321018093CB
:101090002001109223011092220189E090E09093A8
:1010A0002501809324011092A700CE01019695D0CE
:1010B0008823B9F48B819C81F60191838083E816A3
:1010C000F90670F09093250180932401C80185D022
:1010D000882339F4F8019181923019F086E001C03B
:1010E00085E029960FB6F894DEBF0FBECDBFCF9135
:1010F000DF911F910F91FF90EF90DF90CF900895B7
:10110000AF92BF92CF92DF92EF92FF920F931F9315
:10111000CF93DF938C01EB016A0123C0E881F98151
:101120005F01208130E0C7012E153F0508F4C90199
:10113000E80FF91FF983E883F80120813181281B2A
:10114000390B3183208388819981F601099582309A
:1011500041F0813069F4A882B982F801F182E0821D
:1011600007C0F801E080F180E114F104B9F682E0F3
:10117000DF91CF911F910F91FF90EF90DF90CF9073
:10118000BF90AF90089508951F93CF93DF93182FCA
:10119000C8EED3E007C081E056DB8823D1F4209766
:1011A000B9F02197112329F48091A60083FFF3CF92
:1011B0000DC0113029F48091A60080FFECCF06C04D
:1011C000123049F78091A60082FFE5CF80E001C090
:1011D00084E0DF91CF911F910895EF92FF920F93DA
:1011E0001F93CF93DF938C01E0909E00FF2481E05A
:1011F000E822FF24C0912401D091250180919E0016
:10120000816080939E0081E01EDB882309F0CBC0C3
:101210008091AA008F7C8093AA001092F5008091A3
:10122000A6008F7E8093A6008091A9008F7B80937B
:10123000A900EEE1F1E081918093AF0081E0E63218
:10124000F807C9F78091A60087778093A60080E011
:101250009BDF882309F0A7C08091A9008064809358
:10126000A90081E0F0DA882309F09DC080911E0179
:1012700087FF4FC08091AA008F7C80618093AA0075
:101280000115110561F52DC08091A9008F7B809318
:10129000A90081E079DF882309F085C08091F600FC
:1012A0009091F700009749F4C0E0D0E006C080912B
:1012B000AF00F80181938F0121978091F600909102
:1012C000F700009711F0209791F78091A9008064B2
:1012D0008093A9008091A6008E778093A600209726
:1012E00099F68091AA008F7C80628093AA008091F9
:1012F000A9008F7B8093A90082E046DF882309F054
:1013000052C08091A6008B778093A60082E03CDFDC
:101310004AC00115110599F18091AA008F7C806265
:101320008093AA008091A9008F7B8093A9001CC0A4
:1013300082E02ADF8823B9F5F80106C081918F0188
:101340008093AF00219759F08F012091F6003091E2
:10135000F7008091170190E02817390778F3809102
:10136000A6008B778093A600209711F782E00CDF10
:101370008823C9F48091A90080648093A90080919A
:10138000AA008F7C80618093AA008091A9008F7B46
:101390008093A90081E0F8DE882329F49091A600CB
:1013A0009E779093A6009091A90090649093A900D5
:1013B000E114F10429F490919E009E7F90939E0089
:1013C00091E09093A8001092A800DF91CF911F9117
:1013D0000F91FF90EF9008951F93182F10921E0108
:1013E00089E080931F011093200110922101109237
:1013F00023011092220110922501109224011092D3
:10140000A70080E090E0E9DE882349F410931C01F6
:10141000112311F09BE001C09AE0909326011F91E7
:1014200008951F931091A7001F708091AA00109239
:10143000A7005EDA1093A7001F9108959091C8004D
:1014400095FFFCCF8093CE0080E090E008958091DE
:10145000C80087FF08C08091C80087FF07C020919F
:10146000CE0030E005C02EEF3FEF02C02FEF3FEF80
:10147000C9010895FC01009751F4E7E2F1E0F0930F
:101480003601E0933501F0933801E09337018EE0A7
:10149000DF011D928A95E9F783E083838EE19AE06C
:1014A0009187808787E29AE0938782870895DF9308
:1014B000CF93CDB7DEB7FE013596619171918091E2
:1014C000370190913801DC0113962C911397286015
:1014D00013962C93AF0142D0E0913701F09138017F
:1014E0002381277F2383CF91DF910895EF92FF928D
:1014F0000F931F93CF93DF938C01E0913701F0910D
:101500003801838181FF20C0C0E0D0E00CC0DB0146
:101510001896ED91FC9119970995009711F0CFEF6E
:10152000DFEF0F5F1F4FF8018491609137017091D9
:101530003801882361F7DB011896ED91FC9119972A
:101540008AE00995009711F0CFEFDFEFCE01DF9130
:10155000CF911F910F91FF90EF9008952F923F929E
:101560004F925F926F927F928F929F92AF92BF92B3
:10157000CF92DF92EF92FF920F931F93DF93CF935F
:10158000CDB7DEB72C970FB6F894DEBF0FBECDBF38
:101590006C011B018A01FC0117821682838181FF85
:1015A000C4C12E010894411C511CF6019381F10124
:1015B00093FD859193FF81911F01882309F4B1C1A7
:1015C000853239F493FD859193FF81911F01853216
:1015D00021F490E0B601DBD1E8CFEE24FF2420E037
:1015E0002032B0F48B3269F08C3228F4803251F022
:1015F000833271F40BC08D3239F0803349F42160AD
:101600002CC02260246029C0286027C0206125C02A
:1016100027FD2CC0382F30533A3098F426FF08C0ED
:101620008E2D880FE82EEE0CEE0CE80EE30E15C0A2
:101630008F2D880FF82EFF0CFF0CF80EF30E206292
:101640000CC08E3221F426FD6CC1206406C08C369D
:1016500011F4206802C0883649F4F10193FD8591A8
:1016600093FF81911F01882309F0BACF982F9554D9
:10167000933018F09052933028F40C5F1F4FFFE323
:10168000F9830DC0833631F0833771F0833509F06B
:101690005CC021C0F801808189830E5F1F4F420129
:1016A00071E0A72EB12C15C062E0662E712C600E81
:1016B000711EF8018080918026FF03C06E2D70E0BE
:1016C00002C06FEF7FEFC4012C8756D15C0183010C
:1016D0002C852F7716C052E0652E712C600E711E7E
:1016E000F8018080918026FF03C06E2D70E002C05B
:1016F0006FEF7FEFC4012C8734D15C012C8520680B
:10170000830123FD1EC007C080E290E0B6012C8754
:101710003ED1FA942C858F2D90E0A816B906A0F33F
:1017200010C0F40127FD859127FF81914F0190E0C2
:10173000B6012C872CD12C85F110FA940894A108BD
:10174000B108A114B10469F7E9C0843611F08936F3
:1017500041F527FF08C0F801608171818281938182
:101760000C5F1F4F09C0F80160817181882777FDE8
:101770008095982F0E5F1F4F4FE6B42EB22297FF31
:1017800009C090958095709561957F4F8F4F9F4FC1
:10179000F0E8BF2AA2012AE030E025D1782E7418A3
:1017A00044C0853731F43FEEB32EB2222AE030E058
:1017B00025C099EFB92EB2228F36C1F0803720F4C0
:1017C000883509F0AEC00DC0803721F0883709F0A8
:1017D000A8C002C020E1B22AB4FE0BC084E0B82A3F
:1017E00008C0B4FE09C0E6E0BE2A06C028E030E02A
:1017F00005C020E130E002C020E132E0B7FE08C0C1
:10180000F80160817181828193810C5F1F4F07C055
:10181000F8016081718180E090E00E5F1F4FA201AE
:10182000E2D0782E7418FFE7BF22B6FE0BC02EEF71
:10183000B2227E1438F4B4FE07C0B2FC05C08FEEAD
:10184000B82202C0A72C01C0AE2C8B2D90E0B4FEB4
:101850000DC0FE01E70DF11D2081203319F4E9EEE2
:10186000BE2209C0A394B2FE06C004C08678907060
:10187000009709F0A3948B2C9924B3FC13C0B0FEFD
:101880000EC0AF1428F4E72CEF0CEA18AF2C07C0F9
:10189000E72C05C080E290E0B60179D0A394AF14A4
:1018A000C8F304C0AF1410F4FA1801C0FF2484FE7A
:1018B0000EC080E390E0B6016AD082FE1DC081FEBA
:1018C00003C088E590E010C088E790E00DC0C40137
:1018D00086789070009781F081FC02C080E201C0A0
:1018E0008BE2B7FC8DE290E0B60151D005C080E3F9
:1018F00090E0B6014CD0EA947E14C8F37A94F201D9
:10190000E70DF11D808190E0B60141D07720B1F75D
:1019100005C080E290E0B6013AD0FA94FF20C9F702
:1019200044CEF6012681378102C02FEF3FEFC90177
:101930002C960FB6F894DEBF0FBECDBFCF91DF91CE
:101940001F910F91FF90EF90DF90CF90BF90AF90DD
:101950009F908F907F906F905F904F903F902F90CF
:101960000895FC010590615070400110D8F78095F2
:1019700090958E0F9F1F0895FC016150704001905B
:101980000110D8F7809590958E0F9F1F08950F93A3
:101990001F93CF93DF938C01EB018B8181FF1BC0E1
:1019A00082FF0DC02E813F818C819D8128173907D0
:1019B00064F4E881F9810193F983E88306C0E8853E
:1019C000F985802F0995009731F48E819F810196CA
:1019D0009F838E8302C00FEF1FEFC801DF91CF916D
:1019E0001F910F910895FA01AA27283051F1203153
:1019F00081F1E8946F936E7F6E5F7F4F8F4F9F4FA3
:101A0000AF4FB1E03ED0B4E03CD0670F781F891FE4
:101A10009A1FA11D680F791F8A1F911DA11D6A0FB2
:101A2000711D811D911DA11D20D009F468943F9165
:101A30002AE0269F11243019305D3193DEF6CF0164
:101A40000895462F4770405D4193B3E00FD0C9F72A
:101A5000F6CF462F4F70405D4A3318F0495D31FD97
:101A60004052419302D0A9F7EACFB4E0A6959795EA
:101A7000879577956795BA95C9F7009761057105C0
:101A800008959B01AC010A2E06945795479537950A
:101A90002795BA95C9F7620F731F841F951FA01D64
:061AA0000895F894FFCF49
:101AA6004F6E004F666600000501000000000080D2
:081AB6000600010000080040D9
:00000001FF
