:100000001DC2000039C2000037C2000035C2000026
:1000100033C2000031C200002FC200002DC2000018
:100020002BC2000029C200000C94131325C200004B
:1000300023C2000021C200001FC200001DC2000038
:100040001BC2000019C2000017C2000015C2000048
:1000500013C2000011C200000FC200000DC2000058
:100060000BC2000009C2000007C2000005C2000068
:1000700003C2000001C20000FFC10000FDC100007A
:10008000FBC10000F9C10000F7C10000F5C100008C
:10009000F3C10000F1C100001201100102000008CC
:1000A000EB034C2001000102000109023E000201A5
:1000B00000C03209040000010202FF000524001004
:1000C000010424020005240600010705830308003B
:1000D000FF09040100020A000000070502024000B7
:1000E00005070581024000050403090418034400C4
:1000F000650061006E002000430061006D00650036
:1001000072006100000028034C00550046004100C9
:10011000200052004E0044004900530020004300DC
:10012000440043002000440065006D006F000000A3
:1001300001010100020201000201010003010100AE
:100140000401010006010100110101000701010085
:100150000A0101000B0101000C0101000D01010069
:100160000E01010011010100140101000101020052
:100170000201020003010200040102000501020065
:100180000101010102010101030101010401010159
:100190000101020102010201030102014C55464125
:1001A00020524E44495320416461707465720002CC
:1001B0000002000200485454502F312E31203230BA
:1001C00030204F4B0D0A5365727665723A204C55BC
:1001D000464120524E4449530D0A436F6E74656E7A
:1001E000742D747970653A20746578742F68746D15
:1001F0006C0D0A436F6E6E656374696F6E3A2063AF
:100200006C6F73650D0A0D0A00485454502F312E3F
:100210003120343034204E6F7420466F756E640D7B
:100220000A5365727665723A204C55464120524E0B
:100230004449530D0A436F6E6E656374696F6E3A7D
:1002400020636C6F73650D0A0D0A003C68746D6C59
:100250003E093C686561643E09093C7469746C65DB
:100260003E0909094C55464120576562736572760F
:1002700065722044656D6F09093C2F7469746C6563
:100280003E093C2F686561643E093C626F64793EBB
:1002900009093C68313E48656C6C6F2066726F6D71
:1002A00020796F75722055534220415652213C2FC0
:1002B00068313E09093C703E09090948656C6C6F5C
:1002C000212057656C636F6D6520746F20746865BD
:1002D000204C55464120524E4449532044656D6F91
:1002E0002057656273657276657220746573742039
:1002F000706167652C2072756E6E696E67206F6E17
:1003000020796F75722055534220415652207669EC
:100310006120746865204C554641206C69627261A9
:1003200072792E20546869732064656D6F6E7374E2
:100330007261746573207468652048545450207746
:1003400065627365727665722C205443502F495054
:1003500020737461636B20616E6420524E44495374
:100360002064656D6F20616C6C2072756E6E696EB5
:10037000672061746F7020746865204C5546412079
:1003800055534220737461636B2E0909093C6272F4
:10039000202F3E3C6272202F3E0909093C736D619B
:1003A0006C6C3E50726F6A65637420496E666F7242
:1003B0006D6174696F6E3A203C6120687265663DBC
:1003C00022687474703A2F2F7777772E6C75666178
:1003D0002D6C69622E6F7267223E687474703A2FBA
:1003E0002F7777772E6C7566612D6C69622E6F7230
:1003F000673C2F613E2E3C2F736D616C6C3E09098A
:10040000093C6872202F3E0909093C693E4C55465B
:10041000412056657273696F6E3A203C2F693E31F8
:10042000333033303309093C2F703E093C2F626F63
:1004300064793E3C2F68746D6C3E000011241FBE31
:10044000CFEFD0E2DEBFCDBF11E0A0E0B1E0E0EF42
:10045000FBE200E00BBF02C007900D92A634B1078B
:10046000D9F713E1A6E4B1E001C01D92A53FB107A1
:10047000E1F795D10C94F615C3CD9BB19F70982BE5
:100480009BB9089584B7877F84BF28E10FB6F8949D
:1004900020936000109260000FBE90E080E80FB6DD
:1004A000F89480936100909361000FBE8AB1806FD1
:1004B0008AB98BB18F708BB983E390E09093CD00B4
:1004C0008093CC0086E08093CA001092C8002093ED
:1004D000C900539A5A9A0E94F81280E090E00C9456
:1004E0007C1580EACACF80E1C8CF0F931F9381E0CB
:1004F00061E842E30E942712082F82E060E842E3AD
:100500000E942712182F83E061EC42E00E9427121C
:10051000202F30E0412F50E024233523217030700C
:1005200090E0282339232115310511F080E601C020
:1005300080E9A3DF1F910F9108958091DA1388233A
:1005400021F0813009F04FC018C08091D913813259
:1005500009F049C08091E800877F8093E8006091AE
:10056000DF137091E01389E09DE00E948811809173
:10057000E8008E778093E800FBC18091D913813A1F
:1005800091F5E0912001F091210184819581A6816E
:10059000B7810097A105B10551F41092090D81E0D2
:1005A00090E0A0E0B0E084839583A683B783809138
:1005B000E800877F8093E800E0912001F09121011D
:1005C0006481758189E09DE00E942A118091E80094
:1005D0008B778093E800E0912001F0912101148253
:1005E0001582168217820895DF93CF93CDB7DEB7B9
:1005F000AC970FB6F894DEBF0FBECDBF83E08093FB
:10060000E9008091E80080FF1CC0809146018823AA
:10061000C1F0DE011196E0E0F1E088E001900D927A
:100620008150E1F7CE01019668E070E040E050E0D3
:100630000E946E108091E8008E778093E8001092FF
:10064000460120914701223009F090C0E09120013D
:10065000F091210184819581A681B7810097A10540
:10066000B10509F083C02093E9008091E80082FF82
:1006700032C08091290790912A07009761F5CE0139
:1006800001966CE270E040E050E00E94CC102D85B5
:100690003E854F8558892D3D85E0380780E0480725
:1006A00080E0580730F08091EB0080628093EB008F
:1006B0005DC08DE491E0B90140E050E00E94CC10B3
:1006C0008091E8008B778093E8008D859E859093DC
:1006D0002A078093290781E08093E9008091E80050
:1006E00080FF44C02091070D3091080D2115310580
:1006F000E9F1CE0101964CE2FC0111924A95E9F72D
:1007000041E050E060E070E049835A836B837C8372
:10071000A901445D5F4F60E070E04D835E836F83AD
:10072000788744E250E060E070E049875A876B8741
:100730007C8740E050E02D873E874F87588B6CE2E6
:1007400070E040E050E00E946E106D857E858BE287
:1007500097E040E050E00E946E108091E8008E77B4
:100760008093E8001092080D1092070DAC960FB61A
:10077000F894DEBF0FBECDBFCF91DF910895809179
:10078000D813843059F48091290790912A07009753
:1007900029F080E272DE41D080E66FCE089572DEED
:1007A000E5D50E94681080E168DE7894E8DF93D494
:1007B0001BDF0E944415FACF923029F0933041F0AC
:1007C0009130E9F417C02EE330E0EAEAF0E01BC014
:1007D000813041F0813018F0823089F406C0E8EEB3
:1007E000F0E005C0ECEEF0E002C0E6E0F1E02491BC
:1007F00030E009C022E130E0E8E9F0E004C020E0A8
:1008000030E0E0E0F0E0DA011196FC93EE93C901EC
:100810000895282F892F922F0895EF92FF92CF935A
:10082000DF93CDE4D1E0CE019CD0CE0168E071E051
:1008300046E050E00E94C115009751F0CE0162E100
:1008400071E046E050E00E94C115009709F04BC0EE
:100850008091290790912A07DCDF26E081309207FA
:1008600008F441C08091590190915A01D2DF38E0DB
:100870008030930759F028E086309207A1F58BE588
:1008800091E069E377E00E94730E06C08BE591E08A
:1008900069E377E00E94F20E1816190604F5A1E349
:1008A000B7E0E8E0F1E026E001900D922150E1F799
:1008B000ABE2B7E0E3E5F1E026E001900D922150D4
:1008C000E1F72091590130915A0130933807209374
:1008D00037070E969093080D8093070D04C03FEFE5
:1008E0008F3F930721F010922A0710922907DF917A
:1008F000CF91FF90EF900895CF93DF937695679512
:10090000282F392FE901E0E0F0E080E090E0DC0101
:1009100009C02991399140E050E0820F931FA41F34
:10092000B51F3196E617F707A0F30BC09C01AD0188
:1009300040705070CD01AA27BB27820F931FA41FC0
:10094000B51F9C01AD0120703070211531054105A6
:10095000510561F79C0120953095C901DF91CF9138
:10096000089508950895089508950895089508959F
:10097000E0912001F091210180819181A281B381D8
:1009800084309105A105B10509F4A3C08530910516
:10099000A105B10560F482309105A105B105D1F042
:1009A00083309105A105B10509F0CAC289C086301E
:1009B0009105A105B10509F43CC286309105A10558
:1009C000B10508F4E6C188309105A105B10509F02B
:1009D000B7C253C221E02093460182E090E0A0E03C
:1009E000B0E88093090D90930A0DA0930B0DB0937E
:1009F0000C0D84E390E0A0E0B0E080930D0D9093A7
:100A00000E0DA0930F0DB093100D1092150D1092B6
:100A1000160D1092170D1092180D81E090E0A0E0D5
:100A2000B0E08093190D90931A0DA0931B0DB09315
:100A30001C0D10921D0D10921E0D10921F0D109284
:100A4000200D8093210D9093220DA093230DB09340
:100A5000240D1092250D1092260D1092270D109244
:100A6000280D8093290D90932A0DA0932B0DB09300
:100A70002C0D88E096E0A0E0B0E080932D0D9093DF
:100A80002E0DA0932F0DB093300D1092310D1092BA
:100A9000320D1092330D1092340D1092350D1092CC
:100AA000360D1092370D1092380D1092390D1092AC
:100AB0003A0D10923B0D10923C0D20934701089582
:100AC00010924601148215821682178210924701F5
:100AD000089581E0809346018091150D9091160D47
:100AE000A091170DB091180D24E030E040E050E8DF
:100AF0002093090D30930A0D40930B0D50930C0D6C
:100B000028E130E040E050E020930D0D30930E0DD1
:100B100040930F0D5093100D8E3021E0920721E08D
:100B2000A20720E0B20709F4F6C08F3061E0960713
:100B300061E0A60760E0B60708F064C08630E1E037
:100B40009E07E1E0AE07E0E0BE0709F4BFC08730D2
:100B5000F1E09F07F1E0AF07F0E0BF0728F5823032
:100B600021E0920721E0A20720E0B20709F4DCC0EF
:100B7000833061E0960761E0A60760E0B60750F4B5
:100B80008130E1E09E07E1E0AE07E0E0BE0709F05A
:100B9000E3C08CC08530F1E09F07F1E0AF07F0E0E3
:100BA000BF0708F0D9C0C0C08C3021E0920721E017
:100BB000A20720E0B20798F48A3061E0960761E06E
:100BC000A60760E0B60708F081C08730E1E09E0725
:100BD000E1E0AE07E0E0BE0709F0BEC087C08C30A0
:100BE000F1E09F07F1E0AF07F0E0BF0709F469C04B
:100BF0008D3021E0920721E0A20720E0B20709F042
:100C0000ABC069C0863061E0960762E0A60760E08D
:100C1000B60728F58130E1E09E07E2E0AE07E0E0AC
:100C2000BE0708F081C08431F1E09F07F1E0AF0713
:100C3000F0E0BF0709F478C0823022E0920721E09B
:100C4000A20720E0B20709F46FC0813161E0960786
:100C500061E0A60760E0B60709F07EC06EC0843090
:100C6000E1E09E07E1E0AE07E1E0BE0709F44EC017
:100C70008530F1E09F07F1E0AF07F1E0BF0758F4DE
:100C800081509140A140B14082309105A105B1054C
:100C900008F062C030C081509140A240B140833022
:100CA0009105A105B10508F057C03EC081E29DE065
:100CB00060E371E04CE650E00E9499152CE630E0CC
:100CC00000C18FEF9FEFAFEFB0E03BC08CED95E040
:100CD000A0E0B0E036C081E29DE06CE971E043E164
:100CE00050E00E94991523E130E0EBC080EA96E8DD
:100CF000A1E0B0E026C081E29DE06FEA71E046E04D
:100D000050E00E94991526E030E0DBC081E090E0E1
:100D1000A0E0B0E016C08091480190914901A091F7
:100D20004A01B0914B010DC01092210D1092220D7D
:100D30001092230D1092240D0CC080E696E0A0E0E6
:100D4000B0E08093210D9093220DA093230DB093DA
:100D5000240D24E030E0B5C08BEB90E0A0E0B0ECD7
:100D60008093150D9093160DA093170DB093180D49
:100D70001092190D10921A0D10921B0D10921C0D4D
:100D800010921D0D10921E0D10921F0D1092200D2D
:100D9000089581E0809346018091150D9091160D84
:100DA000A091170DB091180D25E030E040E050E81B
:100DB0002093090D30930A0D40930B0D50930C0DA9
:100DC00020E130E040E050E020930D0D30930E0D17
:100DD00040930F0D5093100D20911D0D30911E0D5D
:100DE00040911F0D5091200D8E3061E0960761E01B
:100DF000A60760E0B60751F08330E1E09E07E1E02E
:100E0000AE07E1E0BE0709F08FC052C02F5E324F3F
:100E1000F90180819181A281B381809348019093EF
:100E20004901A0934A01B0934B0182E080934701AE
:100E30003FC081E08093460186E090E0A0E0B0E80A
:100E40008093090D90930A0DA0930B0DB0930C0D98
:100E500080E190E0A0E0B0E080930D0D90930E0D46
:100E6000A0930F0DB093100D1092110D1092120D52
:100E70001092130D1092140D1BC081E08093460157
:100E800088E090E0A0E0B0E88093090D90930A0D0F
:100E9000A0930B0DB0930C0D80E190E0A0E0B0E0CA
:100EA00080930D0D90930E0DA0930F0DB093100D28
:100EB0001092150D1092160D1092170D1092180D1C
:100EC00008951092150D1092160D1092170D109294
:100ED000180D40E050E080910D0D90910E0DA09105
:100EE0000F0DB091100D820F931FA41FB51F80939B
:100EF0000D0D90930E0DA0930F0DB093100D209338
:100F0000190D30931A0D40931B0D50931C0D80E169
:100F100090E0A0E0B0E080931D0D90931E0DA09393
:100F20001F0DB093200D08958BEB90E0A0E0B0EC86
:100F30008093150D9093160DA093170DB093180D77
:100F40000895EF92FF920F931F93CF93DF93EC01DD
:100F50008B010ADD8881883041F5F8011082118209
:100F6000138212828C819D81958384838E819F81DF
:100F700097838683E0902907F0902A0725E431E0E3
:100F8000E20EF31EEC1AFD0ABE01685F7F4FC80136
:100F90000896A7010E94D715E7012896C801BE014F
:100FA000ABDCF8019383828302C0C0E0D0E0CE01C5
:100FB000DF91CF911F910F91FF90EF9008959B01CA
:100FC000692F782F832F922F0895282F892F922F02
:100FD0000895AF92BF92CF92DF92EF92FF920F935C
:100FE0001F93CF93DF935C016901E62EE7017E0139
:100FF000F72EE701FA01EA80FB8000E010E0808133
:101000009181A0E0B0E0E80EF91E0A1F1B1F888145
:101010009981A0E0B0E0E80EF91E0A1F1B1F828133
:101020009381A0E0B0E0E80EF91E0A1F1B1F86E0C6
:1010300090E0CBDFA0E0B0E0E80EF91E0A1F1B1F16
:10104000C601C3DFA0E0B0E08E0D9F1DA01FB11F41
:10105000F601F695E795E50160E070E00AC0299198
:10106000399140E050E0820F931FA41FB51F6F5FBE
:101070007F4F6E177F0798F3C0FE15C0EE0FFF1F5E
:10108000EA0DFB1D2081820F911DA11DB11D0BC01A
:101090009C01AD0140705070CD01AA27BB27820F83
:1010A000931FA41FB51F9C01AD0120703070211546
:1010B00031054105510561F79C0120953095C90125
:1010C000DF91CF911F910F91FF90EF90DF90CF9024
:1010D000BF90AF9008952F923F924F925F926F9280
:1010E0007F928F929F92AF92BF92CF92DF92EF92B8
:1010F000FF920F931F93DF93CF930F92CDB7DEB77D
:101100000DE81DE0CC24DD2426E1E22E22E0F22EC3
:101110001EC08091D113813089F4CE9CC001CF9C38
:10112000900DDE9C900D1124BC016356724FE0912E
:10113000D213F091D3138357924F09950894C11C91
:10114000D11C0A5E1D4F83E0C816D10459F02091CE
:10115000CF133091D013F80180819181281739077E
:1011600069F7D7CF8091070D9091080D009709F08E
:10117000E9C0EFE9FFE0CC24DD248081882309F475
:10118000D7C08181882309F4D3C099E3292E97E041
:10119000392E81010C5E1F4F86E192E0C89E40010E
:1011A000C99E900CD89E900C11248DE8E82E8DE0FD
:1011B000F82EE80CF91CF701A088B1888081918194
:1011C00090934E0780934D0782819381F80193831A
:1011D0008283F7014484558466847784C301B20115
:1011E000EEDEF8016483758386839783F70160855B
:1011F000718582859385E3DEF80160877187828738
:101200009387209159072F70206580E092E0298311
:10121000DCDEF8019787868780E18587138A128A4A
:10122000118A108A2981207F2487A101485D5F4FA0
:1012300094012156324FCA01B901A5010E94CE1571
:10124000C501A0E0B0E0840D951DA61DB71DF701F6
:1012500084879587A687B78795012C5E3F4FA401A9
:101260004F56524FC8016EE071E0B3DEF801918B2A
:10127000808B8501085D1F4FC801A7DEF1019383B4
:101280008283118285E48093390716821782158242
:1012900014821386128686E0818780E88087809199
:1012A0000E0190910F01A0911001B091110184875E
:1012B0009587A687B787F70184819581A681B78135
:1012C000F101808B918BA28BB38BC10164E170E043
:1012D00013DBF10193878287D1011897E8E0F1E0F1
:1012E00086E001900D928150E1F7ABE2B7E0E2E2D7
:1012F000F1E086E001900D928150E1F780E098E006
:1013000064DE9093380780933707025F1F4F109376
:10131000080D0093070D86E192E0C89EF001C99E7A
:10132000F00DD89EF00D1124E056F04F10820AC047
:101330000894C11CD11CEA5EFD4F83E0C816D1049D
:1013400009F01BCF0F90CF91DF911F910F91FF906C
:10135000EF90DF90CF90BF90AF909F908F907F9055
:101360006F905F904F903F902F9008951092D113FF
:101370008AE08093A20F8093B8118093CE130895D2
:101380002091CF133091D0132817390751F06130D5
:1013900071F42091D113222361F49093D0138093A0
:1013A000CF136093D1135093D3134093D21381E0A2
:1013B000089580E008952091CF133091D01328171D
:1013C000390719F48091D113089580E008954F9260
:1013D0005F927F928F929F92AF92BF92CF92DF9255
:1013E000EF92FF920F931F93CF93DF936C015B01FA
:1013F0004A01722ECDE8DDE000E010E036E1432E38
:1014000032E0532E888199818C159D05D1F4049D7D
:101410007001059DF00C149DF00C1124C7018F562E
:10142000924FB50144E050E00E94C115009749F485
:101430008A819B818815990521F4F701EE55F04FBB
:1014400033C00F5F1F4FCA5EDD4F03301105D1F669
:101450008091A20F8A3051F08091B8118A3041F00A
:101460008091CE138A3019F522E003C020E001C03C
:1014700021E030E086E192E0289FF001299FF00D05
:10148000389FF00D1124E357F24FD182C082E5015D
:1014900088819981AA81BB8184839583A683B78340
:1014A00093828282EB5EFD4F708281E001C080E01A
:1014B000DF91CF911F910F91FF90EF90DF90CF9030
:1014C000BF90AF909F908F907F905F904F900895C6
:1014D0006F927F928F929F92AF92BF92CF92DF9244
:1014E000EF92FF920F931F93CF93DF936C015B01F9
:1014F0004A01CDE8DDE000E010E046E1642E42E084
:10150000742E888199818C159D05D9F4069D7001F2
:10151000079DF00C169DF00C1124C7018F56924FB9
:10152000B50144E050E00E94C115009751F48A8152
:101530009B818815990529F4F701EE55F04F8081BC
:1015400008C00F5F1F4FCA5EDD4F03301105C9F69B
:101550008AE0DF91CF911F910F91FF90EF90DF9084
:10156000CF90BF90AF909F908F907F906F90089595
:101570006F927F928F929F92AF92BF92CF92DF92A3
:10158000EF92FF920F931F93CF93DF936C015B0158
:101590004A01CDE8DDE000E010E056E1652E52E0C2
:1015A000752E888199818C159D05D1F4069D700159
:1015B000079DF00C169DF00C1124C7018F56924F19
:1015C000B50144E050E00E94C115009749F48A81BA
:1015D0009B818815990521F497012B56324F09C03C
:1015E0000F5F1F4FCA5EDD4F03301105D1F620E0BB
:1015F00030E0C901DF91CF911F910F91FF90EF90E3
:10160000DF90CF90BF90AF909F908F907F906F9022
:1016100008954F925F926F927F928F929F92AF92B6
:10162000BF92CF92DF92EF92FF920F931F93DF93BF
:10163000CF930F92CDB7DEB72B013C018A01CB01CE
:1016400094D9D2011296ED90FC901397C701B3DEA6
:10165000813009F0A2C1F201858581FF08C0B30184
:10166000645F7F4F40815181C70120E0B0DED2012D
:101670001D962C911D971296ED90FC9013978CE07F
:10168000A82EB12CA60CB71CCD90DC90119722FF90
:101690000AC0C701B501A6012AE099DE882309F432
:1016A000B2C184E123C1C701B501A601298310DFBE
:1016B0002981843009F432C1853048F4823009F43C
:1016C00043C0833008F060C0882359F09CC1863045
:1016D00009F45AC1863008F42BC1873009F093C150
:1016E00008C1223009F08FC1C701B501A6016FDE24
:1016F000882341F182E1D8011D968C93F20140814B
:10170000518182819381B50133DF7C01D20114962E
:101710006D917D918D919C91179751DC6F5F7F4FFB
:101720008F4F9F4FF7016083718382839383D7012B
:1017300014961D921D921D921C921797E45FFD4F07
:10174000108276C184E0D2C0203109F05CC1C701AB
:10175000B501A60123E03BDED2014D915C911197CA
:1017600012968D919C911397B50102DFFC012481A3
:101770003581468157812F5F3F4F4F4F5F4F248305
:101780003583468357833FC1213169F5F8012587A9
:10179000D2014D915C91119712968D919C91139766
:1017A000B50126E014DEF2014081518182819381EE
:1017B000B501DEDEFC0180819181A281B3810196B9
:1017C000A11DB11D80839183A283B38324813581C0
:1017D000468157812F5F3F4F4F4F5F4F24833583A3
:1017E0004683578325C1203119F0283109F00BC1F8
:1017F000C701B501A601BCDE7C01FC01E45FFD4F21
:101800008081882389F4D701A55FBD4F8C918823FF
:1018100059F4D701A65FBD4F1C9281E08083D701A8
:1018200019961C921E921897F701E65FFD4F808172
:10183000882309F0E5C0F70180849184F0E08F16D9
:10184000F2E09F0609F4DCC0D2011C96CC90C29451
:10185000FFE0CF22DD24CC0CDD1CCC0CDD1CF30121
:1018600082819381B2DBD3012C912F7030E0220F63
:10187000331F220F331F5C01A21AB30AAC18BD0834
:101880009701265F3F4F280D391DC40CD51CC90197
:10189000B601A5010E94CE15950140E050E0F70188
:1018A00080819181A281B381820F931FA41FB51FF4
:1018B00080839183A283B383808591858A0D9B1D4C
:1018C00091878087F2E080309F0731F0D2011D962A
:1018D0008C911D9783FF97C0F701E45FFD4F108245
:1018E000F701E55FFD4F81E0808380E1F8018587A6
:1018F0009FC0C701B501A6013BDE21E1D8011D96BD
:101900002C931D97FC01E45FFD4F1082F201408192
:10191000518182819381B50124E034C0213159F095
:10192000203109F070C0C701B501A60125E033C020
:10193000213109F068C0C701B501A60119DEFC011B
:1019400080E1D8011D968C9380819181A281B38121
:101950000196A11DB11D80839183A283B38324814D
:101960003581468157812F5F3F4F4F4F5F4F248313
:10197000358346835783F20140815181828193816F
:10198000B5012AE024DD54C0203109F03CC0C70174
:10199000B501A6012AE01BDD36C084E1D8011D9601
:1019A0008C931D9745C080E092E009C0D70118963E
:1019B0002D913C91199780E092E0821B930B05DBFF
:1019C000F80197878687D80153961C921E925297EA
:1019D00051961C921E9250971C968C911C97807F5A
:1019E0001C968C93B301605F7F4FC801A50124E171
:1019F00030E0EFDAF801918B808B24E130E005C014
:101A00002FEF3FEF02C020E030E0C9010F90CF91EF
:101A1000DF911F910F91FF90EF90DF90CF90BF90DB
:101A2000AF909F908F907F906F905F904F900895B0
:101A3000D2011296CD90DC9013976CE0A62EB12CBB
:101A4000A60CB71C4D915C91C601B50191DD7C01DE
:101A5000F801D182C082D2018D919C9193838283BF
:101A6000F7016481758186819781A9DAD80114967E
:101A70006D937D938D939C931797F701608171818E
:101A8000828193819CDAD80118966D937D938D9312
:101A90009C931B971C968C911C978F7080651C964D
:101AA0008C931C97F701E45FFD4F8081882309F434
:101AB0007ACF7CCF282F892F922F0895EF92FF9213
:101AC0000F931F93CF93DF937C01EB018A01CB012E
:101AD0000E94B6048A819B81EDDF83349105F1F485
:101AE000BE01685F7F4FA801485F5F4FC70120D0EC
:101AF000181619069CF42A813B81F8013183208352
:101B0000288139813383228317821682EC0128963B
:101B1000CE01D0DFF8019583848302C0C0E0D0E01D
:101B2000CE01DF91CF911F910F91FF90EF9008951B
:101B30008F929F92AF92BF92CF92DF92EF92FF92DD
:101B40000F931F93CF93DF938B01EA014C0180EF3A
:101B5000E82EF12CE60EF71ECB010E94B7046E01B1
:101B6000EC2FFD2D80EFDF011D928A95E9F7F8013A
:101B70008181898382E0888382818A831B82848138
:101B80009581A681B7818C839D83AE83BF8319869F
:101B90001886828593859B878A87A0901C01B090C8
:101BA0001D01C0901E01D0901F01A88AB98ACA8A5F
:101BB000DB8AB801645E7F4FCE014C9646E050E070
:101BC000F6D7FE01E451FF4F83E692E8A3E5B3E6C2
:101BD00080839183A283B383D4011C96AD92BD927E
:101BE000CD92DC921F9780910E0190910F01A091F0
:101BF0001001B0911101F401808B918BA28BB38BFA
:101C000059C0853309F049C0D7011296F701828186
:101C1000813019F0833009F042C0C051DF4FFE011E
:101C200085E3819381E08983EF0121968C91813056
:101C300011F482E001C085E08183DE01119681E02C
:101C40008983FD01319684E011968C93DF01119612
:101C50002FEF2183FD01319611962C93DF01119610
:101C60002183FD01319611961C92DF01119696E3B6
:101C70009183FD01319611968C9380910E01909184
:101C80000F01A0911001B091110181839283A38370
:101C9000B483258320E031E014C0882339F0D701D4
:101CA00011968C91119790E0029602C081E090E02D
:101CB000E80EF91EF70180818F3F09F0A2CF20E0E6
:101CC00030E0C901DF91CF911F910F91FF90EF900C
:101CD000DF90CF90BF90AF909F908F900895282F66
:101CE000892F922F0895CF92DF92EF92FF920F9358
:101CF0001F93CF93DF93182F092F7B010E94B2040B
:101D0000C12EE6016E01D02EE6018A819B81E7DFBC
:101D1000E8E080309E0709F059C08E819F81DFDFA7
:101D20008130910509F052C0C60148966EE071E01D
:101D300044E050E026D7009751F0C601429668E093
:101D400071E046E050E01DD7009709F03FC08701E1
:101D500088819981F701918380838A819B81938314
:101D600082838C8184838D81858382E090E0B7DFDC
:101D7000F70197838683D7015296FE01389686E055
:101D800001900D928150E1F78E859F85A889B989D0
:101D9000F801808F918FA28FB38FD8011896E8E059
:101DA000F1E086E001900D928150E1F780910E0103
:101DB00090910F01A0911001B0911101F801868757
:101DC0009787A08BB18B2CE130E002C020E030E09F
:101DD000C901DF91CF911F910F91FF90EF90DF909C
:101DE000CF900895DF92EF92FF920F931F93CF93BE
:101DF000DF938C01EB010E94B304F801D080FFE077
:101E0000DF2220E1E22EF12CE00EF11EC7016EE090
:101E100071E044E050E0B5D6009749F0C70168E1B1
:101E200071E044E050E0ADD6009709F059C06D2D47
:101E300070E0660F771F660F771FF8018185863087
:101E400071F08131A1F0813009F04AC09E012C5E11
:101E50003F4FC801860F971FB90173D80FC0600F9D
:101E6000711FAE014C5E5F4FC801D3DB07C0600F2E
:101E7000711FAE014C5E5F4FC80120DE9C01181639
:101E8000190684F584E1E82EF12CE20EF31EFA82A5
:101E9000EB82198285E488831E821F821D821C8248
:101EA0001B861A86F8018185898780E88887808962
:101EB0009189A289B3898C879D87AE87BF878485E6
:101EC0009585A685B785888B998BAA8BBB8BCE0110
:101ED00064E170E00E947C049B878A87970102C0BE
:101EE00020E030E0C901DF91CF911F910F91FF9069
:101EF000EF90DF900895DB010D900020E9F7AD0130
:101F000041505040461B570B63D69C0181E0211580
:101F1000310509F080E008958F929F92AF92BF92B1
:101F2000CF92DF92EF92FF920F931F93DF93CF93A5
:101F300000D0CDB7DEB75C018B0142E0842E912C3E
:101F4000860E971E33E0E32E32E0F32EE60EF71EE8
:101F5000D7018C91882309F465C022E0C22ED22ECD
:101F6000C60ED71EF6018081882309F0A2C0C401E5
:101F700068E271E0C0DF882301F1C4016CE271E026
:101F8000BADF882351F110924C01C40165EB71E076
:101F9000D9D581E0D6018C93F40101900020E9F7B6
:101FA0003197E819F909D8011196FC93EE93F701DE
:101FB0008083F801EC5FFD4F7BC0C40163E371E0F7
:101FC0009ADF8823E9F0C40168E371E094DF882395
:101FD00021F0C40165EB71E003C0C40169E072E067
:101FE000B1D581E0D6018C93F40101900020E9F78E
:101FF0003197E819F909D8011196FC93EE9309C0BD
:10200000C40160E471E077DF882331F081E0D6011C
:102010008C93F701808348C0D7011C92F80111828C
:10202000108247C0FB01EC5FFD4F8081882309F4DB
:1020300040C0FB01EE5FFD4F80818823D1F16091AC
:102040004C0170E07695762F662777956795655BEE
:102050007D4FCB0169837A837CD5E82EF92E698187
:102060007A81F1E8EF16F10418F080E8E82EF12CFF
:10207000C401A70177D5F801EE5FFD4F81E08083B1
:10208000D8011196FC92EE92F801ED5FFD4F80832E
:1020900080914C01982F9F5F90934C01833049F4BD
:1020A000F801EC5FFD4F1082F501EB5EFD4F87E01C
:1020B00080830F900F90CF91DF911F910F91FF9030
:1020C000EF90DF90CF90BF90AF909F908F9008954A
:1020D00080E090E561E04CE85FE052C98F929F920A
:1020E000BF92CF92DF92EF92FF920F931F93DF93F5
:1020F000CF930F92CDB7DEB7E82E4B018A019983BB
:10210000FED1B82E99818823C9F5F92E0115110544
:1021100039F0F80120813181821A930AE20EF31E10
:10212000CC24DD2426C08091E80085FD17C0809175
:10213000E8008E778093E800A7D40115110551F0CF
:10214000F801808191818C0D9D1D9183808325E014
:10215000B22E14C0D4D1882361F00FC0F701819151
:102160007F018093F1000894810891080894C11CB4
:10217000D11C81149104B9F601C0B82E8B2D0F909B
:10218000CF91DF911F910F91FF90EF90DF90CF9053
:10219000BF909F908F9008958F929F92BF92CF9201
:1021A000DF92EF92FF920F931F93DF93CF930F92E3
:1021B000CDB7DEB7E82E4B018A019983A0D1B82EA6
:1021C00099818823C9F5F92E0115110539F0F80117
:1021D00020813181821A930AE20EF31ECC24DD2481
:1021E00026C08091E80085FD17C08091E8008B77BC
:1021F0008093E80049D40115110551F0F801808160
:1022000091818C0D9D1D9183808345E0B42E14C077
:1022100076D1882361F00FC08091F100F70181939E
:102220007F010894810891080894C11CD11C811475
:102230009104B9F601C0B82E8B2D0F90CF91DF918C
:102240001F910F91FF90EF90DF90CF90BF909F90E4
:102250008F900895282F392FF9018091DF139091E5
:10226000E0138617970718F4BC0120E037C061150A
:102270007105D9F78091E8008E778093E800F5CF5B
:102280008091D813882309F43FC08530C9F180912B
:10229000E80083FD37C08091E80082FD2BC080916B
:1022A000E80080FF1BC08091F2009091F30006C00F
:1022B00021912093F10061507040019661157105E4
:1022C00019F088309105A0F321E08830910509F0DC
:1022D00020E08091E8008E778093E8006115710519
:1022E00079F6222369F606C08091D813882361F01D
:1022F000853061F08091E80082FFF6CF80E008959C
:1023000083E0089581E0089582E0089583E00895D0
:102310006115710531F520C02091D8132223A9F150
:10232000253079F12091E80023FD2DC02091E800AF
:1023300022FFF2CFE82FF92F07C08091F10081939F
:10234000CF016150704041F0CF012091F2003091F7
:10235000F3002115310589F72091E8002B772093B0
:10236000E80061157105C1F606C08091D813882375
:1023700061F0853061F08091E80080FFF6CF80E069
:10238000089583E0089581E0089582E0089583E050
:102390000895E82FF92F8091DF139091E0138617AD
:1023A000970718F4BC0120E038C061157105D9F712
:1023B0008091E8008E778093E800F5CF8091D81364
:1023C000882309F440C08530D1F18091E80083FD75
:1023D00038C08091E80082FD2CC08091E80080FF29
:1023E0001CC08091F2009091F30007C024912093CB
:1023F000F10031966150704001966115710519F038
:102400008830910598F321E08830910509F020E0AB
:102410008091E8008E778093E8006115710571F670
:10242000222361F606C08091D813882361F085309D
:1024300061F08091E80082FFF6CF80E0089583E0AC
:10244000089581E0089582E0089583E00895982F2B
:102450002CC0292F2F702093E900981739F0709124
:10246000EC002091ED005091F00003C0242F762F56
:1024700050E021FF19C03091EB003E7F3093EB001C
:102480003091ED003D7F3093ED003091EB003160F5
:102490003093EB007093EC002093ED005093F0002C
:1024A0002091EE0027FF08C09F5F973090F28F7059
:1024B0008093E90081E0089580E008958091D91328
:1024C00087FF13C004C08091D8138823B9F080918E
:1024D000E80082FFF8CF8091E8008B778093E800D6
:1024E00008958091D813882349F08091E80080FFF7
:1024F000F8CF8091E8008E778093E800089580916E
:10250000E4009091E50044E62091EC0020FF26C015
:102510002091E80020FD16C02091D8132223A1F0BD
:102520002530A1F02091EB0025FD12C02091E400A0
:102530003091E5002817390739F3442359F0415009
:10254000C901E2CF80E0089582E0089583E0089514
:1025500081E0089584E0089580E008952091E800E6
:1025600022FFDACFF9CF0F931F93CF93DF934ED093
:1025700055D0C8EDD0E088818F77888388818068C6
:10258000888388818F7D8883E7EDF0E08081806893
:10259000808319BC1092D8131092D4131092D613C2
:1025A0001092D51300EE10E0F80180818B7F8083BC
:1025B00088818160888380E060E042E048DFE1EE6E
:1025C000F0E080818E7F8083E2EEF0E080818160A8
:1025D0008083808188608083F80180818E7F808302
:1025E000888180618883DF91CF911F910F91089539
:1025F000E8EDF0E080818F7E8083E7EDF0E0808180
:102600008160808381E08093D713ADCFE8EDF0E067
:1026100080818C7F80831092E20008951092DA000E
:102620001092E10008951F920F920FB60F920BB611
:102630000F9211242F933F934F935F936F937F9348
:102640008F939F93AF93BF93EF93FF938091E1009C
:1026500082FF0AC08091E20082FF06C08091E10003
:102660008B7F8093E1000FD28091DA0080FF1FC042
:102670008091D80080FF1BC08091DA008E7F80930C
:10268000DA008091D90080FF0DC08CE089BD8EE01A
:1026900089BD09B400FEFDCF81E08093D8130E946C
:1026A000710205C019BC1092D8130E947302809168
:1026B000E10080FF18C08091E20080FF14C080918B
:1026C000E2008E7F8093E2008091E200806180933F
:1026D000E2008091D80080628093D80019BC85E028
:1026E0008093D813D0D18091E10084FF2DC08091D8
:1026F000E20084FF29C08CE089BD8EE089BD09B469
:1027000000FEFDCF8091D8008F7D8093D80080910E
:10271000E1008F7E8093E1008091E2008F7E8093C4
:10272000E2008091E20081608093E2008091D41306
:10273000882321F48091E30087FF02C084E001C078
:1027400081E08093D8139FD18091E10083FF22C064
:102750008091E20083FF1EC08091E100877F80931B
:10276000E10082E08093D8131092D4138091E100AD
:102770008E7F8093E1008091E2008E7F8093E20063
:102780008091E20080618093E20080E060E042E0BE
:102790005EDE79D1FF91EF91BF91AF919F918F91C3
:1027A0007F916F915F914F913F912F910F900BBE51
:1027B0000F900FBE0F901F9018951F93DF93CF932C
:1027C000CDB7DEB7AC970FB6F894DEBF0FBECDBF66
:1027D000E9EDF3E18091F100819323E1E13EF2071D
:1027E000C9F70E949D028091E80083FF34C1809167
:1027F000D9132091DA13253009F484C0263040F42F
:102800002130A1F1213070F0233009F024C12EC015
:10281000283009F4F1C0293009F400C1263009F04C
:102820001AC193C0803821F0823809F014C108C061
:102830008091D5139091D613992371F082600CC0CA
:102840008091DD138F708093E9009091EB0081E01F
:1028500095FF80E01092E9009091E800977F9093B7
:10286000E8008093F1001092F100D1C0882319F0A4
:10287000823009F0F0C090E08F719070009729F0DD
:102880008230910509F0E7C00BC08091DB138130E5
:1028900009F0E1C0233009F080E08093D6132CC00A
:1028A0008091DB13882341F52091DD132F7009F40B
:1028B000D2C02093E9008091EB0080FF1DC0809181
:1028C000DA13833021F48091EB00806213C0809191
:1028D000EB0080618093EB0081E090E002C0880F04
:1028E000991F2A95E2F78093EA001092EA008091FE
:1028F000EB0088608093EB001092E9008091E80083
:10290000877F88C0882309F0A6C01091DB131F774A
:102910008091E3008078812B8093E3008091E80030
:10292000877F8093E800CADD8091E80080FFFCCFBC
:102930008091E30080688093E300112311F083E02D
:1029400001C082E08093D81386C08058823008F09E
:1029500082C08091DB139091DC1323E08C3D9207C1
:1029600091F583E08C838AE28B835FB7F894DE0174
:10297000159680E090E04EE061E2E42FF0E0609395
:102980005700E49180FF03C0E295EF704F5FEF7056
:102990002E2F30E0EA3018F0295C3F4F02C0205D56
:1029A0003F4F2D933D9301968431910531F75FBFE1
:1029B0008091E800877F8093E800CE0103966AE269
:1029C00070E048DC13C06091DD13AE014F5F5F4FD4
:1029D0000E94DC03BC01009709F43DC08091E8002F
:1029E000877F8093E80089819A81D3DC8091E80019
:1029F0008B778093E8002FC0803869F58091E800DC
:102A0000877F8093E8008091D4138093F1008091B8
:102A1000E8008E778093E80051DD1DC08823D9F44B
:102A20009091DB139230B8F48091E800877F809317
:102A3000E8009093D41342DD8091D413882321F4CD
:102A40008091E30087FF02C084E001C081E08093B1
:102A5000D8130E9475028091E80083FF0AC080911C
:102A6000E800877F8093E8008091EB00806280938C
:102A7000EB00AC960FB6F894DEBF0FBECDBFCF9182
:102A8000DF911F91089508951F938091D813882393
:102A9000A9F08091E9008F709091EC0090FF02C046
:102AA00010E801C010E0182B1092E9008091E800B6
:102AB00083FF01C082DE1F701093E9001F9108950B
:102AC0009091C80095FFFCCF8093CE0080E090E00D
:102AD00008958091C80087FF08C08091C80087FFD3
:102AE00007C02091CE0030E005C02EEF3FEF02C0BE
:102AF0002FEF3FEFC9010895FC01009751F4E1EE7B
:102B0000F3E1F093F013E093EF13F093F213E093FB
:102B1000F1138EE0DF011D928A95E9F783E083834C
:102B200080E695E19187808789E695E193878287A2
:102B30000895FB01DC0102C005900D924150504008
:102B4000D8F70895FB01DC0105900D920020E1F714
:102B50000895FC0105900020E9F7809590958E0F6F
:102B60009F1F0895FB01DC014150504048F0059043
:102B70000D920020C9F701C01D9241505040E0F76E
:102B80000895FB01DC0104C08D910190801921F4AE
:102B900041505040C8F7881B990B0895FB01DC0198
:102BA00002C001900D9241505040D8F70895681727
:102BB000790768F4FB01DC01E40FF51FA40FB51FD2
:102BC00002C002900E9241505040D8F70895E6CFCF
:102BD000FB01DC014150504030F08D910190801993
:102BE00019F40020B9F7881B990B0895F894FFCFCA
:102BF000A1010000000000000001000100010A0026
:102C00000002FFFFFFFFFFFFFFFFFFFF0A000001C1
:102C1000090D0200020002004745540047455420B8
:102C20002F2000484541440048454144202F2000C2
:062C30005452414345002F
:00000001FF
